:100000000C94B8380C945D390C945D390C945D39BE
:100010000C945D390C945D390C945D390C945D3908
:100020000C945D390C945D390C945D390C945D39F8
:100030000C945D390C94A23B0C945D390C945D39A1
:100040000C945D390C945D390C945D390C945D39D8
:100050000C945D390C945D390C945D390C945D39C8
:100060000C945D390C945D390C945D390C945D39B8
:100070005A5501200201003808000000000000006D
:10008000000000000062457045FA45D549BF49733C
:100090004582459145A5499F45AD450002080008A8
:1000A0005504085A0000F8000990000A1E320500A5
:1000B00000FF0000009B00000000000000000000A6
:1000C0000000000000000000000000000000000030
:1000D0000000000000000000000000000000000020
:1000E0000000000000000000000000000000000010
:1000F0000000000000000000000000000000000000
:1001000000000000000000000000000000000000EF
:100110000000000000000000000049000000000096
:100120004952520000004952531C250049525224A2
:1001300025251B52525C2D2D1C12120000000000C0
:100140000000000000000040494949004049495270
:100150005B5B5B4A52525B1C1C13125B1C241C121F
:10016000090909241B12090909090A0A0A0A0A0AC3
:100170000A0A130A0A120A0A12130A0000000000EF
:100180000000009252525252525249131213090067
:100190001C1B130A1212401B65641C090A00092467
:1001A0001B1C65120000251C1C1C1C010025241CA6
:1001B0001C1C1C0024252424241C1C0000000000FE
:1001C00000000049400000000000005249490000C2
:1001D0000000001C5B4A48000000001C255249003A
:1001E00000000065246449000000006525644900A2
:1001F0000000006D2E5C49000000000000000000BF
:10020000004052000000000049525C000000005312
:10021000522425000000535225252500004A52256E
:10022000251B0000005B251300001B005B53000A28
:100230001C3737095B1C657F372E2E522E2E1C1360
:100240001312002E251B13120000121C1C1200009A
:1002500012251C120000122E371C1300132E3736E5
:100260001C131B37372E2E25131C1C2E2E2E2E1B37
:100270001C1C1C6E6E6E1C1C1C1C1C091313121201
:1002800013130013131313131C0009131313131C5C
:100290000100371313131C13002E2E1B1B1C1C00F4
:1002A0001C772E1B1B2500137F251C1C1C010A37E5
:1002B000241C1C1C130A2E25250900132E24252579
:1002C0002525252E2525252525252525252D2E25C4
:1002D0001B1C1C2E2E251C13251B13251C1C1C1C33
:1002E0000109521C1C1300011C5B5C0A00016577AC
:1002F0005C1B00016E7F6E521B00006D1C5249009A
:100300000000001C135300000000001C524A0000B3
:100310000000005B5B0000000000005C00000000CB
:1003200000000000000000000000000000000000CD
:100330000000000000000000000000135B7F776EEB
:100340006E6E6E136577766E6E6E6E1B6577767663
:10035000766E771B5BBF76B676767609136DBFB780
:10036000B6B765001B125C76BF766D0000121B12DB
:100370005B5B5C00000000090A12136E77241C1CF2
:100380001C1C1C77251C1C1C1C24256E1C1C1C24DE
:1003900025251B1C1C242525130000646D6D1B00E6
:1003A000096EBF6D5B09126EBF6D5B5B125B645BB8
:1003B000121312131B1212090100001C242E1C0917
:1003C00000096E2524010009767F7F000012777FE7
:1003D0007F641264BFBF775B121B09BF6D5B121B8A
:1003E00009000012131B09000000000900000000B2
:1003F00000000000000000000000007F7F53131386
:1004000000000064121B01000000001B120000002D
:1004100000000000000000000000000000000000DC
:1004200000000000000000000000000000000000CC
:1004300000000000000000000000000000000000BC
:1004400000000026000000260026262F0000002FB6
:100450000000003700000037000000FF000000FF30
:10046000000000BF000000BF0000BF3700003700E1
:1004700000370000262600000026260000000000AD
:10048000000000262626002626262600002F002F04
:100490000000000037000037000000FF000000FFF0
:1004A000FFFFFF00000000BF000000000000003759
:1004B0000000002626260026262626000000000032
:1004C000000000260026262626000000002F00003F
:1004D000002F0000003700000037000000FFFFFF82
:1004E000FF00000000BF000000BF00000037000058
:1004F0000037002600262626260000000000000007
:100500000000000000262626002600002F00002FF5
:10051000002F003700000037000037FF000000FF09
:10052000000000BF000000BF0000BF370000370020
:1005300000370026262600000026000000000000EC
:10054000000000000026000000000000002F000056
:100550000000000037000000000000FF0000000065
:1005600000000000BF000000000000000037000095
:100570000000000000260000000000000000000055
:10058000000000000000000000000000000000006B
:1005900000000000000000000000E400000000096E
:1005A0009BEDF60000009BA4ADBFBF00529BA4765C
:1005B0007F7FB75B9B6D777F766EB7000000000092
:1005C000000000000000005BB6F6F6005BF6FFFFDF
:1005D000FFFFBFF6FFFFFFFFBFBFAEFFBFFFFFFF85
:1005E000B7AD65BFBFFFFFB7B6AD65B7BFFFFFBF14
:1005F000B7AE6EB7BFFFFFBFB7B765000000000022
:10060000000000F6F6EDEDADA4A49BB66D6D5C5256
:100610006E65646565655265766D255C5C52536EEA
:1006200024656E6552526E252524255B52772D2553
:10063000252524526E6E2D2525252500000000005D
:100640000000009B49000000000000A49B920000F5
:100650000000002564934900000000652E9B5200B5
:100660000000006D256552000000006D2D655200F0
:100670000000006E2E645200000000000000000028
:1006800000495B00000000004A5B65000000005B61
:100690009B6D2D0000005B5B2D2E250000525B2E14
:1006A0002E1C0900015B2D1C01091C005C5B014A2A
:1006B00065777F4A5B1C6E7F7777769B77776D6572
:1006C0006E6EA4776E6565655BA4B725255C525296
:1006D0006DBFBF130949647FBFBFBF095C7F7FBF88
:1006E000BFB7BF7F7F777F7FB7BFBF77777F7F6ED3
:1006F000B7BFBF777F7F6E77BFBFBFB6FFFFFFBFBC
:10070000BFB75BBFFFFFFFBFBFA464BFFFFFFFBF5B
:10071000ADA47FBFFFFFFFBFA4BF7FFFFFFFBFAD43
:10072000BFBFBFFFFFFFB6BFBFBF77FFFFF7BFBFB2
:10073000BF7777FFFFFFBFBFBF64526D7F6E2E2D67
:100740002D256E7F766E6E6E2E2565777777762EE9
:100750001C25247F776E251C251C1B776525251CF1
:10076000090A5B6E6E1C09492564645B494A6E7F09
:10077000645C005377BF775B5C00006E255B4A00CA
:100780000000001C1B5B0000000000245B53000005
:100790000000005B5C00000000000064000000003E
:1007A0000000000000000000000000000000000049
:1007B00000000000000000000000005B5C7FBF77CD
:1007C0007677775C6D7FB7777777775C6D7FBF776C
:1007D0007777BF5C64BFBFBFBFBF7F0A5C6EBFBF20
:1007E000BFBF760065646DBFBFBFBF00005B6D64B7
:1007F0006DADB600000000125B646D777F6E6E77A2
:10080000BFBFBF7F766D7677BFBFBF776D6E767FD8
:10081000BFBFBF6D6E767FBFB7ADF676BFBF76A4A4
:10082000ADFFFFBFB664ADFFFFFFFFB6ADBFFFFF7B
:10083000FFFFF6ADB6AD645B520000FFFFBFBFAD7A
:100840005B64BFFFFFB6ADADBFFFBFFFF6FFFFFFAD
:10085000FFBF64FFFFFFFFBFB6765BFFFFFFBFBFB9
:100860005B0000FFFFFF5C00000000A40000000030
:100870000000000000000000000000BFBF645C5CDE
:100880000000006E5C6549000000006D5B00000028
:100890000000000000000000000000000000000058
:1008A0000000000000000000000000000000000048
:1008B000000000000000000000000005040001022C
:1008C000030405060708090A0B0C0D000E0F101192
:1008D00012050300131415161718191A1B1C1D1ED8
:1008E0001F001E1C000000000000000000000000AF
:1008F00000000000000000000000000000000000F8
:1009000000000000000000000000000000000000E7
:1009100000000000000000000000000000000000D7
:1009200000000000000000000000000000000000C7
:1009300000000000000000000000000000000000B7
:1009400000000000000000000000000000000000A7
:100950000000000000000000000000000000000097
:100960000000000000000000000000000000000087
:100970000000000000000000000000000000000077
:1009800000000000010203040506070809070A0029
:100990000000000000000000000000000000000057
:1009A00000070B0C0D0E0F1011121314150016007A
:1009B0000000000000000000000000000000001720
:1009C00018191A1B1C1D1E1F2021222324000000A1
:1009D000000000000000000000000000072526279E
:1009E00028292A2B2C2D2E2F303132000000000018
:1009F000000000000000000000333435363738397D
:100A00003A3B3C3D3E3F40414200000000000000B8
:100A10000000000000004344454647484949494A10
:100A20004B4C4D4E4F5051000000000000000000A4
:100A3000000000000052535455564949494949495C
:100A40005758595A5B0000000000000000000000E9
:100A50000000005C5D5E5F60494949494949496160
:100A6000626364000000000000000000000000005D
:100A70000065666768494949494949494949696A78
:100A80006B00000000000000000000000000006C8F
:100A90006D6E6F4970714949494949497273000047
:100AA000000000000000000000000000000074755D
:100AB00076777879497A7B7C49497D7E0000000011
:100AC00000000000000000000000000000007F8027
:100AD000818249838485494986870000000000009F
:100AE0000000000000000000000000000088898A6B
:100AF000498B8C8D8E498F000000000000000000A3
:100B00000000000000000000000000000090919232
:100B100093949596970000000000000000000000EC
:100B2000000000000000000000000098999A0000FA
:100B30009B9C8700000000000000000000000000F7
:100B400000000000000000000000000000000000A5
:100B50000000000000000000000000000000000095
:100B6000009D9E9FA0A1A2A3A4A5A6A7A8A9AAABE9
:100B7000AC0000000000000000000000000000AD1C
:100B8000AEAFB0B1B2B3B4B5B6B7B8B9BABBBC00CA
:100B90000000000000000000000000000000000055
:100BA0000000000000000000000000000000000045
:100BB0000000000000000000000000000000000035
:100BC0000000000000000000000000000000000025
:100BD0000000000000000000000000000000000015
:100BE0000000000000000000000000000000000005
:100BF00000000000000000000000000000000000F5
:100C000000000000000000000000000000000000E4
:100C100000000000000000000000000000000000D4
:100C200000000000000000000000000000000000C4
:100C300000000000000000000000000000000000B4
:100C400000000000000000000000000000000000A4
:100C50000000000000000000000000000000000094
:100C60000000000000000000000000000000000084
:100C70000000000000000000000000000000000074
:100C80000000000000000000000000000000000064
:100C90000000000000000000000000000000000054
:100CA0000000000100000000000001010000000041
:100CB0000000000000000000000000000000000034
:100CC0000000000000000000000000000000000024
:100CD0000000000000000000000101010000000011
:100CE00000010101010000000102020200000000F9
:100CF00000000000000000000000000000000000F4
:100D000000000000000000000000000001000000E2
:100D100000000000010100000000000001000100CF
:100D200000000000010100000000000000000000C1
:100D300000000000000000000000000000000000B3
:100D400000000000000000000000000000000000A3
:100D50000000000000000000000000000000000192
:100D60000000000000000100010000000000000081
:100D70000000000000000000000000010000000072
:100D80000000000100000000000001010000000060
:100D9000000001010000000000010101000000004E
:100DA000000101010000000001010202000000003A
:100DB0000000000000010000000100000000010030
:100DC000010000000001000101000100010001011B
:100DD0000101000001010101010100000101020205
:100DE00001010100010202020201000000000000F6
:100DF00000000000000000000000000000000000F3
:100E000000000000000000000000000000000000E2
:100E100000000000000000000000000000000000D2
:100E200000000000000000000000000100000000C1
:100E300000000000000000000000000000000000B2
:100E400000000000000000000000000000000000A2
:100E50000000000000000000000000000101000090
:100E6000000000010101000000000100000000007E
:100E70000000000000000000000000000000000072
:100E80000000000000000000000000000000000062
:100E9000000000000100000000000000000101004F
:100EA0000000000001010000000000000000000040
:100EB0000000000000000000000000000000000032
:100EC0000000000000000000000000000000000022
:100ED0000000000000000000000000000100000011
:100EE00000000000010000000000000000000101FF
:100EF00001000101000001010101010100000102E6
:100F000002020202000101020303020201010202C5
:100F100004030303010102030404040301010203A7
:100F20000405040301010203040504040100000098
:100F30000102030201000001020303030101000199
:100F40000203030301010101030304030101010280
:100F50000304040302010102030404030202020366
:100F60000C04040302020203040C04040201000046
:100F70000000000002010100000000000201000169
:100F80000000010002010100000000010201010156
:100F9000000101010201010100010102020201013F
:100FA000000101020302020101010103000101012C
:100FB00000000000010101010100000001020A011E
:100FC00000000000020A020100000000020B0A01FA
:100FD000000100010B0B0A01000101000B0C0A01CA
:100FE000010001010B0C0A010101010100000000D8
:100FF00001020202000000010102020200000000E2
:1010000002030303000000010203030300000001C8
:1010100003040403000000010304040401000001B0
:101020000304040401000001030405050202030295
:101030000201000102030303010101000303030392
:101040000101010003030402010100010404030281
:10105000010101000404030201010101040403026F
:101060000201010104040302020201010000000068
:10107000000000010000000000000102000000006C
:101080000001010200000000000102020001010154
:101090000102020301000100010203030101010139
:1010A000020303040202020102030404010100001E
:1010B0000000000102010100000101010201010024
:1010C0000000010102010100000101020201010012
:1010D00001010102030201000001020203020101F9
:1010E00001010203040301000102030301010100E5
:1010F00000000000010101010000000002020100E7
:1011000000000000020201000000000002020100D5
:1011100000000000020101000000000002020101C5
:1011200000000000020101010000000100000000B9
:1011300000000102000000010001010200000101A5
:101140000101030300010101010203030101020285
:101150000203040301010203030404040102030364
:101160000404040301020304040504030101000054
:101170000000000002010000000000000201000069
:10118000000000000200000000000000020100005A
:10119000000000000100000000000000020000004C
:1011A000000000000100000000000000000000003E
:1011B000000000000000000000000000000000002F
:1011C000000000000000000000000000000000001F
:1011D000000000000000000000000000000001000E
:1011E00000000000010100000000000000000000FD
:1011F00000000000000000000000000100000000EE
:1012000000000001000000000000010100000000DB
:1012100000010102000000000001020300000000C4
:1012200000010203000000000000020301020204AA
:10123000050404040102020305050403010203047A
:101240000404040401020304050404040202030468
:101250000404040402030304050404040303040453
:1012600004050C04040404040504050D0202020331
:101270000C0405040302030B0D0D0C04030303040B
:101280000C0D0D040303030C0D150D040303030CD7
:1012900015150C0C0403040C15150D0C0C04030C93
:1012A000151D150D0C040C0C151D150C0303020265
:1012B0000101020B030303010101020B040B0302F2
:1012C000010202030C0303020202030B040C0C03D1
:1012D00002020B0B0C0C0C030203030C0C0C0C0B8A
:1012E000030B0B0C0C150C0B030B040C0C140A0158
:1012F0000101020214140A01010A0B0214140A0A61
:10130000020B0B0B14140A0A0B0B0C0C151C0B0B09
:101310000B14140C141C1413141414141D1C1C147E
:101320001C1515141C1D1D1D1C1D1414010001018C
:10133000030405040101000102040D05020101017D
:101340000203050C0202020202030C050B020B034E
:101350000303040D0B0B030C040C040C0C0B040D09
:101360000D0D0D0D0C0C0C0D0D0D0D0D0504030BCD
:10137000030202020C04040B03020203050C0C0C12
:101380000B0B0B030C0D0D0C0C0B030C0D0D0C0CAF
:101390000C0C0C0C0D0D150C0C0C0C0C0D150C156F
:1013A00014140C0C0C0D1515140D14140202020269
:1013B0000303040D0303020203040D040B030303E0
:1013C00004040D0D040C0C040C0D0D0D0C0C0C0480
:1013D0000C0D150D0C0C0C0C0D15150D14150D0C1C
:1013E0001515150D15151415151D150D0403010101
:1013F00001020303040302010102030304030202C6
:1014000002030303050302020203040304040302AC
:10141000030304030C0403030304040C0404030483
:101420000304040C0C04040404040C0C0202010167
:1014300001000100020202010101000103020A038E
:10144000020101010B030B0B030201010B0B0C0C3E
:10145000030202010C0C140C0C0302020C14150CF8
:101460000C0C0302141D15150D0C030302030404D8
:101470000405040302030404050404020203040433
:10148000050504020204040505040302030405051E
:10149000050404020304040505040302030405050E
:1014A000050503020304050505040303010000000C
:1014B0000000000001000000000000000101000029
:1014C0000000000101000000000000010101010115
:1014D00000010101010101010101020102020101FA
:1014E00002020202020202020203030200000000E2
:1014F00000000001000100000001010101000000E6
:1015000000010101010001000101010101010001CF
:1015100001020101010101010201010101010102B8
:1015200002010101010202020201010001000100A9
:1015300000000000010000000000000001010000A8
:10154000000000000100000000000000000000009A
:10155000000000000000000000000000000000008B
:101560000000000001010000000000000000000079
:101570000000020300000000000001030000000062
:101580000000010200000000000101020000000054
:10159000010101020100000000010202010101003D
:1015A0000102030B0101000101030B0C0C040404F4
:1015B00004050C0D0C04040504050D15030D0C05A4
:1015C0000C050C150B0C050C050D0D15030C0C0D65
:1015D000050C0D150B0C0C0D0D0D0D15030C0C0D44
:1015E0000C0D0D150C0C0C140D0D0D150D0C040C23
:1015F0001D1D1D0D15150C0C15261D151D1D150C7D
:1016000015251D1D251D1D151525261D25262515F0
:1016100015252625252E25251D1D2E25252E2E2674
:101620001D252E2E252E2D2625252E2E15150C0C8E
:101630000B0C0C0C1D1D140C0C0C0C0C1D1D150C96
:1016400014140C0C262515141515140C26251D151F
:101650001D1D150C2E261D1D2525150C2E25251DA1
:1016600026251D152E2E26252D2E1D151D25251D45
:101670001D1D1D151D2525251D1D1C1D152525257B
:10168000251D1D1C1D252E251D25251D1D252D2532
:101690002525251D1D262E252D25251D1D2E2D2EEE
:1016A0002E2E251D1D2D2E2E2E2D2525140C0D0D17
:1016B0000D0D1515140C0D0D15151515150C140D16
:1016C0001515151D1415151515151D1D1514151DAC
:1016D0001D151D1D151D1D1D1D151D1D1D1D1D254A
:1016E0001D1D1D251D252525251D1D1D1515151423
:1016F0001514151515151515141514151D1D151D85
:101700001D1D1D1D1D1D1D1D1D1D1D1D1D1D1D2501
:101710002525251D251D25252D2525251D25252D81
:101720002E2E25252525252E362D2E25151515156C
:101730001D1D150D1C1D151D1D1D150D1D1D151D1A
:10174000251D150D1D1D1D1D1D251515251D1D1DD9
:10175000251D1D151D1D1D2525251D1D251D1D2591
:1017600025251D1D251D1D252E251D1D04040C0CC4
:10177000040C04150C0D040D04050C150C0D0D0DB9
:101780000D0C0D1C151515150C0D0C1D151D1D151D
:101790000D0D151D1D1D1D1D150C15251D1D2525AA
:1017A0001D151D251D252526251D1D1D151D141561
:1017B000150D04031D1D1D15150C04031D1D1D1500
:1017C000150D0C031D1D1D150D0D0504251D1D15E5
:1017D0000D0D04041D1D1D150D0D0504251D1D15E4
:1017E0000D0D0504251D1D150D0D0C050305050525
:1017F00004040403040505050504030304040505A6
:101800000504040304050505040404040405050493
:10181000040404040505050D050C040404050C0D61
:101820000D0D050D050D15150D0D04040202020325
:101830000304030203030304040403020403040473
:1018400004040303040404050D04030304040D0D40
:101850000D040403040D0D0D0D040303040D0D0D03
:101860000D0504030D0D0D150D0404040202020202
:101870000202010202030302020202020203030344
:101880000203020103030303030202010303030330
:10189000030201000404040403010100040404031E
:1018A000020101000404040302010001010100001F
:1018B0000000000001000000000000000100000026
:1018C0000000000000000000000000000000000018
:1018D0000000000001000000000000000000000007
:1018E00000000000000000000000000000000000F8
:1018F00000000000000000000000000000000000E8
:1019000000000000000000000000000000000000D7
:1019100000000101000000000000010000000000C4
:1019200000010101000000000101010200000100AE
:10193000000001010000010100000101000001019F
:101940000100010200010101010101020101010187
:10195000010102030101020201010202010102026E
:101960000201020302020203020202030201010158
:1019700001020C0C0202010101020B0D0202020124
:101980000102030C030202020202020C0303020220
:101990000202030B03030202020303030303020216
:1019A0000203030C030303030203040C1415150DB7
:1019B000150D1515150C1515150D0D1515151415F9
:1019C0001515151D0C1515151515151D0C15151DC1
:1019D0001515151D0C1415151D151D1D0C0C1515B3
:1019E0001D151D250C0D151D151D1D26252E2E2E14
:1019F00025262E2D1D2E2E2E2E2D2E2E262D362E2C
:101A0000362E2E2E1D2E2E3636362E36262D2E36E0
:101A100036363676262E2E36363676FF262D2E365E
:101A2000367EFFFF2E2E2E3636BFFFFF362E252E9A
:101A30002E2E1D15362E2E6E76B7B666363676FFEE
:101A4000FFFFFFFF76FFFFFFFFFFFFFFFFFFFFFF2F
:101A5000FFFFFFFFFFFFFFFFFFFFFFFFFFFFFFFF96
:101A6000FFFFFFFFFFFFFFFFFFFFFFFF252E2E36CB
:101A7000362E2D256E2E3636362E2E2DB776363650
:101A800036362E2EFFFFFF7636363636FFFFFFFF47
:101A9000BF363636FFFFFFFFFFFF3636FFFFFFFF83
:101AA000FFFFFFFFFFFFFFFFFFFFFFFF25252E2E9C
:101AB000252625252E2E2D2E2E2D262536362E3664
:101AC0002E2E2D2E3636363636362E2E36363636E7
:101AD0003636362E3E36767F767E7676FFFFFFFFF1
:101AE000FFFFFFFFFFFFFFFFFFFFFFFF2525252D66
:101AF0002E362E252525252E36362E2D2E252E2D1D
:101B00003636362E2D2E2D2E3636362E2E2D2E2EC8
:101B10003636362E76362E363636362EFFFFBE3623
:101B2000363E3636FFFFFFFF7F3636362525252524
:101B30002E25251D251D252D2E2E25252525252E39
:101B40002D2E2525252525362E2E252E2D252E2EEE
:101B5000362D2E2E2E2D2E362E2E2D362E2E2E3688
:101B600036363636363636363636363625262D2E47
:101B70002D1D1D25252E2D2E2E2525252E2E2E36CE
:101B800036252525363636362E2E2525363636365A
:101B9000362D252636363636362E2D2D363E363621
:101BA000362E2E253E36363E36362D2E251D1D155B
:101BB000150D0D05251D1D1D1515150D25251D1DA5
:101BC00015151515251D1D1D1D1D1D152525261D4C
:101BD0001D251D1D252526251E252625262D2E25C0
:101BE000252625262D2E2E26262D2E2D0D0D1D1DAE
:101BF000150D0D0D0D151D1D150D0D05151D251DA5
:101C000015150D0D1D1D251D15150D0D1D25251D4C
:101C10001D150D151D25261D151515152525252503
:101C20001D151515252E25261D1D151D0D0D15150A
:101C30000D0504040D15150D0D0C04040D151515D9
:101C40000D050504151515150D0D0504151D150DAE
:101C50000C050405151D15150D0D05041D15150D97
:101C60000D0C0D051D1D15150D0D0D0404040403AB
:101C7000020101000404040302010100040404033E
:101C8000020101010504040302010101040504032A
:101C90000102010105040403020202010504040318
:101CA0000202020105040403030202020100000013
:101CB0000000000001000000000000000100000022
:101CC0000000000001000000000000000100000012
:101CD0000000000001000000000000000100000002
:101CE00000000000020000000000000000000000F2
:101CF00000000000000000000000000000000000E4
:101D000000000000000000000000000000000000D3
:101D100000000101000000000000000100000000C0
:101D200000000000000000000000000000000000B3
:101D30000101020200000000010203020000000194
:101D4000020303030001010202030404020202036E
:101D50000404040C02030304040D05040102030C33
:101D600005040D0C00010204040D0D0D0202030315
:101D70000202030302020303030303030303030337
:101D8000030303040303030303030B030303030419
:101D9000040304040C03040B04040C5D04040C048D
:101DA000030C9DFF0C0C0C040CAEFFFF030303029D
:101DB00003030B0C0B0403030354550C03040B0C1B
:101DC000A55D0B0C040C5DAE5D0B040C14AEF7545A
:101DD00003030C0CF7FF550C03030C0CFF55040414
:101DE0000C030C0C5D040C0404040C140C0C1515F1
:101DF0001D1D1E250C0D1415151D1D1D0D0C151575
:101E000015151D150C141515151D1D150D1515147D
:101E10001515151D14151515151D1D1D151D1D1D3B
:101E20001D15151D151D1D251D1D1D1D252E2E36AF
:101E30007EFFFFFF252E2E36FFFFFFFF1D252E768E
:101E4000FFFFFFFF1D1D2DB7FFFFFFFF1D2626BF54
:101E5000FFFFFFFF1D2525FFFFFFFFFF252E2EBFE4
:101E6000FFFFFFFF1D2E2EB6FFFFFFFFFFFFFFFF4F
:101E7000FFFFFFFFFFFFFFFFFFFFFFFFFFFFFFFF72
:101E8000FFFFFFFFFFFFFFFFFFFFFFFFFFFFFFFF62
:101E9000FFFFFFFFFFFFFFFFFFFFFFFFFFFFFFFF52
:101EA000FFFFFFFFFFFFFFFFFFFFFFFFFFFFFFFF42
:101EB000FFBF7636FFFFFFFFFFFFFFBFFFFFFFFF04
:101EC000FFFFFFFFFFFFFFFFFFFFFFFFFFFFFFFF22
:101ED000FFFFFFFFFFFFFFFFFFFFFFFFFFFFFFFF12
:101EE000FFFFFFFFFFFFFFFFFFFFFFFF3636363626
:101EF00036363E367636363E363E373EFFBF773E86
:101F0000373E3636FFFFFFFFFFBF7F7FFFFFFFFF3C
:101F1000FFFFFFFFFFFFFFFFFFFFFFFFFFFFFFFFD1
:101F2000FFFFFFFFFFFFFFFFFFFFFFFF3F363E36D4
:101F300036362E2D3636363E36362E2E3E363F3649
:101F400036363636373E36363E36362EFFFFBF7FC4
:101F500076363636FFFFFFFFFFFFBF36FFFFFFFF7E
:101F6000FFFFFFFFFFFFFFFFFFFFFFFF2E2E2D2DC7
:101F70002E2E2D2E2D362E2E2E2E2E2D2E36362E6C
:101F8000362D2E2E36362E36362E2E363636363622
:101F90002E36362E36363636362E3636BF7E363628
:101FA00036363636FFFFBF7E363636362E2D2625A0
:101FB00025251D1D2E2E2D2E2625251D2D2E2E2EA2
:101FC0002E2E2625362E36362D2E2525363636361D
:101FD000362E2D2536363636362E252536363636ED
:101FE000362E2E2536363636362E25251D15151558
:101FF0000D150D051D1D151515150D0D1D1D151D99
:1020000015140D051D1D1D1D1D150D051D1D1D1D69
:102010001D0D0D051D1D251D1D150D041D25252539
:10202000150D0D0D2526251D15150D0D0504040393
:10203000030202020405040403030302050404046A
:102040000303030304050404040403020504040455
:102050000403030205050504040303030D0504043A
:10206000040C030B0505040404040404010000002F
:10207000000000000100000000000000010100005D
:102080000000000001000101000000000102010148
:102090000000000002020101000000000302010034
:1020A0000000000003020100000000000001010325
:1020B000040D0D0C00000102040D0D0D00000102C5
:1020C000030D1515000000020B0D15150000010190
:1020D0000B0D151D000101010B151D1D0009090A3D
:1020E0000B141D6600090A0A0C1D1DB60C0D0C0D03
:1020F000AEFFFFA60D0C15B6FFFFAE0C1515AEFF1B
:10210000FFF70D04156EFFFFFF5D0C0C65FFFFFF71
:10211000AE0D0C05B6FFFFFF150C0D0CFFFFFFAE5B
:102120000D0D0C0DFFFFFF1D150C0D0C0C0C040C00
:1021300004030C0C040C0C0C0C04030C0D0C0C0C08
:102140000C0C0C0C0C0C0C0C140C040C0C0D0C14C6
:102150001D150C0C0D0C0C0D1D1D140C0C0D0C0C78
:102160001D251D140D0D0D0C1D2625141D1D2526C8
:10217000251D25261D1D2D2E2E262E251525262E08
:102180002E76B62E1D252D3636BF362E14262E2E33
:10219000BEB7362E1D252E76FF3636361D2D2EFF68
:1021A000BF3636361D2676FF76363636252E36363F
:1021B000BFFFFFFF262E3636FFFFFFFF2D2E3676A0
:1021C000FFFFFFFF2E2E367FFFFFFFFF2D2E36BFB6
:1021D000FFFFFFFF2E2E76FFFFFFFFFF362E76FF5D
:1021E000FFFFFFFF3636FFFFFFFFFFFFFFFFFFFF91
:1021F000BF763636FFFFFFFFFFFFBF36FFFFFFFF53
:10220000FFFFFFFFFFFFFFFFFFFFFFFFFFFFFFFFDE
:10221000FFFFFFFFFFFFFFFFFFFFFFFFFFFFFFFFCE
:10222000FFFFFFFFFFFFFFFFFFFFFFFF363E3636DA
:10223000362E2D2536363E36362E25253F36363679
:10224000362E2E26FF7F3E3636362E2DFFFF763673
:1022500036362E2DFFFFFF7F3636362EFFFFFFFF6F
:102260007E36362EFFFFFFFFFF763636252D251DE5
:102270001515150D262E251D1D1515152D2D1D1D8C
:102280001D1D150D2E26251D1D1D150D2E25252563
:1022900025150D0D2D25252625150D0D2E2D2E2D43
:1022A0001D150D0D2D2E2E251D0D0D150C04040CC8
:1022B0000C040C0B050504050D0C04030D0D0D0D90
:1022C0000D0C0C030D050D0D0C0C03020D0C0D1463
:1022D0000C0303010D1515150C0302010D15150C4A
:1022E00003020100151D150B02020101030100008C
:1022F00000000000020100000000000001000000DA
:1023000000000000000000000000000000000000CD
:1023100000000000000000010100000001010201B6
:1023200001010000010202020201010000090A137A
:10233000141D65FF00010A13141D6EFF00080A1327
:102340001C1DB6FF00000A131C1CFFFF0000091330
:10235000141DFFFF0000090A1C65FFFF00000112A9
:102360001365FFFF0000090A1425FFFFFFFFB61DDC
:10237000150D0C0DFFFF6E1D1D150D0CFFFF252506
:102380001D15150DFFFF25251D150D0CFFB6252567
:10239000251D1515FFB6252E251D150CFFB62E255E
:1023A0002D1D1515FFB62E2D2E1D15140D0C140DFB
:1023B0001425251D150D0D141525261D0C15140DA0
:1023C00015252D1D15150D151425261D0D140D147F
:1023D000151D2D2515151515151D2E260D14151554
:1023E000151D252D151515151D1D252E1D2EFFFF3F
:1023F00036363E361D6EFFB62E36363E2576FF76D5
:102400002E36363625F7FF6E2E36363625B7FF3692
:102410003636363E6EFFFF763636363676FFFF3678
:102420003636367E36FFFF7E3636367736BFFFFFCE
:10243000FFFFFFFF36BFFFFFFFFFFFFF7EFFFFFF36
:10244000FFFFFFFFBFFFFFFFFFFFFFFFBFFFFFFF1C
:10245000FFFFFFFFFFFFFFFFFFFFFFFFFFFFFFFF8C
:10246000FFFFFFFFFFFFFFFFFFFFFFFFFFFFFFFF7C
:10247000FFFF762EFFFFFFFFFFFFFF76FFFFFFFF4F
:10248000FFFFFFFFFFFFFFFFFFFFFFFFFFFFFFFF5C
:10249000FFFFFFFFFFFFFFFFFFFFFFFFFFFFFFFF4C
:1024A000FFFFFFFFFFFFFFFFFFFFFFFF2E2E2D1D92
:1024B00015151515362E251D15151D1D362E1D1D20
:1024C0001D1D2525B7251D1D25252D25FF76252E0E
:1024D0002E2E2E2DFFFF6E2D36362D26FFFFBF36FA
:1024E000362E2D1DFFFFFF76363625151D1D1403D4
:1024F0000201010225150C0B020202021D1D0C0B2C
:102500000203030325150C0C04030B031D150C0417
:1025100003030404150D0C04040C04030D0C040C3B
:10252000040404030D0C0404040D0402020302025B
:10253000010000000303010000000000030201008D
:102540000000000003010000000000000301000083
:102550000000000001000000000000000100000079
:102560000000000001000000000000000000000A60
:10257000131CFFFF00000109131CF7FF00000109F5
:10258000121BB6FF000000090A13ADFF0000010195
:1025900009125CFF00000801090A13FF0001000096
:1025A000010912AE000000000009095CFFB72D2EE2
:1025B0002D1D1515FFFF36362E1D1D15FFFF763616
:1025C00026251D1DFFFFB62E2D252625FFFFBF3614
:1025D0002E2E2E2EFFFFFF762E2E362EFFFFFFFF14
:1025E00036363636FFFFFFFF7E36363615151515A3
:1025F0001D1D1D2E1515151D1D1D25261D1D151D09
:102600002525252D1D151D1D2525262E251D1D1DA8
:10261000262E252E261D1D25252E2E2E2E261D2549
:102620002E2E362E362525262D362E3676FFFF36D3
:10263000363E367F36FFFF7F36363EBF36FFFFBF62
:102640003E3636FF36BFFFBF36373EBF36B7FFFFD9
:10265000763E76FF367EFFFFBF367FFF3676FFFF82
:10266000FF367EFF3636BFFFFF7F7FFFFFFFFF7F16
:10267000362E1D15FFFFFFFF362D1D0DFFFFFFFF3F
:10268000762E1D15FFFFFFFFBF2E2515FFFFFFFF55
:10269000BF2E251DFFFFFFFFFF362625FFFFFFFF93
:1026A000FF762E2EFFFFFFFFFF7E362E0C050D0D51
:1026B0000D0403020D0D0D0D050D03020D0D0D0D85
:1026C0000D0404031515150D0D040C031D15150D32
:1026D0000D0C04031D1D150D0C0403032615150D0B
:1026E000040C03021D1D150D0C0302010101010064
:1026F00000000000010101010000000003020101CF
:1027000000000000030202000000000003020100BC
:1027100000000000020201000000000002010100B0
:1027200000000000010100000000000000000000A7
:102730000001091200000000000009120000000062
:102740000000010A0000000000000809000000006D
:102750000000000100000000000000000000000078
:10276000000000000000000000000000B7FFFFFFB5
:10277000FF76363E6DFFFFFFFFBF36361CF7FFFFCB
:10278000FFFF773E136DFFFFFFFFFF7F1213B6FFC2
:10279000FFFFFFFF09131CFFFFFFFFFF090A1B6577
:1027A000FFFFFFFF0009121C65FFFFFF362E2625E5
:1027B0002E36363636362E252E3636363636362EEA
:1027C0002E3636363E36362E36363636773E363668
:1027D0003636363EFFBF363636363636FFFFFF7F9B
:1027E00036363636FFFFFFFFBF7F3E363636BFFF39
:1027F000FFFFB6FF36367EFFFFFFFFFF363636BFE0
:10280000FFFFFFFF3E36367EFFFFFFFF36363E37C7
:10281000BFFFFFFF3F36363E36BFFFFF363E363640
:102820003E36BFFF3E36373E363E367EFFFFFFFF69
:10283000FFFFFFFFFFFFFFFFFFFFFFFFFFFFFFFFA8
:10284000FFFFFFFFFFFFFFFFFFFFFFFFFFFFFFFF98
:10285000FFFFFFFFFFFFFFBFFFFFFFFFFFFFFF3691
:10286000BFFFB625FFB62E2D2E762524FFFFFFFFD6
:10287000FFFFFFFFFFFFFFFFFFFFFFFFFFFFFFFF68
:10288000FFFFFFFFFFFFFFFFFFFFFFFFFFFFFFFF58
:10289000FFFFFFFFB67676BFFFFFFFFF2D2D2E3621
:1028A00076FFFFFF1C252D2E36BFFFFFFFFFFFFF2A
:1028B000FFBF3636FFFFFFFFFFFF3636FFFFFFFF8C
:1028C000FFFF7E36FFFFFFFFFFFFBF36FFFFFFFF6B
:1028D000FFFFFF36FFFFFFFFFFFFFFBFFFFFFFFF11
:1028E000BFBFFFFFFFFFFFFF77BEFFFF251D150CDA
:1028F0000C030201251D150C040B0201261D150CED
:102900000B0301002D1D150B020101012E25140CD6
:102910000A0101002D251D0B0A0A010176251C1450
:102920000B0A0901FFB61D140B0A0A010001091365
:102930001C6DFFFF00000909131C25B700000009EA
:1029400009131B240000000001090A130000000005
:102950000000090900000000000000000000000065
:10296000000000000000000000000000FFFFFFFF6B
:10297000FFFFFFBFFFFFFFFFFFFFFFFF6EFFFFFF38
:10298000FFFFFFFF1C24AEFFFFFFFFFF0A131C2504
:102990006EB6BFFF090912131C2524250000090A81
:1029A000120A12120000000001000009BF7F7E77AA
:1029B0007677BFBFFFFFFFFFFFFFFFFFFFFFFFFFB8
:1029C000FFFFFFFFFFFFFFFFFFFFFFFFFFFFFFFF17
:1029D000FFB7B66E252565252525251D131C1C1C56
:1029E0001C1C1B1C090A0A120A120A12FFFFFFFF15
:1029F000FFFFFFFFFFFFFFFFFFFFFFFFFFFFFFFFE7
:102A0000FFFFFFFFFFFFFFFFFFFFFFFF2DF7FFFFB0
:102A1000FFFFFFFF256EFFFFFFFFFFFF1C25FFFFEE
:102A2000FFFFFFFF131CAEFFFFFFFFFF6D252524F7
:102A300025241C136D1C1B131B131212651C130A77
:102A4000090901096E1C120900000000B61C1309D7
:102A500000000000B61D1B0A01000000B6251C0A7C
:102A600009000000F7251C12090000001B1B1C2D8B
:102A70002D76FFFF0A131B1D2D6EFFFF0909121C87
:102A8000252DFFFF01090A132525B7FF00010913B2
:102A90001C25BFFF000009121C25B6FF0000011213
:102AA0001B25B7FF0000090A1325B6FFFFFFFFFF34
:102AB000FFFFFFFFFFFFFFFFFFFFFFFFFFFFFFFF26
:102AC000FFFFFFFFFFFFFFFFFFFFFFFFFFFFFFFF16
:102AD000FFFFFFFFFFFFFFFFFFFFFFFFFFFFFFFF06
:102AE000FFFFFFFFFFFFFFFFB676BFFFFFFFFFFF08
:102AF000FFFFFFFFFFFFFFFFFFFFFFFFFFFFFFFFE6
:102B0000FFFFFFFFFFFFFFFFFFFFFFFFFFFFFFFFD5
:102B1000FFFFFFFFFFFFFFFFFFFFFFFFFFFFFFFFC5
:102B2000FFFFFFBFFFFFFFB7B66E6525FFFFFFFF8B
:102B3000FFFFFFFFFFFFFFFFFFFFFFFFFFFFFFFFA5
:102B4000FFFFFFFFFFFFFFFFFFFFFFFFFFFFFFFF95
:102B5000FFFFFFFFFFFFFFFFFFFFFFFFB66E6E2DC2
:102B60002E76FFFF1D2525252525BFFFFFFFFFFF33
:102B70007E36FFFFFFFFFFFF3636FFFFFFFFFFFF41
:102B80002E2E76FFFFFFFFB72D252EFFFFFFFF76CE
:102B9000252525B6FFFFFF6E251C2565FFFFFF2DB0
:102BA0001C1C1B1CFFFFBF251C13120AFFFFAE1CC1
:102BB000130B0A01FFFFFFAE14130A09FFFFFFB654
:102BC00014130A01FFB6FFB61C130A01B725251D11
:102BD00014120900B6251D1C130A09011C1C1C1324
:102BE0000A0900001313120A09010000010809096B
:102BF00009010909000000000000000000000000B9
:102C000000000000000000000000000000000000C4
:102C100000000000000000000000000000000000B4
:102C20000000000000000000000000000A1B25FF5B
:102C3000FFFFFFFF090A1BAEFFFFFFFF0009131C88
:102C4000FFFFFFFF00010A1B6EFFFFFF00080913D3
:102C50001CF7FFFF000009131C6DFFFF00000912A5
:102C60001C25FFFF0000090A1C1DB6FFFF251C13D1
:102C700009000000FF6D1C1309000000FF6E1C130B
:102C800009010000FFB61D1B0A000000FFFF25130D
:102C90000A080000FFFF651B0A010000FFFFB61CC9
:102CA00012090000FFFFF71C1209000000000109D3
:102CB0001B1CB7FF0000080A1324FFFF00000109D6
:102CC0001325FFFF0000080A1365FFFF0000090A33
:102CD0001B65FFFF000109121C6EFFFF00000913B6
:102CE0001CB6FFFF00090A131CFFFFFFFFFFFFFFD9
:102CF0002E252565FFFFFFB7241C1B13FFFFFFB622
:102D00001C131212FFFFFF65130A0909FFFFFF1CC6
:102D100012090100FFFFFF1B0A090000FFFFB61B9D
:102D20000A090000FFFFAE1C0A0900002565251CEA
:102D30001C1C1C1C1313131313131313090A090966
:102D40000A090A0901090009010801080000000038
:102D50000000000000000000000000000000000073
:102D60000000000000000000000000001C1C1C1DF2
:102D70002525B6FF13131B1C1C256EFF090A121B09
:102D80001C2525FF010909131C1D25FF0000090A48
:102D9000132425B600000109131C256E000000094C
:102DA000121C1D6D000000090A1B1C25FFFFB62523
:102DB0001B090909FFFF761C12090100FFFF2D1CEA
:102DC0000A090000FF76251309000000FF6E1C129F
:102DD00009000000BF251B0A09000000B6251B09D9
:102DE00000000000761C1309010000000909010021
:102DF00000000000000000000000000000000000D3
:102E000000000000000000000000000000000000C2
:102E100000000000000000000000000000000000B2
:102E20000000000000000000000000000000010A97
:102E30001B1C6EFF00000009131C6EFF0000000940
:102E4000131C6DFF000000090A1B1DFF000000009D
:102E500009121C65000000000109121300000000A7
:102E60000001090A0000000000000009FFFFFF65E3
:102E700013090000FFFFFF6E13090100FFFFFFB6FB
:102E800013090000FFFFFFB613090100FFFFFFB6A3
:102E9000120900001C6DAE5B0900000012120A0945
:102EA0000100000009090901000000000001121BD7
:102EB00025FFFFFF00080A1365FFFFFF00010A1C42
:102EC0006DFFFFFF00080A1B6EFFFFFF00011213DA
:102ED000B6FFFFFF00090A1CB6FFFFFF0001121B2F
:102EE000F7FFFFFF00091324FFFFFFFFFFFFB61CE2
:102EF00012090000FFFFF71C13090100FFFFFF2468
:102F0000130A0900FFFFFF651C120900FFFFFF6E97
:102F10001C130901FFFFFFB61C131209FFFFFFFF7F
:102F2000251C1209FFFFFFFF651C130A00000000AB
:102F30000000000000000000000000000000000091
:102F40000000000000000000000000000000000081
:102F50000000000000000000000000000000000071
:102F6000000000000900000000000000000000094F
:102F70000A131D25000000090A1B1C6D0000000932
:102F8000121C1CB700000109121CAEFF0000090A48
:102F90001365FFFF000009121CB6FFFF00000912B5
:102FA0001CFFFFFF000109131CFFFFFFF7FFFFFFDE
:102FB000FFFFFFFFFFFFFFFFFFFFFFFFFFFFFFFF21
:102FC000FFFFFFFFFFFFFFFFFFFFFFFFFFFFFFFF11
:102FD000FFFFFFFFFFFFFFFFFFFFFFFFFFFFFFFF01
:102FE000FFFFFFFFFFFFFFFFFFFFFFFF6E24120940
:102FF000000000006E1C1309000000006E1C130985
:1030000001000000B624130A08000000B71C1B0AC8
:1030100009000000FF251C1209000000FF6D1C13B1
:1030200009010000FFB61C130A090000000912651F
:10303000FFFFFFFF00091325B6BFFFFF00091324A0
:10304000256EFFFF00091B1C25B6FFFF0009131C9E
:1030500025FFFFFF0009131B6EFFFFFF000912137E
:103060006DFFFFFF00090A131B656465FFFFFFFF8B
:10307000FFFFFFFFFFFFFFFFFFFFFFFFFFFFFFFF60
:10308000FFFFFFFFFFFFFFFFFFFFFFFFFFFFFFFF50
:10309000FFFFFFFFFFFFFFFFFFFFFFFFFFFFFFFF40
:1030A000FFFFFFFF656D6D6D6D656DAEFFFFFFFF8F
:1030B0006E1C1B0AFFFFFFFFB6251C12FFFFFFFF60
:1030C000F7251C13FFFFFFFFFF6D1C13FFFFFFFF22
:1030D000FF6E1C12FFFFFFFFFF6D130AFFFFFFFFD4
:1030E000FF1C13096E6EAE651C1309090900000070
:1030F00000000000090100000000000009000000BD
:1031000000000000090900000000000009000000A4
:1031100000000000090000000000000001000000A5
:103120000000000000000000000000000000091284
:103130001C65B7FF0000090A1B1C252500000109BA
:10314000131C1C25000000090A121B1C00000000B3
:1031500009090A13000000000001090A000000002C
:10316000000000010000000000000000FFFFFFFF62
:10317000FFFFFFFFB6FFFFFFFFFFFFFFB6FFFFFFF1
:10318000FFFFFFFFB7FFFFFFFFFFFFFF64F6FFFF3B
:10319000FFFFFFFF12135C65AD6E6D6E09090A1229
:1031A00013131B1C00000909090A0A12FFFFFFFF85
:1031B000FFFFFFFFFFFFFFFFFFFFFFFFFFFFFFFF1F
:1031C000FFFFFFFFFFFFFFFFFFFFFFFFFFFFFFFF0F
:1031D000FFFFFFFF6E7676B6B7B6B7B61C2525257E
:1031E0002D25252413131B1C1B1B1B13FFFF251B45
:1031F0000A090000FFFFAE1C12010000FFFFB61C11
:1032000012090000FFFFFF5C0A090000FFFF6E1BB0
:103210000A0900006E251B13090000001C13130986
:103220000901000013120909000000000001091241
:103230001313131300000109090912120000000002
:10324000000001000000000000000000000000007D
:10325000000000000000000000000000000000006E
:103260000000000000000000000000001313131312
:1032700013131C130A120A0A120A1212090108096E
:103280000009010100000000000000000000000033
:10329000000000000000000000000000000000002E
:1032A0000000000000000000000000001B1B1313C2
:1032B000120909000A0A120909010000090900019E
:1032C00000000000000000000000000000000000FE
:1032D00000000000000000000000000000000000EE
:1032E00000000000000000000000000000000000DE
:1032F00001080909000000000000000000000000B3
:1033000000000000000000000000000000000000BD
:1033100000000000000000000000000000000000AD
:1033200000000000000000000000000009090A0A77
:103330000A0A0A0901080108090801090000000039
:10334000000000000000000000000000000000007D
:10335000000000000000000000000000000000006D
:10336000000000000000000000000000000000005D
:103370000000000000A4FFFFFFF609490064FF49B8
:1033800000F6B60000A4FF5B00FFF60900A4FFAD45
:10339000FFFF5B000064FFFFFFFF5B0900A4FF4924
:1033A0005BFFF6090064FF5200A4FF5B0000000011
:1033B00000000000FFAD000000000000FFAD0000B5
:1033C00000000000FFAD000000000000FFAD49FF5D
:1033D000FFFF5B00FFAD000900A4FF00FFAD49AD9A
:1033E000FFFFFF00FFADA4FF00A4FF0900000000E5
:1033F000000000000000000000ADFF000000000021
:1034000000ADF6090000000000000000FFFFFFFF14
:1034100052ADFF090000FFFF09ADFF0000ADFF5BEB
:1034200000ADFF0052FFB60000ADFF00000000003D
:10343000000000000000000000000000000000008C
:10344000000000000000000000000000F6B6F6FFDB
:10345000AD0009F6ADFF64ADFF5BADB6ADED0000AC
:10346000FFADADF6ADB60009FFAD49FF00000000AD
:10347000000000000000000000000000000000004C
:10348000000000000000000000000000FFFFFF5BE4
:103490000000000000ADF6000000000000ADF600E6
:1034A00000000000FFF6090000000000000000001E
:1034B000000000000000A464000000000009ADFF4F
:1034C000490000520000A4FFB60000B60000A4FFAF
:1034D000FFA4A4FF000064FFB6FFFFAD0000A4FF3F
:1034E00052B6B6520000A4FF520949520000000033
:1034F00000000000A464000000000000FFF60900C6
:1035000000000000FF5B000000000000FF5B00FF08
:10351000FFFFAD00FF9B0052005BFF52FF5B00AD61
:10352000FFFFFF52FF9B5BFF5252FF520000000063
:10353000000000000000000000000000000000008B
:10354000000000000000000000000000B6F6FFFFD1
:10355000ADFFFF5BB6FF00ADFF00A4FFF6AD00A41A
:10356000FF5252FFADB60064FF495BFF0000000050
:10357000000000000000000000000000000000004B
:1035800000000000000000000000000000B6F6FF90
:10359000FFADFFFF49B6FF00ADFF00A45BF6AD0035
:1035A000A4FF52525BADB60064FF095B000000004F
:1035B000000000000000000000000000000000000B
:1035C0000000000000000000000000005B0049B6A1
:1035D000FFFF5252FF49B6F600ADFF00FF5BFF5BF5
:1035E0000052FF5BFF5BFF5B0052FF5B00000000CF
:1035F0000000000000000000FFAD000049AD090020
:10360000F6AD0000A4FF0000FFAD0000FFFFFF5279
:10361000FFB6FFFFADFF0900F6F6A4ADADFF000950
:10362000FFAD005BA4FF0900FFAD005200000000E9
:10363000000000000000000000000000000000008A
:103640000000000000000000000000005B0000001F
:1036500000000049FF49000000000009FF5B000076
:1036600000000000FF5B0000000000000000000000
:1036700000000000005BFFFFFFAD0000A4FF5B0047
:1036800000520000FFF6000000000000FFAD000047
:1036900000000049FFF600A4FFFF5B09B6FF52528D
:1036A000A4FF5B4952FFF60912FF5BA40000000073
:1036B000000000000000000000000000000000000A
:1036C000000000000000000000000000FFFFFF5BA2
:1036D00009FFFFFF0900A4FF00FFAD00ADFFFFFFE2
:1036E00000FFA400FF00A4FF09FF64000000000029
:1036F00000000000000000000000000000000000CA
:10370000000000000000000000000000F6ADFFF621
:10371000090052F6F6B600B6F600FFADB6F600A404
:10372000FF5BFFFFADFF00A4FF5BFFA400000000F4
:103730000000000000000000000000000000000089
:10374000000000000000000000000000FFB649007B
:10375000ADFFFF5200F6A45BFF5B5B49FFFFB65273
:10376000FFFFAD000000000052F6FFAD00A4FF090E
:1037700000ADFF5200A4FFFFFFF65B090000000050
:103780000000000000000000000000000000000039
:103790000000000000000000000000000000000029
:1037A000000000000000000000000000FFA4ADFFCA
:1037B000A4FFFF00FFAD49FFFFADFF520000000076
:1037C00000000000000000000000000000000000F9
:1037D00000000000000000000000000000000000E9
:1037E000000000000000000000000000F6FF49009B
:1037F00000ADFF09FFFFFFFF5BADFF4900000000C8
:1038000000000000000000000000000000000000B8
:1038100000000000000000000000000000000000A8
:10382000000000000000000000000000ADED0052AC
:10383000FF5B00FFADFF00ADFF49A4FF00005BFF91
:10384000A400000900009BB60000005B000000001F
:10385000000000A4000000000000000000000000C4
:10386000000000000000000000000000ADA45B00AC
:1038700000000000FFFFFF5B000000000052FF9B04
:1038800000000000A4F6FF0900000000FF64000033
:103890000000000000000000000000000000000028
:1038A000000000000000000000000000000064FFB5
:1038B000520000520000A4FF5B00005B000000000B
:1038C00000000000000000000000000000000000F8
:1038D00000000000000000000000000000000000E8
:1038E000000000000000000000000000FF5B5BFF24
:1038F000ADF6FF52FFA409ADFFADFF5B0000000075
:1039000000000000000000000000000000000000B7
:1039100000000000000000000000000000000000A7
:10392000000000000000000000000000F6B600A447
:10393000FF00A4FF5B9B005BA409FFB60000000032
:1039400000ADFF520000000009A4A4000000000028
:103950000000000000000000000000000000000067
:1039600000000000000000000000000052F6AD0062
:10397000A4FF00A4005B9B005BA449FF00000000C3
:103980000000ADFF000000000009A4A4000000003A
:103990000000000000000000000000000000000027
:1039A000000000000000000000000000FF52F6B61A
:1039B00000A4FF00B60049B6FFF652005200000016
:1039C00000000000000000000000000000000000F7
:1039D00000000000000000000000000000000000E7
:1039E0000000000000000000000000009BFFA45247
:1039F000FFAD005B09F6FF5BFFAD00F600000009BC
:103A00000009ADFF000000000000A4A400000000B9
:103A100000000000000000000000000000000000A6
:103A2000000000000000000000000000FF52000045
:103A300000000000F6000000000000005B00000035
:103A40000000000000000000000000000000000076
:103A50000000000000000000000000000000000066
:103A6000000000000000000000000000005BFFFFFD
:103A7000ADFF9BAD000052ADFFFF644900000000A8
:103A80000000000000000000000000000000000036
:103A90000000000000000000000000000000000026
:103AA000000000000000000000000000FFA4FFFF75
:103AB00000FFA400FFFFADFF09A45B0000000000B1
:103AC00000000000000000000000000000000000F6
:103AD00000000000000000000000000000000000E6
:103AE000000000000000000000000000F6B600F634
:103AF000FF00F6B65BA452FF640049B60000B6FFB3
:103B0000000000000052AD52000000000000000064
:103B100000000000000000000000000000000000A5
:103B20000000000000000000000000000009A45B8D
:103B30000000FFADFFFFA4A4FFFFB6490000000096
:103B40000000000000000000000000000000000075
:103B50000000000000000000000000000000000065
:103B60000000000000000000000000004848484835
:103B7000484848484848FFFF48FFFF4848FFFFFFC4
:103B8000FFFFFFFF48FFFFFFFFFFFFFF4848FFFF6A
:103B9000FFFFFF48484848FFFFFF4848484848485B
:103BA000FF4848484848484848484848484848FF27
:103BB000FF484848484848FFFF484848484848FFA9
:103BC000FF484848484848FFFFFFFFFF484848FF74
:103BD000FFFFFFFF484848FFFF484848484848FF64
:103BE000FF484848484848FFFF4848484848484830
:103BF0004848FFFF484848484848FFFF4848484869
:103C00004848FFFF484848484848FFFF4848484858
:103C10004848FFFF484848484848FFFF4848484848
:103C20004848FFFF484848484848FFFF484848FF81
:103C3000FF484848484848FFFF484848484848FF28
:103C4000FF484848FFFFFFFFFF484848FFFFFFFFCE
:103C5000FF4848484848484848484848484848482D
:103C6000484848484848484848484848484848FF1D
:103C7000FF484848484848FFFF484848484848FFE8
:103C8000FF484848FFFFFFFFFF484848FFFFFFFF8E
:103C9000FF484848484848FFFF484848484848FFC8
:103CA000FF484848484848FFFF484848484848486F
:103CB0004848484848484848484848484848484884
:103CC00048484848FFFFFFFFFF484848FFFFFFFF05
:103CD000FF484848484848FFFF484848484848FF88
:103CE000FF484848484848FFFF484848484848482F
:103CF0004848FFFF4848484848FFFFFF48484848B1
:103D0000FFFFFF48484848FFFFFF48484848FFFF7B
:103D1000FF48484848FFFFFF48484848FFFFFF4822
:103D200048484848FFFF484848484848FFFF484837
:103D300048484848FFFFFF484848484848FFFFFFB9
:103D4000484848484848FFFFFF484848484848FF17
:103D5000FFFF484848484848FFFFFF484848484850
:103D600048FFFFFF484848484848FFFF4848484840
:103D7000484848FF484848484848FFFF484848489E
:103D800048FFFFFF48484848FFFFFFFF484848FFFB
:103D9000FFFFFFFF4848FFFFFFFFFFFF48FFFFFF58
:103DA000FFFFFFFFFFFFFFFFFFFFFFFF48484848FF
:103DB0004848484848484848484848484848484883
:103DC0004848484848484848484848484848484873
:103DD000FFFFFFFF48484848FFFFFFFF48484848AB
:103DE000FFFFFFFF48484848FFFFFFFFFF484848E4
:103DF00048484848FFFF484848484848FFFFFF48B0
:103E000048484848FFFFFFFF48484848FFFFFFFF7A
:103E1000FF484848FFFFFFFFFFFF4848FFFFFFFF45
:103E2000FFFFFF48FFFFFFFFFFFFFFFF4848484835
:103E3000FFFFFFFF48484848FFFFFFFF484848484A
:103E4000FFFFFFFF48484848FFFFFFFF484848483A
:103E500048484848484848484848484848484848E2
:103E6000484848484848484848484848FFFFFFFFF6
:103E700048484848FFFFFFFF48484848FFFFFFFF0A
:103E800048484848FFFFFFFF4848484848484848D6
:103E900048484848484848484848484848484848A2
:103EA000484848484848484848484848FFFFFFFFB6
:103EB000FFFFFFFFFFFFFFFFFFFFFFFF48484848EE
:103EC0004848484848484848484848484848484872
:103ED0004848484848484848484848484848484862
:103EE0004848484848484848484848484848484852
:103EF0004848484848484848484848484848484842
:103F00004848484848484848484848484848484831
:103F1000484848484848484848484848FFFFFFFF45
:103F2000FFFFFFFFFFFFFFFFFFFFFFFF484848487D
:103F30004848484848484848484848484848484801
:103F4000484848484848484848484848FFFFFFFF15
:103F500048484848FFFFFFFF48484848FFFFFFFF29
:103F600048484848FFFFFFFF4848484848484848F5
:103F700048484848484848FFFFFF4848484848FFE5
:103F8000FFFF484848FFFFFF48FFFFFF48FFFFFFD4
:103F900048FFFFFF48484848FF484848484848FF0E
:103FA000FFFF484848484848484848484848484823
:103FB0004848484848484848484848484848484881
:103FC00048484848484848FFFFFFFFFF484848FF27
:103FD000FFFFFFFF484848FFFF484848484848FF60
:103FE000FF484848484848FFFF484848484848482C
:103FF0004848484848484848484848484848484841
:1040000048484848FFFFFFFFFFFFFFFFFFFFFFFF9C
:10401000FFFFFFFF48484848484848484848484844
:10402000484848484848484848484848484848FF59
:10403000FF484848484848FFFF484848484848FF24
:10404000FF484848FFFFFFFFFFFFFFFFFFFFFFFFA5
:10405000FFFFFFFF484848FFFF484848484848FFDF
:10406000FF484848484848FFFF48484848484848AB
:104070004848484848484848484848484848FFFF52
:10408000FFFF484848FFFFFFFFFFFF4848FFFFFFD3
:10409000FFFFFF4848FFFFFFFFFFFF484848FFFFC3
:1040A000FFFF484848484848484848484848484822
:1040B0004848484848484848484848484848484880
:1040C000484848484848484848484848FFFFFFFF94
:1040D000FFFFFFFFFFFFFFFFFFFFFFFFFFFFFFFFF0
:1040E000FFFFFFFFFFFFFFFFFFFFFFFFFFFF48484E
:1040F00048484848FFFF484848484848FFFF484864
:1041000048484848FFFF484848484848FFFF484853
:1041100048484848FFFF484848484848FFFF484843
:1041200048484848FFFF48484848484848484848A1
:1041300048484848484848484848484848484848FF
:1041400048484848FFFFFFFFFFFFFFFFFFFFFFFF5B
:10415000FFFFFFFF484848FFFF484848484848FFDE
:10416000FF484848484848FFFF484848484848FFF3
:10417000FF484848484848FFFF484848484848FFE3
:10418000FF484848FFFFFFFFFFFFFFFFFFFFFFFF64
:10419000FFFFFFFF484848484848484848484848C3
:1041A000484848484848484848484848FFFFFFFFB3
:1041B00048484848FFFFFFFF48484848FFFFFFFFC7
:1041C00048484848FFFFFFFF48484848FFFFFFFFB7
:1041D00048484848FFFFFFFF48484848FFFFFFFFA7
:1041E00048484848FFFFFFFF48484848484848FFBC
:1041F000FF484848484848FFFF484848484848FF63
:10420000FF484848484848FFFFFFFFFF484848FF2D
:10421000FFFFFFFF48484848484848484848484842
:1042200048484848484848484848484848FFFFFFE9
:10423000FF48484848FFFF484848484848FFFFFFB4
:10424000FF48484848FFFF484848484848FFFFFFA4
:10425000FFFFFF48484848FFFF484848484848FF94
:10426000FFFFFF48484848484848484848484848A9
:1042700048484848484848FFFF4848484848FFFFE2
:10428000FFFF484848FFFFFFFFFFFF48484848FF3F
:10429000FF484848484848FFFF484848484848FFC2
:1042A000FF484848484848484848484848484848D7
:1042B00048484848484848FFFF484848484848FF59
:1042C000FF484848484848FFFF48484848FFFFFF24
:1042D000FFFFFF484848FFFFFFFF4848484848FFA6
:1042E000FF48484848484848484848484848484897
:1042F00048484848484848FFFF4848484848FFFF62
:104300004848484848FFFFFFFFFFFF484848FFFF75
:1043100048484848484848FFFF48484848484848AF
:10432000484848484848484848484848484848480D
:1043300048484848484848FFFF484848484848488F
:10434000FFFF484848FFFFFFFFFFFF484848484835
:10435000FFFF4848484848FFFF4848484848484801
:1043600048484848484848484848484848484848CD
:1043700048484848484848484848484848484848BD
:1043800048484848484848484848484848484848AD
:10439000484848484848484848484848484848489D
:1043A000484848484848484848484848484848488D
:1043B00048484848484848FFFF484848484848FF58
:1043C000FF484848484848FFFF484848484848FF91
:1043D000FF4848484848484848484848484848FFEF
:1043E000FF48484848484848484848484848484896
:1043F0004848484848FFFF4848FFFF4848FFFF48F3
:1044000048FFFF4848FFFF4848FFFF4848484848E2
:10441000484848484848484848484848484848481C
:10442000484848484848484848484848484848480C
:104430004848484848FFFF4848FFFF48FFFFFFFF44
:10444000FFFFFFFF48FFFF4848FFFF4848FFFF48C6
:1044500048FFFF48FFFFFFFFFFFFFFFF48FFFF4848
:1044600048FFFF484848484848484848484848FFA7
:10447000FF4848484848FFFFFFFFFF4848FFFF4804
:10448000484848484848FFFFFFFF484848484848D0
:1044900048FFFF4848FFFFFFFFFF4848484848FFE4
:1044A000FF484848484848484848484848484848D5
:1044B0004848484848FFFF4848FFFF4848FFFF4832
:1044C000FFFF4848484848FFFF4848484848FFFF22
:1044D0004848484848FFFF4848FFFF4848FF4848C9
:1044E00048FFFF484848484848484848484848FF27
:1044F000FFFF48484848FFFF48FFFF48484848FF3B
:10450000FFFF48484848FFFFFF48484848FFFF482A
:10451000FFFFFFFF48FFFF4848FFFF484848FFFFF5
:10452000FF48FFFF484848484848484848484848E6
:1045300048484848484848FFFF484848484848FFD6
:10454000FF484848484848FFFF48484848484848C6
:1045500048484848484848484848484848484848DB
:1045600048484848484848484848484848484848CB
:104570004848484848484848FFFFFF48484848FFDF
:10458000FFFF4848484848FFFF484848484848FF18
:10459000FF484848484848FFFFFF484848484848BF
:1045A000FFFFFF4848484848484848484848484866
:1045B0004848484848FFFFFF484848484848FFFFE8
:1045C000FF484848484848FFFF484848484848FF8F
:1045D000FF4848484848FFFFFF48484848FFFFFF5A
:1045E000484848484848484848484848484848484B
:1045F0004848484848FFFF4848FFFF484848FFFFF1
:10460000FFFF4848FFFFFFFFFFFFFFFF4848FFFF96
:10461000FFFF484848FFFF4848FFFF4848484848D0
:10462000484848484848484848484848484848480A
:1046300048484848484848FFFF484848484848FFD5
:10464000FF48484848FFFFFFFFFFFF48484848FF32
:10465000FF484848484848FFFF48484848484848B5
:1046600048484848484848484848484848484848CA
:1046700048484848484848484848484848484848BA
:1046800048484848484848484848484848484848AA
:1046900048484848484848FFFF484848484848FF75
:1046A000FF4848484848FFFF484848484848484865
:1046B000484848484848484848484848484848487A
:1046C0004848484848FFFFFFFFFFFF484848484820
:1046D000484848484848484848484848484848485A
:1046E000484848484848484848484848484848484A
:1046F000484848484848484848484848484848483A
:104700004848484848484848484848484848484829
:1047100048484848484848FFFF484848484848FFF4
:10472000FF48484848484848484848484848484852
:10473000484848484848484848FFFF48484848488B
:10474000FFFF4848484848FFFF4848484848FFFF9F
:104750004848484848FFFF484848484848FF4848B4
:1047600048484848484848484848484848484848C9
:10477000484848484848FFFFFFFF484848FFFF486F
:1047800048FFFF4848FFFF48FFFFFF4848FFFFFF83
:1047900048FFFF4848FFFF4848FFFF484848FFFFE1
:1047A000FFFF48484848484848484848484848481B
:1047B00048484848484848FFFF4848484848FFFF9D
:1047C000FF484848484848FFFF484848484848FF8D
:1047D000FF484848484848FFFF48484848FFFFFF0F
:1047E000FFFFFF4848484848484848484848484824
:1047F000484848484848FFFFFFFF484848FFFF48EF
:1048000048FFFF4848484848FFFF4848484848FF95
:10481000FF4848484848FFFF4848484848FFFFFFCE
:10482000FFFFFF48484848484848484848484848E3
:104830004848484848FFFFFFFFFFFF4848484848AE
:10484000FFFF4848484848FFFF484848484848480C
:10485000FFFF484848FFFF4848FFFF484848FFFF20
:10486000FFFF48484848484848484848484848485A
:104870004848484848484848FFFF4848484848FF93
:10488000FFFF48484848FFFFFFFF484848FFFF48F0
:10489000FFFF484848FFFFFFFFFFFF4848484848E0
:1048A000FFFF48484848484848484848484848481A
:1048B0004848484848FFFFFFFFFFFF4848FFFF48C0
:1048C0004848484848FFFFFFFFFF484848484848D5
:1048D00048FFFF4848FFFF4848FFFF484848FFFFA0
:1048E000FFFF4848484848484848484848484848DA
:1048F000484848484848FFFFFFFF484848FFFF48EE
:104900004848484848FFFFFFFFFF484848FFFF4826
:1049100048FFFF4848FFFF4848FFFF484848FFFF5F
:10492000FFFF484848484848484848484848484899
:104930004848484848FFFFFFFFFFFF4848484848AD
:1049400048FFFF4848484848FFFF4848484848FF54
:10495000FF4848484848FFFF484848484848FFFF44
:1049600048484848484848484848484848484848C7
:10497000484848484848FFFFFFFF484848FFFF486D
:1049800048FFFF484848FFFFFFFF484848FFFF48EF
:1049900048FFFF4848FFFF4848FFFF484848FFFFDF
:1049A000FFFF484848484848484848484848484819
:1049B000484848484848FFFFFFFF484848FFFF482D
:1049C00048FFFF484848FFFFFFFFFF484848484866
:1049D00048FFFF4848484848FFFF48484848FFFF0D
:1049E000FF48484848484848484848484848484890
:1049F000484848484848484848484848484848FF80
:104A0000FF484848484848FFFF4848484848484801
:104A100048484848484848FFFF484848484848FFF1
:104A2000FF4848484848484848484848484848484F
:104A3000484848484848484848484848484848FF3F
:104A4000FF484848484848FFFF48484848484848C1
:104A500048484848484848FFFF484848484848FFB1
:104A6000FF4848484848FFFF4848484848484848A1
:104A700048FFFF4848484848FFFF4848484848FF23
:104A8000FF4848484848FFFF48484848484848FFCA
:104A9000FF48484848484848FFFF48484848484871
:104AA00048FFFF4848484848484848484848484818
:104AB00048484848484848484848484848FFFFFF51
:104AC000FFFFFF4848484848484848484848484841
:104AD0004848484848FFFFFFFFFFFF48484848480C
:104AE00048484848484848484848484848FFFF48D8
:104AF000484848484848FFFF48484848484848FF11
:104B0000FF48484848484848FFFF4848484848FF49
:104B1000FF4848484848FFFF4848484848FFFF4882
:104B20004848484848484848484848484848484805
:104B3000484848484848FFFFFFFF484848FFFF48AB
:104B400048FFFF4848484848FFFF4848484848FF52
:104B5000FF4848484848484848484848484848FF67
:104B6000FF4848484848484848484848484848480E
:104B7000484848484848FFFFFFFF484848FFFF486B
:104B800048FFFF4848FFFF48FFFFFF4848FFFF4836
:104B9000FFFFFF4848FFFF48484848484848FFFF94
:104BA000FFFFFF4848484848484848484848484860
:104BB00048484848484848FFFF4848484848FFFF99
:104BC000FFFF484848FFFF4848FFFF4848FFFF48AD
:104BD00048FFFF4848FFFFFFFFFFFF4848FFFF482F
:104BE00048FFFF48484848484848484848484848D7
:104BF0004848484848FFFFFFFFFF484848FFFF4834
:104C000048FFFF4848FFFFFFFFFF484848FFFF48B5
:104C100048FFFF4848FFFF4848FFFF4848FFFFFFA5
:104C2000FFFF484848484848484848484848484896
:104C3000484848484848FFFFFFFF484848FFFF48AA
:104C400048FFFF4848FFFF484848484848FFFF489A
:104C50004848484848FFFF4848FFFF484848FFFF8A
:104C6000FFFF484848484848484848484848484856
:104C70004848484848FFFFFFFF48484848FFFF486A
:104C8000FFFF484848FFFF4848FFFF4848FFFF48EC
:104C900048FFFF4848FFFF48FFFF484848FFFFFF25
:104CA000FF484848484848484848484848484848CD
:104CB0004848484848FFFFFFFFFFFF4848FFFF48BC
:104CC0004848484848FFFFFFFFFF484848FFFF4863
:104CD0004848484848FFFF484848484848FFFFFFC1
:104CE000FFFFFF484848484848484848484848481F
:104CF0004848484848FFFFFFFFFFFF4848FFFF487C
:104D00004848484848FFFFFFFFFF484848FFFF4822
:104D10004848484848FFFF484848484848FFFF4837
:104D20004848484848484848484848484848484803
:104D3000484848484848FFFFFFFFFF4848FFFF48F2
:104D40004848484848FFFF484848484848FFFF4807
:104D5000FFFFFF4848FFFF4848FFFF484848FFFF64
:104D6000FFFFFF484848484848484848484848489E
:104D70004848484848FFFF4848FFFF4848FFFF4869
:104D800048FFFF4848FFFFFFFFFFFF4848FFFF487D
:104D900048FFFF4848FFFF4848FFFF4848FFFF48DB
:104DA00048FFFF4848484848484848484848484815
:104DB0004848484848FFFFFFFFFFFF48484848FF72
:104DC000FF484848484848FFFF484848484848FF87
:104DD000FF484848484848FFFF48484848FFFFFF09
:104DE000FFFFFF484848484848484848484848481E
:104DF0004848484848484848FFFFFF48484848480E
:104E000048FFFF484848484848FFFF484848484846
:104E100048FFFF4848FFFF4848FFFF484848FFFF5A
:104E2000FFFF484848484848484848484848484894
:104E30004848484848FFFF4848FFFF4848FFFF48A8
:104E4000FFFF484848FFFFFFFF48484848FFFFFF73
:104E5000FF48484848FFFF48FFFF484848FFFF48D1
:104E600048FFFF4848484848484848484848484854
:104E70004848484848FFFF484848484848FFFF48D6
:104E80004848484848FFFF484848484848FFFF48C6
:104E90004848484848FFFF484848484848FFFFFFFF
:104EA000FFFFFF484848484848484848484848485D
:104EB0004848484848FFFF484848FFFF48FFFFFF71
:104EC00048FFFFFF48FFFFFFFFFFFFFF48FFFF48CE
:104ED000FF48FFFF48FFFF484848FFFF48FFFF48E3
:104EE0004848FFFF484848484848484848484848D4
:104EF0004848484848FFFF4848FFFF4848FFFFFF31
:104F000048FFFF4848FFFFFFFFFFFF4848FFFFFF44
:104F1000FFFFFF4848FFFF48FFFFFF4848FFFF48EB
:104F200048FFFF4848484848484848484848484893
:104F3000484848484848FFFFFFFF484848FFFF48A7
:104F400048FFFF4848FFFF4848FFFF4848FFFF4829
:104F500048FFFF4848FFFF4848FFFF484848FFFF19
:104F6000FFFF484848484848484848484848484853
:104F70004848484848FFFFFFFFFF484848FFFF48B0
:104F800048FFFF4848FFFF4848FFFF4848FFFFFF32
:104F9000FFFF484848FFFF484848484848FFFF4847
:104FA0004848484848484848484848484848484881
:104FB000484848484848FFFFFFFF484848FFFF4827
:104FC00048FFFF4848FFFF4848FFFF4848FFFF48A9
:104FD00048FFFF4848FFFF48FFFF48484848FFFF99
:104FE00048FFFF48484848484848484848484848D3
:104FF0004848484848FFFFFFFFFF484848FFFF4830
:1050000048FFFF4848FFFF4848FFFF4848FFFFFFB1
:10501000FFFF484848FFFF48FFFF484848FFFF4858
:1050200048FFFF4848484848484848484848484892
:10503000484848484848FFFFFFFF484848FFFF48A6
:10504000484848484848FFFFFFFF48484848484804
:1050500048FFFF484848484848FFFF484848FFFF86
:10506000FFFF484848484848484848484848484852
:105070004848484848FFFFFFFFFFFF48484848FFAF
:10508000FF484848484848FFFF484848484848FFC4
:10509000FF484848484848FFFF484848484848FFB4
:1050A000FF484848484848484848484848484848C9
:1050B0004848484848FFFF4848FFFF4848FFFF4826
:1050C00048FFFF4848FFFF4848FFFF4848FFFF48A8
:1050D00048FFFF4848FFFF4848FFFF4848FFFFFFE1
:1050E000FFFFFF484848484848484848484848481B
:1050F0004848484848FFFF4848FFFF4848FFFF48E6
:1051000048FFFF4848FFFF4848FFFF4848FFFF4867
:1051100048FFFF484848FFFFFFFF4848484848FF0E
:10512000FF48484848484848484848484848484848
:105130004848484848FFFF484848FFFF48FFFF48A5
:105140004848FFFF48FFFF48FF48FFFF48FFFFFFB9
:10515000FFFFFFFF48FFFFFF48FFFFFF48FFFF483B
:105160004848FFFF48484848484848484848484851
:105170004848484848FFFF4848FFFF4848FFFF4865
:1051800048FFFF484848FFFFFFFF48484848FFFFE7
:10519000FFFF484848FFFF4848FFFF4848FFFF48D7
:1051A00048FFFF4848484848484848484848484811
:1051B0004848484848FFFF4848FFFF4848FFFF4825
:1051C00048FFFF484848FFFFFFFF4848484848FF5E
:1051D000FF484848484848FFFF484848484848FF73
:1051E000FF48484848484848484848484848484888
:1051F0004848484848FFFFFFFFFFFF4848484848E5
:10520000FFFF4848484848FFFF4848484848FFFFD4
:105210004848484848FFFF484848484848FFFFFF7B
:10522000FFFFFF48484848484848484848484848D9
:1052300048484848484848FFFFFFFF48484848FF5B
:10524000FF484848484848FFFF484848484848FF02
:10525000FF484848484848FFFF484848484848FFF2
:10526000FFFFFF4848484848484848484848484899
:105270004848484848FF48484848484848FFFF4889
:10528000484848484848FFFF48484848484848FF79
:10529000FF48484848484848FFFF48484848484869
:1052A00048FFFF4848484848484848484848484810
:1052B0004848484848FFFFFFFF484848484848FFDB
:1052C000FF484848484848FFFF484848484848FF82
:1052D000FF484848484848FFFF48484848FFFFFF04
:1052E000FF48484848484848484848484848484887
:1052F0004848484848484848FF484848484848FFC0
:10530000FFFF48484848FFFF48FFFF4848FFFF4865
:105310004848FFFF4848484848484848484848489F
:1053200048484848484848484848484848484848FD
:1053300048484848484848484848484848484848ED
:1053400048484848484848484848484848484848DD
:10535000484848484848484848484848FFFFFFFFF1
:10536000FFFFFFFF484848484848484848484848E1
:1053700048484848484848FFFF4848484848FFFFD1
:10538000FFFF484848FFFFFFFFFFFF4848FFFFFFC0
:10539000FFFFFF484848FFFFFFFF4848484848FFD5
:1053A000FF484848484848484848484848484848C6
:1053B0004848484848484848484848484848FFFFFF
:1053C000FFFF48484848484848FFFF484848FFFF13
:1053D000FFFFFF4848FFFF4848FFFF484848FFFFDE
:1053E000FFFFFF4848484848484848484848484818
:1053F0004848484848FFFF484848484848FFFF4851
:105400004848484848FFFFFFFFFF484848FFFF481B
:1054100048FFFF4848FFFF4848FFFF4848FFFFFF9D
:10542000FFFF48484848484848484848484848488E
:105430004848484848484848484848484848FFFF7E
:10544000FFFF484848FFFF484848484848FFFF4892
:105450004848484848FFFF48484848484848FFFFF0
:10546000FFFF48484848484848484848484848484E
:10547000484848484848484848FFFF48484848483E
:1054800048FFFF484848FFFFFFFFFF4848FFFF482D
:1054900048FFFF4848FFFF4848FFFF484848FFFFD4
:1054A000FFFFFF4848484848484848484848484857
:1054B0004848484848484848484848484848FFFFFE
:1054C000FFFF484848FFFF4848FFFF4848FFFFFFED
:1054D000FFFFFF4848FFFF48484848484848FFFF4B
:1054E000FFFF4848484848484848484848484848CE
:1054F0004848484848484848FFFFFF48484848FF50
:10550000FF4848484848FFFFFFFFFF48484848FF1A
:10551000FF484848484848FFFF484848484848FF2F
:10552000FF48484848484848484848484848484844
:105530004848484848484848484848484848FFFF7D
:10554000FFFFFF4848FFFF4848FFFF4848FFFF486C
:1055500048FFFF484848FFFFFFFFFF4848484848CA
:1055600048FFFF4848FFFFFFFFFF484848484848BA
:105570004848484848FFFF484848484848FFFF48CF
:105580004848484848FFFFFFFFFF484848FFFF489A
:1055900048FFFF4848FFFF4848FFFF4848FFFF48D3
:1055A00048FFFF484848484848484848484848480D
:1055B00048484848484848FFFF48484848484848FD
:1055C000484848484848FFFFFF484848484848FF7F
:1055D000FF484848484848FFFF4848484848FFFFB8
:1055E000FFFF4848484848484848484848484848CD
:1055F000484848484848484848FFFF4848484848BD
:10560000484848484848484848FFFF4848484848AC
:1056100048FFFF484848484848FFFF48484848482E
:1056200048FFFF484848FFFFFFFF484848484848B0
:105630004848484848FFFF484848484848FFFF480E
:105640004848484848FFFF48FFFF484848FFFFFFD9
:10565000FF48484848FFFF48FFFF484848FFFF48C9
:1056600048FFFF484848484848484848484848484C
:10567000484848484848FFFFFF484848484848FFCE
:10568000FF484848484848FFFF484848484848FFBE
:10569000FF484848484848FFFF4848484848FFFFF7
:1056A000FFFF48484848484848484848484848480C
:1056B00048484848484848484848484848FFFF48FC
:1056C00048FFFF4848FFFFFFFFFFFFFF48FFFFFFC6
:1056D000FFFFFFFF48FFFF48FF48FFFF48FFFF486D
:1056E0004848FFFF484848484848484848484848CC
:1056F00048484848484848484848484848FFFFFF05
:10570000FFFF484848FFFF4848FFFF4848FFFF4861
:1057100048FFFF4848FFFF4848FFFF4848FFFF4851
:1057200048FFFF484848484848484848484848488B
:105730004848484848484848484848484848FFFF7B
:10574000FFFF484848FFFF4848FFFF4848FFFF4821
:1057500048FFFF4848FFFF4848FFFF484848FFFF11
:10576000FFFF48484848484848484848484848484B
:1057700048484848484848484848484848FFFFFF84
:10578000FFFF484848FFFF4848FFFF4848FFFF48E1
:1057900048FFFF4848FFFFFFFFFF484848FFFF481A
:1057A0004848484848FFFF4848484848484848480B
:1057B0004848484848484848484848484848FFFFFB
:1057C000FFFFFF4848FFFF4848FFFF4848FFFF48EA
:1057D00048FFFF484848FFFFFFFFFF484848484848
:1057E00048FFFF484848484848FFFF48484848485D
:1057F00048484848484848484848484848FFFFFF04
:10580000FFFF484848FFFF4848FFFF4848FFFF4860
:105810004848484848FFFF484848484848FFFF482C
:1058200048484848484848484848484848484848F8
:105830004848484848484848484848484848FFFF7A
:10584000FFFFFF4848FFFF48484848484848FFFFD7
:10585000FFFF48484848484848FFFF4848FFFFFFC7
:10586000FFFF48484848484848484848484848484A
:1058700048484848484848FFFF48484848FFFFFF15
:10588000FFFFFF48484848FFFF484848484848FF4E
:10589000FF484848484848FFFF4848484848484863
:1058A000FFFFFF4848484848484848484848484853
:1058B00048484848484848484848484848FFFF48FA
:1058C00048FFFF4848FFFF4848FFFF4848FFFF48A0
:1058D00048FFFF4848FFFF4848FFFF484848FFFF90
:1058E000FFFFFF4848484848484848484848484813
:1058F00048484848484848484848484848FFFF48BA
:1059000048FFFF4848FFFF4848FFFF4848FFFF485F
:1059100048FFFF484848FFFFFFFF4848484848FF06
:10592000FF48484848484848484848484848484840
:1059300048484848484848484848484848FFFF4879
:105940004848FFFF48FFFF48FF48FFFF48FFFFFFB1
:10595000FFFFFFFF4848FFFFFFFFFF484848FFFFEA
:1059600048FFFF4848484848484848484848484849
:1059700048484848484848484848484848FFFF4839
:1059800048FFFF484848FFFFFFFF4848484848FF96
:10599000FF4848484848FFFFFFFF484848FFFF4886
:1059A00048FFFF4848484848484848484848484809
:1059B00048484848484848484848484848FFFF48F9
:1059C00048FFFF4848FFFF4848FFFF4848FFFF489F
:1059D00048FFFF484848FFFFFFFFFF484848484846
:1059E000FFFF484848FFFFFFFF48484848484848ED
:1059F00048484848484848484848484848FFFFFF02
:105A0000FFFFFF4848484848FFFF4848484848FFCC
:105A1000FF4848484848FFFF4848484848FFFFFFBC
:105A2000FFFFFF48484848484848484848484848D1
:105A300048484848484848FFFF4848484848FFFF0A
:105A4000FFFF484848FFFFFFFFFFFF4848FFFFFFF9
:105A5000FFFFFF48484848FFFF4848484848FFFFC5
:105A6000FFFF48484848484848484848484848FF91
:105A7000FF484848484848FFFF484848484848FFCA
:105A8000FF484848484848FFFF484848484848FFBA
:105A9000FF484848484848FFFF484848484848FFAA
:105AA000FF484848484848FFFF4848484848484851
:105AB0004848484848FFFFFFFFFFFF4848FFFFFFF7
:105AC000FF48484848FFFFFFFFFF484848FFFF489E
:105AD000FFFFFF4848FFFF4848FFFF484848484845
