:100000000C941B2D0C94C02D0C94C02D0C94C02D61
:100010000C94C02D0C94C02D0C94C02D0C94C02DAC
:100020000C94C02D0C94C02D0C94C02D0C94C02D9C
:100030000C94C02D0C9405300C94C02D0C94C02D44
:100040000C94C02D0C94C02D0C94C02D0C94C02D7C
:100050000C94C02D0C94C02D0C94C02D0C94C02D6C
:100060000C94C02D0C94C02D0C94C02D0C94C02D5C
:100070005A5501200201003808000000000000006D
:100080000000000000E239F0395F3ABC3DA63DF3C4
:1000900039023A113A8C3D1F3A2D3A1E1C000000DD
:1000A0000000000000000000000000000000000050
:1000B0000000000000000000000000000000000040
:1000C0000000000000000000000000000000000030
:1000D0000000000000000000000000000000000020
:1000E0000000000000000000000000000000000010
:1000F0000000000000000000000000000000000000
:1001000000000000000000000000000000000000EF
:1001100000000000000000000000000000000000DF
:1001200000000000000000000000000000000000CF
:1001300000000000000000000000000000000000BF
:1001400000000000000000000000000000000000AF
:10015000000000000000000000000000000000009F
:10016000000000000000000000000000000000008F
:10017000000000000000000000000000000000007F
:10018000000000000000000000000000000000006F
:10019000000000000000000000000000000000005F
:1001A000000000000000000000000000000000004F
:1001B000000000000000000000000000000000003F
:1001C000000000000000000000000000000000002F
:1001D000000000000000000000000000000000001F
:1001E0000000000000000000000000010203000009
:1001F0000004000506070809000000000A0B0C0DAA
:100200000E00000000000000000F10111213141562
:10021000161718191A1B1C1D1E1F2021222300004F
:10022000000000000000002425262728292A2B2C66
:100230002D2E2F3031323334353637380000000060
:100240000000000000393A003B3C3D3E3F40414247
:10025000434445464748494A4B4C000000000000D3
:100260000000004D4E000000004F505152535455B5
:100270005657585900005A5B00000000000000006B
:10028000000000000000005C0000000000005D5E57
:100290005F6000000000000000000000000000009F
:1002A000000000006162636465666768696A6B6C80
:1002B000000000000000000000000000000000003E
:1002C00000006D6E6F7071727374757677780000D0
:1002D000000000000000000000000000000000001E
:1002E000797A7B7C7D7E007F8081828300000000A4
:1002F00000000000000000000000000000000000FE
:1003000000000000000000000000000000000000ED
:1003100000000000000000000000000000000000DD
:1003200000000000000000000000000000000000CD
:1003300000000000000000000000000000000000BD
:1003400000000000000000000000000000000000AD
:10035000000000000000000000000000000000009D
:10036000000000000000000000000000000000008D
:10037000000000000000000000000000000000007D
:10038000000000000000000000000000000000006D
:10039000000000000000000000000000000000005D
:1003A000000000000000000000000000000000004D
:1003B000000000000000000000000000000000003D
:1003C000000000000000000000000000000000002D
:1003D000000000000000000000000000000000001D
:1003E0000000000000FFFFFFFFFFFFFFFFFFFFFF18
:1003F000FFFFFFFFFFFFFFFFFFFFFFFFFFFFFFFF0D
:10040000FFFFFFFFFFFFFFFFFFFFFFFFFFFFFFFFFC
:10041000FFFFFFFFFFFFFFFFFFFFFFFFFFFFFFFFEC
:10042000FFFFFFFFFFFFFFFFFFFFFFFFFFFFFFFFDC
:10043000FFFFFFFFFFFFFFFFFFFFFFFFFFFFFFFFCC
:10044000FFFFFFFFADFFFFFFFFFFFF0000FFFFFF0C
:10045000FFFFFF0000FFFFFFFFFFFF0000FFFFFFA8
:10046000FFFFFF0000FFFFFFFFFFFFFFFFFFFFFF9A
:10047000FFFFFFFFFFFFFFFFFFFFFFFFFF5B52528A
:100480000000000009000000000000000000000063
:10049000000000000000000000000000000000005C
:1004A0000000000000FFFFFFFFFFFFFFFFFFFFFF57
:1004B000FFFFFFFFFFFFFFFFFFFFFFFFFF52A4FF54
:1004C000FFFFFFFFFF000000ADFFFFFFFF00000088
:1004D00000A4FFFFFF0000000000ADFFFF000000D0
:1004E000000052FFFFFFFFFFFFFFFFFFFFFFFFFFC7
:1004F000FFFFFFFFFFFFFFFFFFFFFFFFFFFFFFFF0C
:10050000FFFFFFFFFFFFFFFFFFFFFFFFFFFFFFFFFB
:10051000FFFFFFFFFFFFFFFFFFFFFFFFFFB6A4A4EA
:100520005BA4FFFFFFFFFFFFFFFFFFFFFFFFFFFFDA
:10053000FFFFFFFFFFFFFFFFFFFFFFFFFFFFFFFFCB
:10054000FFFFFFFFFFADF6FFFFFFFFFFFF520000C1
:100550005BFFFFFFFF5B000000FFFFFF52A40000F6
:1005600000FFFFFF52FFFFFF525252525BFFFFFF9F
:100570000000000052FFFFFF4900000052FFFFFF94
:10058000520000005BFFFFFF52000000A4FFFFFFCE
:10059000520000005B0000000000000000000000AE
:1005A0000000000000FFFFFFFFFFFFFFFFFFFFFF56
:1005B000FFFFFFFFFFFFFFFFFFFFFFFFFFFFFFFF4B
:1005C000FFFFFFFFFFFFFFFFFFFFFFFFFFFFFFFF3B
:1005D000FFFFFFFFFF000000000000ADFF00000074
:1005E000000000ADFFFFFFFFFFFFFFFFFFFFFFFF6A
:1005F000FFFFFFFFFFFFFFFFFFFFFFFFFFFFFFFF0B
:10060000FFFFFFFFFFFFFFFFFFFFFFFFFFFFFFFFFA
:10061000FFFFFFFFFFFFFFFFFFFFFFFFF6FFFFFFF3
:10062000FFFFFF5B00FFFFFFFFFFFFFFFFFFFFFF7D
:10063000FFFFFFFFFFFFFFFFFFFFFFFFFFFFFFFFCA
:10064000FFFFFFFFFFFFFFFFFFFFFFFFFFFFFFFFBA
:10065000FFFFFFFFFF5B090000495BF6FF000000A2
:100660000000000064FFFFFFFFFFFFFFFFFFFFFF31
:10067000FFFFFFFFFFFFFFFFFFFFFFFFFFFFFFFF8A
:10068000FFFFFFFFFFFFFFFFFFFFFFFFFFFFFFFF7A
:10069000FFFFFFFFFFFFFFFFFFFFFFFFF6FFFFFF73
:1006A000F664490000FFFFFFFFFFFFFFFFFFFFFFB2
:1006B000FFFFFFFFFFFFFFFFFFFFFFFFFFFFFFFF4A
:1006C000FFFFFFFFFFFFFFFFFFFFFFFFFFFFFFFF3A
:1006D000FFFFFFFFFFADADADFFFFFFFFFF0000001D
:1006E00000095BADFFFFFFFFFFFFF6525BFFFFFF5F
:1006F000FFFFFF0000FFFFFFFFFFFF4900FFFFFFBD
:10070000FFFFFF5200FFFFFFFFFFFF5B00FFFFFF48
:10071000FFFFFFA400FFFFFFFFFFFFAD00FFFFFF94
:10072000FFFFFFF600A45BADADADFFFFFF000000D3
:1007300000000000000000000000000000000000B9
:10074000000000005B00000000000000AD000000A1
:1007500000000000F600000000000052FF00000052
:100760000000005BFFFFFFFFFFFFFFFFFFADFFFF8C
:10077000FFFFFFFFFFF6FFFFFFFFFFFFFFFFFFFF92
:10078000FFFFFFFFFFFFFFFFFFFFFFFFFFFFFFFF79
:10079000FFFFFFFFFFFFFFFFFFFFFFFFFFFFFFFF69
:1007A000FFFFFFFFFFFFFFFFFFFFFF0000FFFFFF57
:1007B000FFFFFF4900FFFFFFFFFFFF5200FFFFFFAA
:1007C000FFFFFF5200FFFFFFFFFFFF5200FFFFFF91
:1007D000FFFFFF5200FFFFFFFFFFFF5B00FFFFFF78
:1007E000FFFFFF9B00000000ADF65B000000000073
:1007F000ADFFFFF609000000ADFFFFFFF6000000AF
:10080000ADFFFFFFFF000000ADFFFFFFFF00000096
:10081000ADFFFFFFFF000000ADFFFFFFFF00000086
:10082000ADFFFFFFFF000000000000F6FF0000002A
:10083000000000A4FF0000000000005BFF5B000060
:1008400000000052FFAD000000000052FFAD0000AC
:1008500000000052FFAD000000000052FFAD00009C
:1008600000000064FFFFFFFFFFFFFFF6A4FFFFFF94
:10087000FFFF5B0000FFFFFFFF49000000FFFFFFDD
:100880005B000009F6FFFFF6000000F6FFFFFF5BCC
:10089000000009FFFFFFFF49000052FFFFFFFF00BC
:1008A000000049ADAD5209000000495BF6000000B0
:1008B00000000000005252090000000000FFFFFF8E
:1008C000AD00000000FFFFFFFFA4000000FFFFFFDE
:1008D000FFB6000000FFFFFFFFFF000000ADADA46A
:1008E0005BA4000000FFFFFFFFFFFFFFFFADFFFF66
:1008F000FFFFFFFFFF00A4FFFFFFFFFFFF0009F660
:10090000FFFFFFFFFF000052FFFFFFFFFF0000009F
:10091000F6FFFFFFFF000000A4FFFFFFFF00000045
:1009200052FFFFFFFF52000000005BFFFF5200007C
:1009300000000049FF64000000000000099B000067
:10094000000000000064000000000000009B0000A8
:100950000000000000A400000000000000AD000046
:100960000000000000FFFFFFFFFFFFFFFFFFFFFF92
:10097000FFFFFFFFFFFFFFFFFFFFFFFFFF52FFFF34
:10098000FFFFFFFFFF005BFFFFFFFFFFFF0000A473
:10099000FFFFFFFFFF000000B6FFFFFFFF000000AA
:1009A00009FFFFFFFFA4000000FFFFFF52AD0000A2
:1009B00000FFFFFF52AD000000FFFFFF52AD00003F
:1009C00000FFFFFFF6AD000000FFFFFFFFAD0000DE
:1009D00000FFFFFFFFAD000000FFFFFFFFA40000CE
:1009E00052FFFFFFFF0000000000000000000000B9
:1009F00000000000000000090000000000FFFFFFF1
:100A000052000000A4FFFFFF52000000ADFFFFFFF7
:100A100052000000ADFFFFFF52000000ADFFFFFFDE
:100A200052000000AD000000000000ADFF0000001B
:100A3000000000ADFF000000000000ADFFADADAD57
:100A4000A45BA4F6FFFFFFFFFFFFFFFFFFFFFFFF19
:100A5000FFFFFFFFFFFFFFFFFFFFFFFFFFFFFFFFA6
:100A6000FFFFFFFFFFFFFFFFFFF6090000FFFFFF93
:100A7000FF09000000FFFFFF4900000000FFFF64C6
:100A80000000000000FFFF000000000052FF5B00BC
:100A900000000000FFFFFFFFFFFFFFFFFFFFFFFF62
:100AA000FFFFFFFFFF00000000000000000000004B
:100AB0000000000000005BFFAD00000000A4FFFF8D
:100AC000FFAD000000FFFFFFFFFF090000FFFFFF79
:100AD000FFFF5B0000FFFFFFFFFFA40000FFFFFF21
:100AE000FFFFAD000049FFFFFFFFFFFFFF0052FFC8
:100AF000FFFFFFFFFF0000ADFFFFFFFFFF00005BF8
:100B0000FFFFFFFFFF000049FFFFFFFFAD000000F8
:100B1000FFFFFFFF52000000B6FFFFFF09000000CB
:100B2000ADFFFFF600FFFFFFFFB6ADADADFFFF5B12
:100B30000000000000FF490000000000005200001B
:100B4000000000000000000000000000090000009C
:100B5000000000A4FF0000000000B6FFFF0000003E
:100B600000A4FFFFFFFFFFFFFFFFFFFFFF00099B48
:100B7000FFFFF6FFFF00000049B600005200000032
:100B800000000000005209000000000000FFFFB656
:100B90005200000000FFFFFFAD00000000FFFFFF5C
:100BA000A400000000FFFFFFFFFFFFFFFFFFFFFFAC
:100BB000FFFFFFFFFF5BADF6FFFFFFFFA40000009C
:100BC000FFFFFFAD00000052FFFFFF090000005BC8
:100BD000FFFFAD00000000ADFFFF5B00000000FF65
:100BE000FFFF520000FFF65B0000000000A40900B8
:100BF0000000A4ADAD00000009FFFFFFFF000000F2
:100C0000ADFFFFFFFF000049FFFFFFFFFF00005B9C
:100C1000FFFFFFFFFF0000A4FFFFFFFFFF00005BDF
:100C2000FFFFFFFFFF0000000000000052A4520081
:100C30000000000000FFFFAD0000000000FFFFFF0C
:100C4000F609000000FFFFFFFFAD000000FFFFFFFF
:100C5000FFFFA40000FFFFFFFFFFFF0000FFFFFFFB
:100C6000FFFFFFA400FFFFFFFFFFFFFF0009B6FF2C
:100C7000FFFFFFFF090000FFFFFFFFFF52000052D0
:100C8000FFFFFFFF52000000ADFFFFFF6400000008
:100C900052FFFFFF9B00000000F6FFFFAD000000C9
:100CA00000A4FFFFAD000000000000ADFF00000049
:100CB000000000F6FF000000000000FFFF00000041
:100CC000000049FFFF000000000052FFFF0000008D
:100CD00000005BFFFF00000000005BFFFF00000062
:100CE0000000A4FFFFFFFFFFFFFFFF6400FFFFFF07
:100CF000FFFFFF9B00FFFFFFFFFFFF6400FFFFFF01
:100D0000FFFFFFA400FFFFFFFFFFFFAD00FFFFFF9E
:100D1000FFFFFFAD00FFFFFFFFFFFFAD00FFFFFF85
:100D2000FFFFFFAD00000000ADFFFFFFFF00000070
:100D3000ADFFFFFFFF000000ADFFFFFFAD000000B3
:100D40005BADFFAD090000000000000000000000E6
:100D50000000000000000000000000000000000093
:100D6000B6A45252529B0000000000F6FF0900009A
:100D7000000009FFFF0000000000A4FFFF000000CA
:100D80000049FFFFFF00000000B6FFFFFF0000006A
:100D9000A4FFFFFFFF0000ADFFFFFFFFFFA4FFFF69
:100DA000FFFFFFFFFFFFF6000000000000FFAD00A7
:100DB0000000000000FFAD000000000000FFAD00DB
:100DC0000000000000FFF6000000000000FFFF0030
:100DD0000000000000FFFF490000000000FFFFA42A
:100DE0000000000000000000000000000000000003
:100DF00000000000004952525252525252ADFFFFC1
:100E0000FFFFFFFFFFADFFFFFFFFFFFFFFADFFFF96
:100E1000FFFFFFFFFFADFFFFFFFFFFF6ADADFFFFE1
:100E2000FFFFFFAD0000000009FFFFFFFF00000013
:100E300000FFFFFFFF52525252FFFFFFFFFFFFFF75
:100E4000FFFFFFFFFFFFFFFFFFFFFFFFFFFFFFFFB2
:100E5000FFFFFFFFFFADADADA4F6FFFFFF000000F9
:100E600000FFFFFFFFAD00000000000000AD00002C
:100E7000005B000000AD000000F6090000FF00006C
:100E800000FFF60000FF000000FFFF5B00FF000016
:100E900000FFFFFF09FF000000F6FFFFADFF0000AD
:100EA00000ADFFFFFF0000000052FFFFFF00000049
:100EB0000000A4FFFF000000000000B6FF000000DB
:100EC00000000049F6000000000000005B00000088
:100ED000000000000000000000000000005B0000B7
:100EE0000000000000A4000052FFFFFFFF5B0000B5
:100EF00052FFFFFFFF5B000052FFFFFFFF520000A9
:100F000052FFFFFFFF09000052FFFFFFFF0000003C
:100F100052FFFFFFFF00000052FFFFFFFF00000035
:100F200052FFFFFFFFFFFFFF52000000ADFFFFFF7A
:100F300052000000ADFFFFFF52000000ADFFFFFFB9
:100F400052000000ADFFFFFF52000000ADFFFFFFA9
:100F500052000000A4FFFFFF5200000064FFFFFFEB
:100F6000520000009BFFFFFFFFFFFFFFFFFFFFFF9F
:100F7000FFFFFFFFFFFFFFFFFFFFFFFFFFFFFFFF81
:100F8000FFFFFFFFFFFFFFFFFFFFFFFFFFFFFFFF71
:100F9000FFFFFFFFFFFFFFFFFFFFFFFFFFFFFFB6AA
:100FA000A4F6FFFFFFFFFFFFFFFFFFFFFFFFFFFFB5
:100FB000FFFFFFFFFFFFFFFFFFFFFFFFFFFFFFFF41
:100FC000FFFFFFFFFFFFFFFFFFFFFFFF5BFFFFFFD5
:100FD000FFFFB60000FFFFFFFFF6000000FFFFFF6E
:100FE000FF52000000FFFFFFFFFFFF0000FFFFFFB9
:100FF000FFFFFF0000FFFFFFFFFFFF0000FFF6AD58
:10100000ADFFFF00000000000000520000000000E3
:1010100000000000000000000000000000000000D0
:101020000000000000000000A4FFFFAD0000000071
:1010300064FFFFAD000000009BFFFFAD000000005B
:1010400064FFFFF60000000052FFFFFF00000000F9
:1010500052FFFFFF5200000052FFFFFFAD000000F3
:1010600052FFFFFFFF00000000ADFFFFFF00000088
:1010700000ADFFFFFF00000000ADFFFFFF0000001C
:1010800000ADFFFFFF00000000A4FFFFFF00000015
:101090000052FFFFFF0000000000A4FFFF5200000D
:1010A00000000052A4FFFFFF5B00000000FFFFFFF5
:1010B0005200000000FFFFFF5200000000FFFFFF92
:1010C0000000000000FFFFFF0000000000FFFFAD78
:1010D0000000000000FFFFAD00000000005B5200B8
:1010E00000000000000049FFFFFF520000005BFF0E
:1010F000FFFF52000000ADFFFFFF5B000000FFFF9D
:10110000FFFFA4000009FFFFFFFFB6000052FFFF32
:10111000FFFFFF4900A4FFFFFFFFFFA400ADFFFF9B
:10112000FFFFFFFF52000052FFFFFFFFFF00000024
:10113000FFFFFFFFFF000000B6FFFFFFFF00000002
:101140005BFFFFFFFF00000000FFFFFFFF0000004C
:10115000009BFFFFFF0000000000B6FFFF00000043
:101160000000099BFFFFFFFFFFFFFFB600FFFFFF2F
:10117000FFFFFFFF49FFFFFFFFFFFFFF5BFFFFFFD9
:10118000FFFFFFFFA4FFFFFFFFFFFFFFADFFFFFF1C
:10119000FFFFFFFFADFFFFFFFFFFFFFFA4FFFFFF0C
:1011A000FFFFFFB600000000005BFFFFAD00000086
:1011B0000052FFFFF60000000052FFFFFF0000009A
:1011C0000052FFFFFF0000000052FFFFFF00000081
:1011D0000064FFFFFF00000000F6FFFFFF000000BB
:1011E00009FFFFFFFF00000000005BFFFF000000A1
:1011F0000000ADFFFF0000000000ADFFFF00000099
:101200000000ADFFFF0000000000ADFFFF00000088
:101210000000ADFFFF0000000000ADFFFF00000078
:101220000000ADFFFFFFFFFFFFFFFFAD00FFFFFF6F
:10123000FFFFFFAD00FFFFFFFFFFFFAD00FFFFFF60
:10124000FFFFFFAD00FFFFFFFFFFFFAD00FFFFFF50
:10125000FFFFFFAD00FFFFFFFFFFFFAD00FFFFFF40
:10126000FFFFFF9B00000000ADFFFFFFFF0000003D
:10127000A4FFFFFFFF00000064FFFFFFFF0000006E
:101280005BFFFFFFFF00000052FFFFFFFF000000B9
:1012900000FFFFFFFF00000000FFFFFFFF00000056
:1012A00000B6FFFFFFFFFFFF0000000000FFFFFF91
:1012B0006400000000FFFFFFFF49000000FFFFFF88
:1012C000FFFF090000FFFFFFFFFFFF5200FFFFFFCE
:1012D000FFFFFFFFB6FFFFFFFFFFFFFFFFFFFFFF67
:1012E000FFFFFFFFFFA4FFFFFFFFFFAD0052FFFF67
:1012F000FFFFFFA40000ADFFFFFFAD090000005B92
:10130000644900000000000000000000005B49008C
:101310000000495BADFFFFFFFFFFFFFFFFFFFFFF87
:10132000FFFFFFFFFF0000005BFFFFFFFF0000006B
:10133000ADFFFFFFFF000052FFFFFFFFFF0000FFB8
:10134000FFFFFFFFFF49B6FFFFFFFFFFFFFFFFFFAC
:10135000FFFFFFFFFFFFFFFFFFFFFFFFFFFFFFFF9D
:10136000FFFFFFFFFFFF000000ADFFFFFFB6000023
:1013700000ADFFFFFFAD000000ADFFFFFFAD0000BF
:1013800000A4FFFFFFAD0000005BFFFFFFAD00000A
:1013900000A4FFFFFFAD0000005BFFFFFFA4000003
:1013A0000052FFFFFFF600000000000000FFA40055
:1013B0000000000000FFF6090000000000FFFFA48D
:1013C0000000000000FFFFFF0900000000FFFFFF1A
:1013D000A400000000FFFFFFFF09000000FFFFFF67
:1013E000FFA400000000000000FFFFFFFF0000005E
:1013F00000FFFFFFFF00000000FFFFFFFF000000F5
:1014000000F6FFFFFF00000000ADFFFFFF0000003F
:1014100000ADFFFFFF00000000A4FFFFFF00000081
:10142000005BFFFFFFFFFFFF5200000064FFFFFFB4
:10143000520000009BFFFFFF5200000064FFFFFF0F
:10144000520000009BFFFFFF5200000052FFFFFF11
:101450005200000052FFFFFF5200000000FFFFFF9C
:101460005200000000FFFF9B000009A4B6FFFF64CC
:101470000000000000FFFF520000000000FFFF49D5
:10148000000000005BFFFF0000000000ADFFAD00AA
:1014900000000009FFF65200000000ADFF00000050
:1014A000000052FFFFFFFFFFF600000000ADFFFF4E
:1014B000A400000000FFFFFF5B00000000FFFFFF33
:1014C0005200000000FFFFFF5200000000FFFFFF7E
:1014D0005200000000FFFFFF5B00000000FFFFFF65
:1014E000AD00000000005BF6FFAD09000000FFFF4B
:1014F000FFFF9B00005BFFFFFFFF6400009BFFFFFF
:10150000FFFF9B000064FFFFFFFF52000052FFFF40
:10151000FFFF52000000FFFFFFFF520000005BFFD3
:10152000FFF609000000000052FFFFFFFF0000006F
:1015300052FFFFFFFF00000052FFFFFFFF0000000F
:1015400052FFFFFFFF00000052FFFFFFFF000000FF
:1015500052FFFFFFFF00000052FFFFAD0000000040
:1015600052FFFFA400B600000000000000FFF600DC
:101570000000000000FFFFFF5B00000000FFFFFF16
:10158000FFFFAD9B64FFFFFFFFFFFFFFFFFFFFFFBC
:10159000FFFFFFFFFF5BADADFFF6B6FFFF000000F2
:1015A0000000A4FFFF000000000000000000000099
:1015B000000000000000000952000000009BADFF89
:1015C0005200000049FFFFFF5200000052FFFFFFE2
:1015D0005200000052FFFFFF5200000052FFFFFFC9
:1015E0005200000052ADFFFFFFFFFFFFFFFFFFFFB4
:1015F000FFFFFFFFFFFFFFFFFFFFFFFFFFFFFFFFFB
:10160000FFFFFFFFFFFFFFFFFFFFFFFFFFFFFFFFEA
:10161000FFFFFFFFFFFFFFFFFFFFFFFFFFFFFFFFDA
:10162000FFFFFFFFFF0900000000000009B64900AE
:101630000000000000FFFF520000000000FFFFFF5D
:10164000AD09000000FFFFFFFFFFF65B52FFFFFF49
:10165000FFFFFFFFFFFFFFFFFFFFFFFFFFFFFFFF9A
:10166000FFFFFFFFFFA4FFFFFFFFA4000000099B97
:1016700064490000000000000000000000000000BD
:10168000000000000900000000495BADFFFFFFFF04
:10169000FFFFFFFFFFFFFFFFFFFFFFFFFFFFFFFF5A
:1016A000FFFFFFFFFF000000ADFFFFFFFF00005B3B
:1016B000FFFFFFFFFF005BFFFFFFFFFFFFADFFFF2F
:1016C000FFFFFFFFFFFFFFFFFFFFFFFFFFFFFFFF2A
:1016D000FFFFFFFFADFFFFFFFFFFFFFFADFFFFFFBE
:1016E000FFFFFFFFAD0000000000ADFFFF000000A6
:1016F0000000ADFFFF00000000009BFFFF000000A6
:10170000000064FFFF00000000009BFFFF000000DE
:10171000000064FFFF00000000009BFFFF000000CE
:10172000000064FFFFFFFFFFFFFFFF6400FFFFFFFC
:10173000FFFFFF5B00FFFFFFFFFFFF5200FFFFFF08
:10174000FFFFFF0900FFFFFFFFFFFF0000FFFFFF9C
:10175000FFFFB60000FFFFFFFFFFAD0052FFFFFFDE
:10176000FFFFFFFFFF00000000ADFFFFFF000000D4
:1017700000A4FFFFFF0000000064FFFFFF00000067
:101780000052FFFFFF0000000052FFFFFF000000BB
:101790000000FFFFFF5252A45BA4FFFFFFFFFFFF0B
:1017A000FFFFFFFFFF6400000052FFFFFF9B0000F0
:1017B0000052FFFFFF6400000052FFFFFF9B00008C
:1017C0000000FFFFFF5200000000FFFFFF5200007B
:1017D0000000FFFFFF5200000000FFFFFF5200006B
:1017E0000000FFFFFFFFFFFFFFFF090000FFFFFFFB
:1017F000FFFFA40000FFFFFFFFFFFF5200FFFFFFFE
:10180000FFFFFFAD00FFFFFFFFFFFFFF52FFFFFFE6
:10181000FFFFFFFFF6FFFFFFFFFFFFFFFFFFFFFFE1
:10182000FFFFFFFFFF0000000052FFFFFF0000006E
:101830000049FFFFFF0000000000FFFFFF00000065
:101840000000F6FFFF0000000000ADFFFFADADA4FB
:10185000649BB6FFFFFFFFFFFFFFFFFFFFFFFFFFE0
:10186000FFFFFFFFFFFFFFFFA400000000FFFFFFDF
:10187000FF5B000000FFFFFFFFFFAD5B52FFFFFFBC
:10188000FFFFFFFFFFFFFFFFFFFFFFFFFFFFFFFF68
:10189000FFFFFFFFFFFFFFFFFFFFFFFFFFFFFFFF58
:1018A000FFFFFFFFFF0000000049FFFFFF000000F7
:1018B00052FFFFFFFF525BADFFFFFFFFFFFFFFFF88
:1018C000FFFFFFFFFFFFFFFFFFFFFFFFFFFFFFFF28
:1018D000FFFFFFFFFFFFFFFFFFFFFFFFFFFFFFFF18
:1018E000FFFFFFFFFFFFFFFFFF09000000FFFFFFFB
:1018F000FFAD000000FFFFFFFFFF5B0000FFFFFFE9
:10190000FFFFFF5B00FFFFFFFFFFFFFFF6FFFFFF93
:10191000FFFFFFFFFFFFFFFFFFFFFFFFFFFFFFFFD7
:10192000FFFFFFFFFF000052520000000000000018
:1019300000000000000000000000000000000000A7
:1019400000000000005B52525BADF6B6FFFFFFFFE8
:10195000FFFFFFFFFFFFFFFFFFFFFFFFFFFFFFFF97
:10196000FFFFFFFFFF00000052FFFF5200000000DA
:1019700052FFFF520000000052FFFF00000009521A
:101980005BFFFF0000FFFFFFFFFFFF0000FFFFFF07
:10199000FFFFFF0000FFFFFFFFFFFF5200FFFFFF01
:1019A000FFFFFFA4000000000049FFFFFF00000050
:1019B00000ADFFFFFF0000005BFFFFFFFF00000026
:1019C000FFFFFFFFFF0000A4FFFFFFFFFF0000FF7E
:1019D000FFFFFFFFFF0052FFFFFFFFFFFF0000FFC1
:1019E000FFFFFFFFFFFFFFFF5B00000009FFFFFF9E
:1019F000A400000000FFFFFF5B00000000FFFFFFEE
:101A0000A400000000FFFFFF5B00000000FFFFFFDD
:101A1000A400000000FFFFFF5B00000000FFFFFFCD
:101A20000900000000FFFFFFFFFFFFFFFFFFFFFFB8
:101A3000FFFFFFFFFFFFFFFFFFFFFFFFFFFFFFFFB6
:101A4000FFFFFFFFFFADFFFFFFFFFFFFFFADFFFF4A
:101A5000FFFFFFFFFFADFFFFFFFFFFFFFFADFFFF3A
:101A6000FFFFFFFFFFFFFFFFFFFFFFFFFFFFFFFF86
:101A7000FFFFFFFFFFFFFFFFFFFFFFFFFFFFFFFF76
:101A8000FFFFFFFFF6FFFFFFFFFFFFFF64FFFFFF0A
:101A9000FFFFFFFFADFFFFFFFFFFFFFFFFFFFFFFA8
:101AA000FFFFFFFFFFADADADADADF6FFFFFFFFFFE9
:101AB000FFFFFFFFFFF6A45252B6FFFFFF0000003A
:101AC0000052FFFFFF0000000052FFFFFF00000078
:101AD00000ADFFFFFFAD649BB6FFFFFFFFFFFFFF01
:101AE000FFFFFFFFFF520952525BFFFFFFFFFFFFA7
:101AF000FFFFFFFFFFFFFFFFFFFFFFFFFFFFFFFFF6
:101B0000FFFFFFFFFFFFFFFFFFFFFFFFFFFFFFFFE5
:101B1000FFFFFFFFFFFFFFFFFFFFFFFFFFFFFFFFD5
:101B2000FFFFFFFFFFFFFFFFFFFFFFFF00FFFFFFC4
:101B3000FFFFFFFFADFFFFFFFFFFFFFFFFFFFFFF07
:101B4000FFFFFFFFFFFFFFFFFFFFFFFFFFFFFFFFA5
:101B5000FFFFFFFFFFFFFFFFFFFFFFFFFFFFFFFF95
:101B6000FFFFFFFFFF0000A4FFFFFFFFFF000000DB
:101B70005BFFFFFFFF5B000000095BADADFF5B009B
:101B80000000000000FFFFAD0000000000FFFFFFAD
:101B9000FF9B090000FFFFFFFFFFFFAD5BFFFFFFA3
:101BA000FFFFFFFFFFFFFFAD0000000000FFFF4948
:101BB0000000000000A40900000000000000000078
:101BC0000000000049000000000000006400000068
:101BD00000000049FF520000000964F6FFFFFFFF0C
:101BE000FFFFFFFFFFADFFFFFFFFFFFFFFF6FFFF60
:101BF000FFFFFFFFFFFFFFFFFFFFFFFFFFFFFFFFF5
:101C0000FFFFFFFFFFFFFFFFFFFFFFFFFFFFFFFFE4
:101C1000FFFFFFFFFFFFFFFFFFFFFFFFFFFFFFFFD4
:101C2000FFFFFFFFFFFFFFFFFFFFFFFFFFFFFFFFC4
:101C3000FFFFFFFFFFFFFFFFFFFFFFFFFFFFFFFFB4
:101C4000FFFFFFFFFFFFFFFFFFFFFFFFFFFFFFFFA4
:101C5000FFFFFFFFFFFFFFFFFFFFFFFFFFFFFFFF94
:101C6000FFB6000000FFFFFFFFFFFFFFFFFFFFFFCA
:101C7000FFFFFFFFFFFFFFFFFFFFFFFFFFFFFFFF74
:101C8000FFFFFFFFFFFFFFFFFFFFFFFFFFFFFFFF64
:101C9000FFFFFFFFFFFFFFFFFFFFFFFFFF00005BF6
:101CA000FFAD090049FFFFFFFFFFFFFFFFFFFFFF41
:101CB000FFFFFFFFFFFFFFFFFFFFFFFFFFFFFFFF34
:101CC000FFFFFFFFFFFFFFFFFFFFFFFFFFFFFFFF24
:101CD000FFFFFFFFFFFFFFFFFFFFFFFFFFB6FFFF5D
:101CE000FFFFFFFFFFFFFFFFFFFFFFFFFFFFFFFF04
:101CF000FFFFFFFFFFFFFFFFFFFFFFFFFFFFFFFFF4
:101D0000FFFFFFFFFFFFFFFFFFFFFFFFFFFFFFFFE3
:101D1000FFFFFFFFFFFFFFFFFFFFFFFFFFFFFFFFD3
:101D2000A400000000FFFFFFFFFFFFFFFFFFFFFF1A
:101D3000FFFFFFFFFFFFFFFFFFFFFFFFFFFFFFFFB3
:101D4000FFFFFFFFFFFFFFFFFFFFFFFFFFFFFFFFA3
:101D5000FFFFFFFFFFFFFFFFFFFFFFFFFF00000090
:101D600000A400FFF6FFFFFFFFFFFFFFFFFFFFFFE5
:101D7000FFFFFFFFFFFFFFFFFFFFFFFFFFFFFFFF73
:101D8000FFFFFFFFFFFFFFFFFFFFFFFFFFFFFFFF63
:101D9000FFFFFFFFFFFFFFFFFFFFFFFFFF0000F65A
:101DA0005B00000000FFFFFFFFFFFFFFFFFFFFFFE3
:101DB000FFFFFFFFFFFFFFFFFFFFFFFFFFFFFFFF33
:101DC000FFFFFFFFFFFFFFFFFFFFFFFFFFFFFFFF23
:101DD000FFFFFFFFFFFFFFFFFFFFFFFFFFA4FFFF6E
:101DE000FF5B009BB6FFFFFFFFFFFFFFFFFFFFFF53
:101DF000FFFFFFFFFFFFFFFFFFFFFFFFFFFFFFFFF3
:101E0000FFFFFFFFFFFFFFFFFFFFFFFFFFFFFFFFE2
:101E1000FFFFFFFFFFFFFFFFFFFFFFFFFF00005B74
:101E2000525B5B5B12FFFFFFFFFFFFFFFFFFFFFF48
:101E3000FFFFFFFFFFFFFFFFFFFFFFFFFFFFFFFFB2
:101E4000FFFFFFFFFFFFFFFFFFFFFFFFFFFFFFFFA2
:101E5000FFFFFFFFFFFFFFFFFFFFFFFFFF49F65BF5
:101E600000000000A4FFFFFFFFFFFFFFFFFFFFFFD9
:101E7000FFFFFFFFFFFFFFFFFFFFFFFFFFFFFFFF72
:101E8000FFFFFFFFFFFFFFFFFFFFFFFFFFFFFFFF62
:101E9000FFFFFFFFFFFFFFFFFFFFFFFFFF0000004F
:101EA0005BFFFFA400FFFFFFFFFFFFFFFFFFFFFF40
:101EB000FFFFFFFFFFFFFFFFFFFFFFFFFFFFFFFF32
:101EC000FFFFFFFFFFFFFFFFFFFFFFFFFFFFFFFF22
:101ED000FFFFFFFFFFFFFFFFFFFFFFFFFF0049FFC7
:101EE000FF5200A4FFFFFFFFFFFFFFFFFFFFFFFF09
:101EF000FFFFFFFFFFFFFFFFFFFFFFFFFFFFFFFFF2
:101F0000FFFFFFFFFFFFFFFFFFFFFFFFFFFFFFFFE1
:101F1000FFFFFFFFFFFFFFFFFFFFFFFFFF09005B6A
:101F2000FFFFFFFFFFFFFFFFFFF600005BFFFFFF6C
:101F3000FFFF00A4FFFFFFFFFFFF005BFFFFFFFFAE
:101F4000FFFF000000FFFFFFFFFF000000FFFFFF9B
:101F5000FFFF00A4FFFFFFFFFFF600A4FFFFFFFF4E
:101F6000FFB600A4FF5B5BEDF609005200FFFFFF28
:101F70005B0009FF09FFFFFF000052FF9B5BFFFFB3
:101F80000000A4FF645BFFFF000064FFADFFFFFFE4
:101F900049009BFFA4FFFFFFA40009FF5BFFFFFFB9
:101FA000FF5200AD4900FFA4004900A4FF00A46453
:101FB00000AD5200AD0009A400AD5200A40000A481
:101FC000005B0900B60000AD000000ADFF0049ADA8
:101FD00000AD005BFF00A4AD00AD5B00F609F6A408
:101FE00000A45B00ADFFFFFFA40000005BFFFFFF4C
:101FF000FFFF5B00F6FFFFFFFFFF5200F6FFFFFF52
:10200000FFFF5200ADFFFFFFFFFF5200ADFFFFFFDC
:10201000FFFF5200A4FFFFFFFFFF0900A4FFFFFF27
:10202000FFFF0900A45B5BFFFF6400FFB6FFFFFF3B
:10203000FFA400FFFFFFFFFFFFA4005B5BFFFFFFAC
:10204000FFA4000000FFFFFFFFA4000000FFFFFF50
:10205000FFA400A4A4FFFFFFFFA400645BFFFFFF39
:10206000FF6400A45B0000AD0000005B5B0009ADF5
:1020700000A4FFFFFF0049AD005BFFFFFF0009ADBB
:102080000000005BFF0049AD0000005BFF0000ADF9
:1020900000A4FFFFFF0000AD00A4FFFFFF0000ADA4
:1020A000005B5B5BADADFFFFFFA40009FFFFFFFF1F
:1020B000FFA40052FFFFFFFFFFA40052FFFFFFFF3E
:1020C000FFA4005BFFFFFFFFFFA400A4FFFFFFFFD3
:1020D000FFA40064FFFFFFFFFFAD005BF6FFFFFF03
:1020E000FFFFA400000000AD5B5B5B49005200AD48
:1020F000FFFFF600495B00F6FFFF520064A400B644
:10210000FFAD0000FF6400FFFF5B0052FF5200FFC5
:10211000FF0000A4FF0052FFAD0000F6B609B6FFB5
:102120005B00094900ADAD0000005B5BADFFAD0099
:10213000A4FFFFFFFFFFAD005BFFFFFFFFFFAD0050
:1021400000005BFFFFFFAD0000005BFFFFFFAD0085
:10215000A4FFFFFFFF52A400A4FFFFFFFF006400E5
:102160005B5B5BADFF09A4A400ADAD000009A4ADAD
:1021700000A4090052095BA400A4000064094900FE
:1021800000A40000AD0000005BAD0000F6000952A5
:1021900000F60000AD0052AD00AD5B005B0052A444
:1021A00000B6F60900520052FFA4005BFFF60000E3
:1021B000ADFF0949B6FF49005BFFA40052FF520082
:1021C00052FFFF0900FFA40049FFFF0900FF5B0069
:1021D0005BFF5B00A4FF4900ADF6005BFFB6005259
:1021E000FFA400ADFF0049FFFFFFFFFFFF00A4FFBA
:1021F000FFFFFFFFFF00FFFFFFFFFFFFFF52FFFF9B
:10220000FFFFFFFFFF09F6FFFFFFFFFFFF0009FFD2
:10221000FFFFFFFFFFA400A4FFFFFFFFFFAD005281
:10222000FFFFFFFFFFFFFFFFFFAD0052FFFFFFFFBC
:10223000FFFFFFFFFFFFFFFFFFFFFFFFFFFFFFFFAE
:10224000FFFFFFFFFFFFFFFFFFFFFFFFFFFFFFFF9E
:10225000FFFFFFFFFFFFFFFFFFFFFFFFFFFFFFFF8E
:10226000FFFFFFFFFFFFFFFFFFF6520000FFFFFF32
:10227000FFFFFFFFFFFFFFFFFFFFFFFFFFFFFFFF6E
:10228000FFFFFFFFFFFFFFFFFFFFFFFFFFFFFFFF5E
:10229000FFFFFFFFFFFFFFFFFFFFFFFFFFFFFFFF4E
:1022A000FFFFFFFFFFADFF5B005B5B005BFFFFFF1E
:1022B000FFFFFFFFFFFFFFFFFFFFFFFFFFFFFFFF2E
:1022C000FFFFFFFFFFFFFFFFFFFFFFFFFFFFFFFF1E
:1022D000FFFFFFFFFFFFFFFFFFFFFFFFFFFFFFFF0E
:1022E000FFFFFFFFFFFFFFFFFFFF490064FFFFFF4E
:1022F000FFFFFFFFFFFFFFFFFFFFFFFFFFFFFFFFEE
:10230000FFFFFFFFFFFFFFFFFFFFFFFFFFFFFFFFDD
:10231000FFFFFFFFFFFFFFFFFFFFFFFFFFFFFFFFCD
:10232000FFFFFFFFFFFFFFFFFFA400A452FFFFFF1F
:10233000FFFFFFFFFFFFFFFFFFFFFFFFFFFFFFFFAD
:10234000FFFFFFFFFFFFFFFFFFFFFFFFFFFFFFFF9D
:10235000FFFFFFFFFFFFFFFFFFFFFFFFFFFFFFFF8D
:10236000FFFFFFFFFF0000AD000000009BFFFFFF2D
:10237000FFFFFFFFFFFFFFFFFFFFFFFFFFFFFFFF6D
:10238000FFFFFFFFFFFFFFFFFFFFFFFFFFFFFFFF5D
:10239000FFFFFFFFFFFFFFFFFFFFFFFFFFFFFFFF4D
:1023A000FFFFFFFFFFFFFFFF4900000000FFFFFFEF
:1023B000FFFFFFFFFFFFFFFFFFFFFFFFFFFFFFFF2D
:1023C000FFFFFFFFFFFFFFFFFFFFFFFFFFFFFFFF1D
:1023D000FFFFFFFFFFFFFFFFFFFFFFFFFFFFFFFF0D
:1023E000FFFFFFFFFF00AD000000009BFFFFFFFFAE
:1023F000FFFFFFFFFFFFFFFFFFFFFFFFFFFFFFFFED
:10240000FFFFFFFFFFFFFFFFFFFFFFFFFFFFFFFFDC
:10241000FFFFFFFFFFFFFFFFFFFFFFFFFFFFFFFFCC
:10242000FFFFFFFFFF0000005BFFFFAD52FFFFFF5C
:10243000FFFFFFFFFFFFFFFFFFFFFFFFFFFFFFFFAC
:10244000FFFFFFFFFFFFFFFFFFFFFFFFFFFFFFFF9C
:10245000FFFFFFFFFFFFFFFFFFFFFFFFFFFFFFFF8C
:10246000FFFFFFFFFF0049B6FF0900F6FFFFFFFF78
:10247000FFFFFFFFFFFFFFFFFFFFFFFFFFFFFFFF6C
:10248000FFFFFFFFFFFFFFFFFFFFFFFFFFFFFFFF5C
:10249000FFFFFFFFFFFFFFFFFFFFFFFFFFFFFFFF4C
:1024A000FFFFFFFFFFAD0009FFFFFFFFFFFFFFFF83
:1024B000FFFFFFFFFFFFFFFFFFFFFFFFFFFFFFFF2C
:1024C000FFFFFFFFFFFFFFFFFFFFFFFFFFFFFFFF1C
:1024D000FFFFFFFFFFFFFFFFFFFFFFFFFFFFFFFF0C
:1024E000FFFFFFFFFF48484848484848484848FF22
:1024F000FF48FFFF4848FFFFFFFFFFFFFF48FFFFC8
:10250000FFFFFFFFFF4848FFFFFFFFFF4848484825
:10251000FFFFFF484848484848FF4848484848485F
:102520004848484848484848FFFF484848484848BD
:10253000FFFF484848484848FFFF4848484848483F
:10254000FFFFFFFFFF484848FFFFFFFFFF484848E5
:10255000FFFF484848484848FFFF4848484848481F
:10256000FFFF484848484848484848FFFF4848480F
:10257000484848FFFF484848484848FFFF484848FF
:10258000484848FFFF484848484848FFFF484848EF
:10259000484848FFFF484848484848FFFF484848DF
:1025A000484848FFFF484848FFFF484848484848CF
:1025B000FFFF484848484848FFFF484848FFFFFF9A
:1025C000FFFF484848FFFFFFFFFF4848484848488A
:1025D000484848484848484848484848484848487B
:1025E0004848484848484848FFFF484848484848FD
:1025F000FFFF484848484848FFFF484848FFFFFF5A
:10260000FFFF484848FFFFFFFFFF48484848484849
:10261000FFFF484848484848FFFF4848484848485E
:10262000FFFF4848484848484848484848484848BC
:1026300048484848484848484848484848FFFFFFF5
:10264000FFFF484848FFFFFFFFFF48484848484809
:10265000FFFF484848484848FFFF4848484848481E
:10266000FFFF484848484848484848FFFF4848480E
:102670004848FFFFFF48484848FFFFFF4848484890
:10268000FFFFFF48484848FFFFFF48484848FFFF12
:10269000FF48484848FFFFFF4848484848FFFF4870
:1026A0004848484848FFFF484848484848FFFFFF17
:1026B000484848484848FFFFFF484848484848FFBE
:1026C000FFFF484848484848FFFFFF4848484848F7
:1026D00048FFFFFF484848484848FFFFFF48484830
:1026E000484848FFFF48484848484848FF48484845
:1026F000484848FFFF4848484848FFFFFF484848C7
:1027000048FFFFFFFF484848FFFFFFFFFF4848FF23
:10271000FFFFFFFFFF48FFFFFFFFFFFFFFFFFFFF80
:10272000FFFFFFFFFF484848484848484848484896
:102730004848484848484848484848484848484819
:10274000484848484848484848FFFFFFFF4848482D
:1027500048FFFFFFFF48484848FFFFFFFF48484841
:1027600048FFFFFFFFFF48484848484848FFFF48E8
:102770004848484848FFFFFF4848484848FFFFFF8F
:10278000FF48484848FFFFFFFFFF484848FFFFFF5A
:10279000FFFFFF4848FFFFFFFFFFFFFF48FFFFFF6E
:1027A000FFFFFFFFFF48484848FFFFFFFF4848483A
:1027B00048FFFFFFFF48484848FFFFFFFF484848E1
:1027C00048FFFFFFFF4848484848484848484848AD
:1027D0004848484848484848484848484848484879
:1027E0004848484848FFFFFFFF48484848FFFFFF68
:1027F000FF48484848FFFFFFFF48484848FFFFFFA1
:10280000FF48484848484848484848484848484891
:102810004848484848484848484848484848484838
:102820004848484848FFFFFFFFFFFFFFFFFFFFFF4B
:10283000FFFFFFFFFF484848484848484848484885
:102840004848484848484848484848484848484808
:1028500048484848484848484848484848484848F8
:1028600048484848484848484848484848484848E8
:1028700048484848484848484848484848484848D8
:1028800048484848484848484848484848484848C8
:102890004848484848FFFFFFFFFFFFFFFFFFFFFFDB
:1028A000FFFFFFFFFF484848484848484848484815
:1028B0004848484848484848484848484848484898
:1028C0004848484848FFFFFFFF48484848FFFFFF87
:1028D000FF48484848FFFFFFFF48484848FFFFFFC0
:1028E000FF484848484848484848484848484848B1
:1028F000FFFFFF4848484848FFFFFF484848FFFFA0
:10290000FF48FFFFFF48FFFFFF48FFFFFF48484821
:1029100048FF484848484848FFFFFF48484848485B
:102920004848484848484848484848484848484827
:102930004848484848484848484848484848484817
:10294000FFFFFFFFFF484848FFFFFFFFFF484848E1
:10295000FFFF484848484848FFFF4848484848481B
:10296000FFFF484848484848484848484848484879
:1029700048484848484848484848484848FFFFFFB2
:10298000FFFFFFFFFFFFFFFFFFFFFFFFFF4848487C
:1029900048484848484848484848484848484848B7
:1029A0004848484848484848FFFF48484848484839
:1029B000FFFF484848484848FFFF484848FFFFFF96
:1029C000FFFFFFFFFFFFFFFFFFFFFFFFFF4848483C
:1029D000FFFF484848484848FFFF4848484848489B
:1029E000FFFF4848484848484848484848484848F9
:1029F00048484848484848FFFFFFFF484848FFFF0D
:102A0000FFFFFFFF4848FFFFFFFFFFFF4848FFFFB2
:102A1000FFFFFFFF484848FFFFFFFF48484848487E
:102A20004848484848484848484848484848484826
:102A30004848484848484848484848484848484816
:102A40004848484848FFFFFFFFFFFFFFFFFFFFFF29
:102A5000FFFFFFFFFFFFFFFFFFFFFFFFFFFFFFFF86
:102A6000FFFFFFFFFFFFFF484848484848FFFF4877
:102A70004848484848FFFF484848484848FFFF48FA
:102A80004848484848FFFF484848484848FFFF48EA
:102A90004848484848FFFF484848484848FFFF48DA
:102AA00048484848484848484848484848484848A6
:102AB00048484848484848484848484848FFFFFF71
:102AC000FFFFFFFFFFFFFFFFFFFFFFFFFF4848483B
:102AD000FFFF484848484848FFFF4848484848489A
:102AE000FFFF484848484848FFFF4848484848488A
:102AF000FFFF484848484848FFFF484848FFFFFF55
:102B0000FFFFFFFFFFFFFFFFFFFFFFFFFF484848FA
:102B10004848484848484848484848484848484835
:102B20004848484848FFFFFFFF48484848FFFFFF24
:102B3000FF48484848FFFFFFFF48484848FFFFFF5D
:102B4000FF48484848FFFFFFFF48484848FFFFFF4D
:102B5000FF48484848FFFFFFFF48484848FFFFFF3D
:102B6000FF48484848484848FFFF484848484848C0
:102B7000FFFF484848484848FFFF484848484848F9
:102B8000FFFFFFFFFF484848FFFFFFFFFF4848489F
:102B900048484848484848484848484848484848B5
:102BA000484848484848FFFFFFFF48484848FFFF5B
:102BB000484848484848FFFFFFFF48484848FFFF4B
:102BC000484848484848FFFFFFFFFFFF484848483B
:102BD000FFFF484848484848FFFFFFFF484848482B
:102BE0004848484848484848484848484848484865
:102BF000FFFF4848484848FFFFFFFF484848FFFF9D
:102C0000FFFFFFFF48484848FFFF484848484848FA
:102C1000FFFF484848484848FFFF48484848484858
:102C20004848484848484848484848484848484824
:102C3000FFFF484848484848FFFF48484848484838
:102C4000FFFF48484848FFFFFFFFFFFF484848FF95
:102C5000FFFFFF4848484848FFFF48484848484861
:102C600048484848484848484848484848484848E4
:102C7000FFFF4848484848FFFF4848484848FFFF8A
:102C8000FFFFFFFF484848FFFF484848484848487A
:102C9000FFFF484848484848484848484848484846
:102CA00048484848484848484848484848484848A4
:102CB000FFFF48484848484848FFFF484848FFFF4A
:102CC000FFFFFFFF4848484848FFFF48484848483A
:102CD000FFFF484848484848484848484848484806
:102CE0004848484848484848484848484848484864
:102CF0004848484848484848484848484848484854
:102D00004848484848484848484848484848484843
:102D10004848484848484848484848484848484833
:102D20004848484848484848484848484848484823
:102D3000FFFF484848484848FFFF48484848484837
:102D4000FFFF484848484848FFFF48484848484827
:102D50004848484848484848FFFF48484848484885
:102D60004848484848484848484848484848FFFF75
:102D70004848FFFF4848FFFF4848FFFF4848FFFF1B
:102D80004848FFFF48484848484848484848484855
:102D900048484848484848484848484848484848B3
:102DA0004848484848484848484848484848FFFF35
:102DB0004848FFFF48FFFFFFFFFFFFFFFF48FFFFFF
:102DC0004848FFFF4848FFFF4848FFFF48FFFFFF14
:102DD000FFFFFFFFFF48FFFF4848FFFF4848484804
:102DE0004848484848484848FFFF4848484848FF3E
:102DF000FFFFFFFF4848FFFF48484848484848FF52
:102E0000FFFFFF48484848484848FFFF4848FFFF41
:102E1000FFFFFF4848484848FFFF4848484848489F
:102E20004848484848484848484848484848FFFFB4
:102E30004848FFFF4848FFFF48FFFF4848484848C8
:102E4000FFFF4848484848FFFF4848484848FFFFB8
:102E50004848FFFF4848FF484848FFFF484848485F
:102E60004848484848484848FFFFFF48484848FF06
:102E7000FF48FFFF48484848FFFFFF48484848FFD1
:102E8000FFFF48484848FFFF48FFFFFFFF48FFFF9C
:102E90004848FFFF484848FFFFFF48FFFF484848B1
:102EA00048484848484848484848484848484848A2
:102EB000FFFF484848484848FFFF484848484848B6
:102EC000FFFF484848484848484848484848484814
:102ED0004848484848484848484848484848484872
:102EE0004848484848484848484848484848484862
:102EF00048FFFFFF48484848FFFFFF484848484808
:102F0000FFFF484848484848FFFF48484848484865
:102F1000FFFFFF484848484848FFFFFF48484848E7
:102F20004848484848484848484848484848FFFFB3
:102F3000FF484848484848FFFFFF48484848484835
:102F4000FFFF484848484848FFFF4848484848FF6E
:102F5000FFFF48484848FFFFFF484848484848485E
:102F60004848484848484848484848484848FFFF73
:102F70004848FFFF484848FFFFFFFF4848FFFFFF62
:102F8000FFFFFFFFFF4848FFFFFFFF484848FFFFE4
:102F90004848FFFF48484848484848484848484843
:102FA00048484848484848484848484848484848A1
:102FB000FFFF484848484848FFFF48484848FFFF47
:102FC000FFFFFFFF48484848FFFF48484848484837
:102FD000FFFF484848484848484848484848484803
:102FE0004848484848484848484848484848484861
:102FF0004848484848484848484848484848484851
:103000004848484848484848484848484848484840
:10301000FFFF484848484848FFFF4848484848FF9D
:10302000FF48484848484848484848484848484869
:103030004848484848484848484848484848FFFFA2
:10304000FFFFFFFF48484848484848484848484824
:1030500048484848484848484848484848484848F0
:1030600048484848484848484848484848484848E0
:1030700048484848484848484848484848484848D0
:1030800048484848484848484848484848484848C0
:10309000FFFF484848484848FFFF484848484848D4
:1030A00048484848484848484848484848484848A0
:1030B0004848FFFF4848484848FFFF4848484848B4
:1030C000FFFF4848484848FFFF4848484848FFFF36
:1030D000484848484848FF484848484848484848B9
:1030E000484848484848484848484848484848FFA9
:1030F000FFFFFF484848FFFF4848FFFF4848FFFFE1
:1031000048FFFFFF4848FFFFFF48FFFF4848FFFF19
:103110004848FFFF484848FFFFFFFF4848484848E5
:10312000484848484848484848484848484848481F
:10313000FFFF4848484848FFFFFF4848484848487C
:10314000FFFF484848484848FFFF48484848484823
:10315000FFFF48484848FFFFFFFFFFFF4848484837
:10316000484848484848484848484848484848FF28
:10317000FFFFFF484848FFFF4848FFFF48484848CE
:1031800048FFFF4848484848FFFF4848484848FF2C
:10319000FF4848484848FFFFFFFFFFFF48484848AE
:1031A0004848484848484848484848484848FFFF31
:1031B000FFFFFFFF4848484848FFFF484848484845
:1031C000FFFF48484848484848FFFF484848FFFF35
:1031D0004848FFFF484848FFFFFFFF484848484825
:1031E000484848484848484848484848484848485F
:1031F00048FFFF4848484848FFFFFF48484848FF05
:10320000FFFFFF484848FFFF48FFFF484848FFFFCF
:10321000FFFFFFFF4848484848FFFF4848484848E4
:103220004848484848484848484848484848FFFFB0
:10323000FFFFFFFF4848FFFF484848484848FFFF56
:10324000FFFFFF48484848484848FFFF4848FFFFFD
:103250004848FFFF484848FFFFFFFF4848484848A4
:10326000484848484848484848484848484848FF27
:10327000FFFFFF484848FFFF484848484848FFFFCD
:10328000FFFFFF484848FFFF4848FFFF4848FFFF4F
:103290004848FFFF484848FFFFFFFF484848484864
:1032A0004848484848484848484848484848FFFF30
:1032B000FFFFFFFF484848484848FFFF4848484844
:1032C00048FFFF4848484848FFFF4848484848FFEB
:1032D000FF484848484848FFFF4848484848484849
:1032E000484848484848484848484848484848FFA7
:1032F000FFFFFF484848FFFF4848FFFF484848FF96
:10330000FFFFFF484848FFFF4848FFFF4848FFFFCE
:103310004848FFFF484848FFFFFFFF4848484848E3
:10332000484848484848484848484848484848FF66
:10333000FFFFFF484848FFFF4848FFFF484848FF55
:10334000FFFFFFFF484848484848FFFF48484848B3
:1033500048FFFF48484848FFFFFF4848484848485A
:1033600048484848484848484848484848484848DD
:103370004848484848484848FFFF4848484848485F
:10338000FFFF48484848484848484848484848484F
:10339000FFFF484848484848FFFF484848484848D1
:1033A000484848484848484848484848484848489D
:1033B0004848484848484848FFFF4848484848481F
:1033C000FFFF48484848484848484848484848480F
:1033D000FFFF484848484848FFFF4848484848FFDA
:1033E000FF484848484848484848FFFF4848484838
:1033F00048FFFF4848484848FFFF4848484848FFBA
:10340000FF48484848484848FFFF48484848484817
:1034100048FFFF48484848484848FFFF4848484850
:10342000484848484848484848484848484848481C
:10343000484848484848FFFFFFFFFFFF48484848C2
:103440004848484848484848484848484848FFFF8E
:10345000FFFFFFFF48484848484848484848484810
:10346000484848484848FFFF48484848484848FFB7
:10347000FF48484848484848FFFF484848484848A7
:1034800048FFFF4848484848FFFF4848484848FF29
:10349000FF4848484848FFFF484848484848484887
:1034A000484848484848484848484848484848FFE5
:1034B000FFFFFF484848FFFF4848FFFF484848488B
:1034C00048FFFF4848484848FFFF484848484848A0
:1034D0004848484848484848FFFF484848484848FE
:1034E000484848484848484848484848484848FFA5
:1034F000FFFFFF484848FFFF4848FFFF4848FFFFDD
:1035000048FFFFFF4848FFFF48FFFFFF4848FFFF15
:1035100048484848484848FFFFFFFFFF4848484898
:10352000484848484848484848484848484848481B
:10353000FFFF4848484848FFFFFFFF484848FFFF53
:103540004848FFFF4848FFFF4848FFFF4848FFFF43
:10355000FFFFFFFF4848FFFF4848FFFF4848484833
:103560004848484848484848484848484848FFFF6D
:10357000FFFFFF484848FFFF4848FFFF4848FFFF5C
:10358000FFFFFF484848FFFF4848FFFF4848FFFF4C
:103590004848FFFF4848FFFFFFFFFF4848484848AA
:1035A000484848484848484848484848484848FFE4
:1035B000FFFFFF484848FFFF4848FFFF4848FFFF1C
:1035C000484848484848FFFF484848484848FFFF9F
:1035D0004848FFFF484848FFFFFFFF484848484821
:1035E0004848484848484848484848484848FFFFED
:1035F000FFFF48484848FFFF48FFFF484848FFFF93
:103600004848FFFF4848FFFF4848FFFF4848FFFF82
:1036100048FFFF484848FFFFFFFF484848484848E0
:103620004848484848484848484848484848FFFFAC
:10363000FFFFFFFF4848FFFF484848484848FFFF52
:10364000FFFFFF484848FFFF484848484848FFFFF9
:10365000484848484848FFFFFFFFFFFF48484848A0
:103660004848484848484848484848484848FFFF6C
:10367000FFFFFFFF4848FFFF484848484848FFFF12
:10368000FFFFFF484848FFFF484848484848FFFFB9
:10369000484848484848FFFF48484848484848483C
:1036A000484848484848484848484848484848FFE3
:1036B000FFFFFFFF4848FFFF484848484848FFFFD2
:1036C000484848484848FFFF48FFFFFF4848FFFF79
:1036D0004848FFFF484848FFFFFFFFFF4848484869
:1036E0004848484848484848484848484848FFFFEC
:1036F0004848FFFF4848FFFF4848FFFF4848FFFF92
:10370000FFFFFFFF4848FFFF4848FFFF4848FFFF13
:103710004848FFFF4848FFFF4848FFFF48484848DF
:103720004848484848484848484848484848FFFFAB
:10373000FFFFFFFF48484848FFFF484848484848BF
:10374000FFFF484848484848FFFF4848484848481D
:10375000FFFF48484848FFFFFFFFFFFF4848484831
:1037600048484848484848484848484848484848D9
:1037700048FFFFFF484848484848FFFF4848484836
:103780004848FFFF484848484848FFFF4848FFFF6F
:103790004848FFFF484848FFFFFFFF48484848485F
:1037A0004848484848484848484848484848FFFF2B
:1037B0004848FFFF4848FFFF48FFFF484848FFFFD1
:1037C000FFFF48484848FFFFFFFF48484848FFFFC1
:1037D00048FFFF484848FFFF4848FFFF484848481F
:1037E0004848484848484848484848484848FFFFEB
:1037F000484848484848FFFF484848484848FFFF6D
:10380000484848484848FFFF484848484848FFFF5C
:10381000484848484848FFFFFFFFFFFF48484848DE
:103820004848484848484848484848484848FFFFAA
:10383000484848FFFF48FFFFFF48FFFFFF48FFFFE2
:10384000FFFFFFFFFF48FFFF48FF48FFFF48FFFF64
:10385000484848FFFF48FFFF484848FFFF4848489E
:103860004848484848484848484848484848FFFF6A
:103870004848FFFF4848FFFFFF48FFFF4848FFFF59
:10388000FFFFFFFF4848FFFFFFFFFFFF4848FFFF24
:1038900048FFFFFF4848FFFF4848FFFF48484848A7
:1038A000484848484848484848484848484848FFE1
:1038B000FFFFFF484848FFFF4848FFFF4848FFFF19
:1038C0004848FFFF4848FFFF4848FFFF4848FFFFC0
:1038D0004848FFFF484848FFFFFFFF48484848481E
:1038E0004848484848484848484848484848FFFFEA
:1038F000FFFFFF484848FFFF4848FFFF4848FFFFD9
:103900004848FFFF4848FFFFFFFFFF484848FFFFC8
:10391000484848484848FFFF4848484848484848B9
:10392000484848484848484848484848484848FF60
:10393000FFFFFF484848FFFF4848FFFF4848FFFF98
:103940004848FFFF4848FFFF4848FFFF4848FFFF3F
:1039500048FFFF48484848FFFF48FFFF484848489D
:103960004848484848484848484848484848FFFF69
:10397000FFFFFF484848FFFF4848FFFF4848FFFF58
:103980004848FFFF4848FFFFFFFFFF484848FFFF48
:1039900048FFFF484848FFFF4848FFFF484848485D
:1039A000484848484848484848484848484848FFE0
:1039B000FFFFFF484848FFFF48484848484848FF3D
:1039C000FFFFFF48484848484848FFFF48484848E4
:1039D0004848FFFF484848FFFFFFFF48484848481D
:1039E0004848484848484848484848484848FFFFE9
:1039F000FFFFFFFF48484848FFFF484848484848FD
:103A0000FFFF484848484848FFFF4848484848485A
:103A1000FFFF484848484848FFFF4848484848484A
:103A20004848484848484848484848484848FFFFA8
:103A30004848FFFF4848FFFF4848FFFF4848FFFF4E
:103A40004848FFFF4848FFFF4848FFFF4848FFFF3E
:103A50004848FFFF4848FFFFFFFFFFFF484848482E
:103A60004848484848484848484848484848FFFF68
:103A70004848FFFF4848FFFF4848FFFF4848FFFF0E
:103A80004848FFFF4848FFFF4848FFFF484848FFB5
:103A9000FFFFFF4848484848FFFF48484848484813
:103AA0004848484848484848484848484848FFFF28
:103AB000484848FFFF48FFFF484848FFFF48FFFFCE
:103AC00048FF48FFFF48FFFFFFFFFFFFFF48FFFFE2
:103AD000FF48FFFFFF48FFFF484848FFFF484848AE
:103AE0004848484848484848484848484848FFFFE8
:103AF0004848FFFF4848FFFF4848FFFF484848FF45
:103B0000FFFFFF48484848FFFFFFFF484848FFFFC6
:103B10004848FFFF4848FFFF4848FFFF48484848DB
:103B20004848484848484848484848484848FFFFA7
:103B30004848FFFF4848FFFF4848FFFF484848FF04
:103B4000FFFFFF4848484848FFFF48484848484862
:103B5000FFFF484848484848FFFF48484848484809
:103B60004848484848484848484848484848FFFF67
:103B7000FFFFFFFF4848484848FFFF48484848487B
:103B8000FFFF4848484848FFFF4848484848FFFF6B
:103B9000484848484848FFFFFFFFFFFF484848485B
:103BA0004848484848484848484848484848484895
:103BB000FFFFFFFF48484848FFFF4848484848483B
:103BC000FFFF484848484848FFFF48484848484899
:103BD000FFFF484848484848FFFFFFFF484848481B
:103BE0004848484848484848484848484848FF489E
:103BF000484848484848FFFF48484848484848FF20
:103C0000FF48484848484848FFFF4848484848480F
:103C100048FFFF48484848484848FFFF4848484848
:103C20004848484848484848484848484848FFFFA6
:103C3000FFFF484848484848FFFF48484848484828
:103C4000FFFF484848484848FFFF48484848484818
:103C5000FFFF48484848FFFFFFFF4848484848489A
:103C600048484848484848484848484848484848D4
:103C700048FF484848484848FFFFFF48484848FF31
:103C8000FF48FFFF4848FFFF484848FFFF484848B3
:103C900048484848484848484848484848484848A4
:103CA0004848484848484848484848484848484894
:103CB0004848484848484848484848484848484884
:103CC0004848484848484848484848484848484874
:103CD0004848484848FFFFFFFFFFFFFFFF484848AC
:103CE0004848484848484848484848484848484854
:103CF000FFFF4848484848FFFFFFFF484848FFFF8C
:103D0000FFFFFFFF4848FFFFFFFFFFFF484848FF56
:103D1000FFFFFF4848484848FFFF48484848484890
:103D20004848484848484848484848484848484813
:103D300048484848484848FFFFFFFF484848484827
:103D40004848FFFF484848FFFFFFFFFF4848FFFF84
:103D50004848FFFF484848FFFFFFFFFF48484848E2
:103D60004848484848484848484848484848FFFF65
:103D7000484848484848FFFF484848484848FFFFE7
:103D8000FFFFFF484848FFFF4848FFFF4848FFFF44
:103D90004848FFFF4848FFFFFFFFFF4848484848A2
:103DA0004848484848484848484848484848484893
:103DB00048484848484848FFFFFFFF484848FFFF39
:103DC000484848484848FFFF484848484848FFFF97
:103DD00048484848484848FFFFFFFF484848484887
:103DE0004848484848484848484848484848484853
:103DF0004848FFFF484848484848FFFF484848FFB0
:103E0000FFFFFFFF4848FFFF4848FFFF4848FFFF0C
:103E10004848FFFF484848FFFFFFFFFF4848484821
:103E20004848484848484848484848484848484812
:103E300048484848484848FFFFFFFF484848FFFFB8
:103E40004848FFFF4848FFFFFFFFFFFF4848FFFFCC
:103E500048484848484848FFFFFFFF484848484806
:103E600048484848484848484848484848484848D2
:103E700048FFFFFF48484848FFFF4848484848FF78
:103E8000FFFFFFFF48484848FFFF48484848484868
:103E9000FFFF484848484848FFFF484848484848C6
:103EA0004848484848484848484848484848484892
:103EB00048484848484848FFFFFFFFFF4848FFFF81
:103EC0004848FFFF4848FFFF4848FFFF484848FF71
:103ED000FFFFFFFF484848484848FFFF4848FFFFAA
:103EE000FFFFFF4848484848484848484848FFFFBF
:103EF000484848484848FFFF484848484848FFFF66
:103F0000FFFFFF484848FFFF4848FFFF4848FFFFC2
:103F10004848FFFF4848FFFF4848FFFF48484848D7
:103F20004848484848484848484848484848484811
:103F3000FFFF48484848484848484848484848FFDC
:103F4000FFFF484848484848FFFF48484848484815
:103F5000FFFF4848484848FFFFFFFF484848484897
:103F600048484848484848484848484848484848D1
:103F70004848FFFF48484848484848484848484853
:103F80004848FFFF484848484848FFFF48484848D5
:103F90004848FFFF484848484848FFFF484848FF0E
:103FA000FFFFFF4848484848484848484848FFFFFE
:103FB000484848484848FFFF484848484848FFFFA5
:103FC00048FFFF484848FFFFFFFF48484848FFFFB9
:103FD00048FFFF484848FFFF4848FFFF4848484817
:103FE000484848484848484848484848484848FF9A
:103FF000FFFF484848484848FFFF48484848484865
:10400000FFFF484848484848FFFF48484848484854
:10401000FFFF4848484848FFFFFFFF4848484848D6
:104020004848484848484848484848484848484810
:10403000484848484848FFFF4848FFFF4848FFFFB6
:10404000FFFFFFFFFF48FFFFFFFFFFFFFF48FFFFEE
:1040500048FF48FFFF48FFFF484848FFFF484848DF
:1040600048484848484848484848484848484848D0
:10407000484848484848FFFFFFFFFF484848FFFFBF
:104080004848FFFF4848FFFF4848FFFF4848FFFFF8
:104090004848FFFF4848FFFF4848FFFF4848484856
:1040A0004848484848484848484848484848484890
:1040B00048484848484848FFFFFFFF484848FFFF36
:1040C0004848FFFF4848FFFF4848FFFF4848FFFFB8
:1040D0004848FFFF484848FFFFFFFF484848484816
:1040E0004848484848484848484848484848484850
:1040F000484848484848FFFFFFFFFF484848FFFF3F
:104100004848FFFF4848FFFF4848FFFF4848FFFF77
:10411000FFFFFF484848FFFF484848484848FFFF1E
:10412000484848484848484848484848484848480F
:1041300048484848484848FFFFFFFFFF4848FFFFFE
:104140004848FFFF4848FFFF4848FFFF484848FFEE
:10415000FFFFFFFF484848484848FFFF4848484895
:104160004848FFFF48484848484848484848484861
:10417000484848484848FFFFFFFFFF484848FFFFBE
:104180004848FFFF4848FFFF484848484848FFFF65
:10419000484848484848FFFF484848484848484831
:1041A000484848484848484848484848484848488F
:1041B00048484848484848FFFFFFFFFF4848FFFF7E
:1041C00048484848484848FFFFFFFF484848484893
:1041D0004848FFFF4848FFFFFFFFFF48484848485E
:1041E000484848484848484848484848484848484F
:1041F000FFFF48484848FFFFFFFFFFFF4848484887
:10420000FFFF484848484848FFFF48484848484852
:10421000FFFF48484848484848FFFFFF484848488B
:10422000484848484848484848484848484848480E
:10423000484848484848FFFF4848FFFF4848FFFFB4
:104240004848FFFF4848FFFF4848FFFF4848FFFF36
:104250004848FFFF484848FFFFFFFFFF48484848DD
:1042600048484848484848484848484848484848CE
:10427000484848484848FFFF4848FFFF4848FFFF74
:104280004848FFFF4848FFFF4848FFFF484848FFAD
:10429000FFFFFF4848484848FFFF4848484848480B
:1042A000484848484848484848484848484848488E
:1042B000484848484848FFFF484848FFFF48FFFF34
:1042C00048FF48FFFF48FFFFFFFFFFFFFF4848FF91
:1042D000FFFFFFFF484848FFFF48FFFF48484848A6
:1042E000484848484848484848484848484848484E
:1042F000484848484848FFFF4848FFFF484848FFAB
:10430000FFFFFF4848484848FFFF4848484848FFE3
:10431000FFFFFF484848FFFF4848FFFF484848481C
:10432000484848484848484848484848484848480D
:10433000484848484848FFFF4848FFFF4848FFFFB3
:104340004848FFFF4848FFFF4848FFFF484848FFEC
:10435000FFFFFFFF4848484848FFFF484848FFFF25
:10436000FFFF48484848484848484848484848485F
:10437000484848484848FFFFFFFFFFFF4848484873
:1043800048FFFF4848484848FFFF4848484848FF1A
:10439000FF4848484848FFFFFFFFFFFF484848489C
:1043A000484848484848484848484848484848488D
:1043B000FFFF4848484848FFFFFFFF484848FFFFC5
:1043C000FFFFFFFF4848FFFFFFFFFFFF4848484847
:1043D000FFFF4848484848FFFFFFFF484848484813
:1043E0004848484848484848FFFF484848484848DF
:1043F000FFFF484848484848FFFF48484848484861
:10440000FFFF484848484848FFFF48484848484850
:10441000FFFF484848484848FFFF48484848484840
:10442000FFFF484848484848484848484848FFFF30
:10443000FFFFFFFF4848FFFFFFFF48484848FFFFD6
:10444000FFFFFF484848FFFF48FFFFFF4848FFFFC6
:104450004848FFFF484848484848FFFF4848484800
:10446000484848484848484848FF48484848484815
:10447000FFFF4848484848FFFFFF48484848FFFFBB
:10448000FFFF4848484848FFFFFF48484848484819
:10449000FFFF48484848484848FF48484848484877
:1044A0004848484848484848FF48484848484848D5
:1044B000FFFF484848484848FFFFFF4848484848E9
:1044C000FFFFFFFF48484848FFFFFF48484848486B
:1044D000FFFF484848484848FF4848484848484837
:1044E00048484848480C0C15161616161616161687
:1044F0001616171B1C1D1E1E1C1D1E1E1C1D1F1B01
:1045000026271E1E26271E1E26271F1B1E1E1E1E9A
:104510001E1E1E1E1E1E1F1B1E1E1E1E1E1E1E1EBD
:104520001E1E1F1B1C1D1E1E1C1D1E1E1C1D1F1BB8
:1045300026271E1E26271E1E26271F1B1E1E1E1E6A
:104540001E1E1E1E1E1E1F1B1E1E1E1E1E1E1E1E8D
:104550001E1E1F1B1C1D1E1E1C1D1E1E1C1D1F1B88
:1045600026271E1E26271E1E26271F3435353535C5
:104570003535353535353602021C1D262702022118
:10458000222829020223242A2B02022C2D30310258
:10459000022E2F323308010D0E0F101112131418B2
:1045A000010D024E01013F01013F010100000D0319
:1045B0004E01013F01013F01010A063A3B3B3B3BF3
:1045C0003B3B3B3B3C3D3E131011100E3F00403D3A
:1045D0000000000000000000403D00460000000018
:1045E0004700403D0000000000000000404B4C4CE4
:1045F0004C4C4C4C4C4C4D0A063A3B3B3B3B3B3BFA
:104600003B3B3C3D000D1141420E4300403D00004C
:10461000440D00450000403D003E0E1041480F0093
:10462000403D000049414A100000404B4C4C4C4C6E
:104630004C4C4C4C4D4848484848484848484848E5
:1046400048484848484848484848484848484848EA
:1046500048484848484848484848484848484848DA
:1046600048484848484848484848484848484848CA
:10467000484848484848484848484848484848FF03
:10468000FFFFFF484848FFFF4848FFFF4848FFFF3B
:1046900048FFFFFF4848FFFFFF48FFFF4848FFFF74
:1046A0004848FFFF484848FFFFFFFF484848484840
:1046B000484848484848484848484848484848487A
:1046C000FFFF4848484848FFFFFF484848484848D7
:1046D000FFFF484848484848FFFF4848484848487E
:1046E000FFFF48484848FFFFFFFFFFFF4848484892
:1046F000484848484848484848484848484848FF83
:10470000FFFFFF484848FFFF4848FFFF4848484828
:1047100048FFFF4848484848FFFF4848484848FF86
:10472000FF4848484848FFFFFFFFFFFF4848484808
:104730004848484848484848484848484848FFFF8B
:10474000FFFFFFFF4848484848FFFF48484848489F
:10475000FFFF48484848484848FFFF484848FFFF8F
:104760004848FFFF484848FFFFFFFF48484848487F
:1047700048484848484848484848484848484848B9
:1047800048FFFF4848484848FFFFFF48484848FF5F
:10479000FFFFFF484848FFFF48FFFF484848FFFF2A
:1047A000FFFFFFFF4848484848FFFF48484848483F
:1047B0004848484848484848484848484848FFFF0B
:1047C000FFFFFFFF4848FFFF484848484848FFFFB1
:1047D000FFFFFF48484848484848FFFF4848FFFF58
:1047E0004848FFFF484848FFFFFFFF4848484848FF
:1047F000484848484848484848484848484848FF82
:10480000FFFFFF484848FFFF484848484848FFFF27
:10481000FFFFFF484848FFFF4848FFFF4848FFFFA9
:104820004848FFFF484848FFFFFFFF4848484848BE
:104830004848484848484848484848484848FFFF8A
:10484000FFFFFFFF484848484848FFFF484848489E
:1048500048FFFF4848484848FFFF4848484848FF45
:10486000FF484848484848FFFF48484848484848A3
:10487000484848484848484848484848484848FF01
:10488000FFFFFF484848FFFF4848FFFF484848FFF0
:10489000FFFFFF484848FFFF4848FFFF4848FFFF29
:1048A0004848FFFF484848FFFFFFFF48484848483E
:1048B000484848484848484848484848484848FFC1
:1048C000FFFFFF484848FFFF4848FFFF484848FFB0
:1048D000FFFFFFFF484848484848FFFF484848480E
:1048E00048FFFF48484848FFFFFF484848484848B5
:1048F000484848484848484848FF48484848484881
:10490000FFFF4848484848FFFFFF48484848FFFF26
:10491000FFFF4848484848FFFFFF48484848484884
:10492000FFFF48484848484848FF484848484848E2
:104930004848484848484848FF4848484848484840
:10494000FFFF484848484848FFFFFF484848484854
:10495000FFFFFFFF48484848FFFFFF4848484848D6
:10496000FFFF484848484848FF48484848484848A2
:104970004848484848484848484848484848FFFF49
:10498000FFFFFF484848FFFF4848FFFF4848FFFF38
:104990004848FFFF4848FFFFFFFFFF484848FFFF28
:1049A000484848484848FFFF484848484848484819
:1049B0004848484848484848484848484848484877
:1049C00048484848484848FFFFFFFF484848FFFF1D
:1049D0004848FFFF4848FFFFFFFFFFFF4848FFFF31
:1049E00048484848484848FFFFFFFF48484848486B
:1049F0004848484848484848484848484848484837
:104A0000484848484848FFFFFFFFFF484848FFFF25
:104A10004848FFFF4848FFFF4848FFFF4848FFFF5E
:104A20004848FFFF4848FFFF4848FFFF48484848BC
:104A300048484848484848484848484848484848F6
:104A4000FFFF48484848FFFFFFFFFFFF484848482E
:104A5000FFFF484848484848FFFF484848484848FA
:104A6000FFFF48484848484848FFFFFF4848484833
:104A700048484848484848484848484848484848B6
:104A800048484848484848FFFFFFFF4848484848CA
:104A90004848FFFF484848FFFFFFFFFF4848FFFF27
:104AA0004848FFFF484848FFFFFFFFFF4848484885
:104AB0004848484848484848484848484848484876
:104AC00048484848484848FFFFFFFFFF4848FFFF65
:104AD0004848FFFF4848FFFF4848FFFF484848FF55
:104AE000FFFFFFFF484848484848FFFF4848FFFF8E
:104AF000FFFFFF4848484848484848484848484811
:104B000048484848484848FFFFFFFF484848FFFFDB
:104B10004848FFFF4848FFFF4848FFFF4848FFFF5D
:104B20004848FFFF484848FFFFFFFF4848484848BB
:104B300048484848484848484848484848484848F5
:104B4000FFFF484848484848FFFF48484848484809
:104B5000FFFF484848484848FFFF484848484848F9
:104B60004848484848484848FFFF48484848484857
:104B700048484848480000000000000000000000CD
:104B8000000000000000006E6E6E6E6E6E00006E23
:104B90006E6E6E6E6E00006E6E6E6E6E6E00006EED
:104BA0006E6E6E6E6E00006E6E6E6E6E6E00006EDD
:104BB0006E6E6E6E6E0000000000000000000000CF
:104BC00000000000006E6E6E6E6E6E6E6E6E6E6E2B
:104BD0006E6E6E6E6E6E6E6E6E6E6E6E6E6E6E6EF5
:104BE0006E6E6E6E6E6E6E6E6E6E6E6E6E6E6E6EE5
:104BF0006E6E6E6E6E00000000000000000000008F
:104C000000000000006E6E6E6E6E6E00006E6E6EC6
:104C10006E6E6E00006E6E6E6E6E6E00006E6E6E6C
:104C20006E6E6E00006E6E6E6E6E6E00006E6E6E5C
:104C30006E6E6E0000292929292929292929292967
:104C4000292929292929296E6E6E6E6E6E29296EF1
:104C50006E6E6E6E6E29296E6E6E6E6E6E29296E88
:104C60006E6E6E6E6E29296E6E6E6E6E6E29296E78
:104C70006E6E6E6E6E29292929292929292929294B
:104C800029292929296E6E6E6E6E6E6E6E6E6E6E9D
:104C90006E6E6E6E6E6E6E6E6E6E6E6E6E6E6E6E34
:104CA0006E6E6E6E6E6E6E6E6E6E6E6E6E6E6E6E24
:104CB0006E6E6E6E6E29292929292929292929290B
:104CC00029292929296E6E6E6E6E6E29296E6E6EE7
:104CD0006E6E6E29296E6E6E6E6E6E29296E6E6E08
:104CE0006E6E6E29296E6E6E6E6E6E29296E6E6EF8
:104CF0006E6E6E292900006E6E6E6E6E6E00006E16
:104D00006E6E6E6E6E00006E6E6E6E6E6E00006E7B
:104D10006E6E6E6E6E00006E6E6E6E6E6E00006E6B
:104D20006E6E6E6E6E00006E6E6E6E6E6E00006E5B
:104D30006E6E6E6E6E6E6E6E6E6E0000006E6E6EDD
:104D400000001C1C1C6E6E001C1C1C641C6E001CD5
:104D50001C1C641C646E001C5C241C241C001C2491
:104D60001C5C645C24005C1C641C24245D001C64CA
:104D70001C245C65240000006E6E6E6E6E1C641C4C
:104D800000006E6E6E641C642564006E6E1C6425EB
:104D9000642465006E652464656565006E64652540
:104DA000642565650024256465656D650065646539
:104DB00025656565006E6E6E6E6E6E6E6E6E6E6EE5
:104DC0006E6E6E6E6E6E6E6E6E6E6E6E6E6E6E6E03
:104DD0006E6E6E6E6E6E6E6E6E6E6E6E6E6E6E6EF3
:104DE0006E6E6E6E6E6E6E6E6E6E6E6E6E6E6E6EE3
:104DF0006E6E6E6E6E6E6E6E6E6E6E00006E6E6EAF
:104E00006E6E6E00006E6E6E6E6E6E00006E6E6E7A
:104E10006E6E6E00006E6E6E6E6E6E00006E6E6E6A
:104E20006E6E6E00006E6E6E6E6E6E00006E6E6E5A
:104E30006E6E6E000029296E6E6E6E6E6E29296E82
:104E40006E6E6E6E6E29296E6E6E6E6E6E29296E96
:104E50006E6E6E6E6E29296E6E6E6E6E6E29296E86
:104E60006E6E6E6E6E29296E6E6E6E6E6E29296E76
:104E70006E6E6E6E6E6E6E6E6E6E0000006E6E6E9C
:104E800000004909496E6E0052491249526E0051A4
:104E9000094A0949096E004A09FFFF0949004911F9
:104EA00049FF49090900114A4909094949004A4984
:104EB00009094909090000006E6E6E6E6E09490904
:104EC00000006E6E6E0949094909006E6E49094974
:104ED000090909006E090909490940006E49490993
:104EE00009010908000909410849000100090908E8
:104EF00001080108006E6E6E6E6E0000006E6E6E30
:104F00000000FFFFFF6E6E00FFFFFFFFFF6E00FF60
:104F1000FFFFFFFEF76E00FFFFFFFFF7FE00FFFF42
:104F2000FFFFFEF7BE00FFFFF6FFF7FEF700FFFFF3
:104F3000FFF7FEB7F60000006E6E6E6E6EFFFFFFAD
:104F400000006E6E6EFFF6F6FFF6006E6EFEF7BFA7
:104F5000F6B6F6006EF7BEF6F6F6B6006EF6F6B6E4
:104F6000F6B6F6B600BEF7F6B6F6B6F600F6F6B644
:104F7000F6B6F6AD006E6E6E6E6E6E29296E6E6EB2
:104F80006E6E6E29296E6E6E6E6E6E29296E6E6E55
:104F90006E6E6E29296E6E6E6E6E6E29296E6E6E45
:104FA0006E6E6E29296E6E6E6E6E6E29296E6E6E35
:104FB0006E6E6E292900241C6465246564005C24DF
:104FC0001C6524652500256465246565646E0064A0
:104FD00025646525656E002564652565656E6E0032
:104FE0006565656D656E6E6E000065656D6E6E6EF5
:104FF0006E6E000000652565656D656D0065656D0B
:1050000065656D65006565656D656D6D002D656D2A
:10501000656D6D006E656D656D6D66006E6D656DBF
:105020006E6D006E6E656D6D00006E6E6E00000040
:105030006E6E6E6E6E0009094949094909004909F9
:10504000090909090900094949490940096E000986
:1050500009090909096E004909490040016E6E00FD
:1050600009000909006E6E6E00000800086E6E6E81
:105070006E6E0000004900490001080000000900B0
:1050800009000000004900090009000000000900B3
:10509000000000006E080000080000006E0108011A
:1050A0000000006E6E00000000006E6E6E000000DA
:1050B0006E6E6E6E6E00FFF6FEB6F6F6F600FFF749
:1050C000FFF6BFF6B600F6FEB6F6F6B6F66E00B61A
:1050D000F7F6B6F6F66E00F6F6B6F6B6B66E6E00F3
:1050E000F6B6F6B6ED6E6E6E0000ADF6B66E6E6E8E
:1050F0006E6E000000B6B6F6B6F5AEB500F6F6B6C2
:10510000EEB6EDAE00B6B6F6B5AEB5AD00B6F6ADE0
:10511000AEF5AD006EEDADB6EDADAD006EB6EDAD7C
:10512000B5AE006E6EADB6AD00006E6E6E000000E6
:105130006E6E6E6E6E6E6E6E6E6E2929296E6E6E5E
:1051400029294909496E6E2952491249526E29513D
:10515000094A0949096E294A09FFFF0949294911E4
:1051600049FF49090929114A4909094949294A496F
:1051700009094909092929296E6E6E6E6E094909C6
:1051800029296E6E6E0949094909296E6E49094936
:10519000090909296E090909490940296E4949097E
:1051A00009010908290909410849000129090908D3
:1051B00001080108296E6E6E6E6E2929296E6E6EC9
:1051C0002929FFFFFF6E6E29FFFFFFFFFF6E29FFFA
:1051D000FFFFFFFEF76E29FFFFFFFFF7FE29FFFF2E
:1051E000FFFFFEF7BE29FFFFF6FFF7FEF729FFFFDF
:1051F000FFF7FEB7F62929296E6E6E6E6EFFFFFF70
:1052000029296E6E6EFFF6F6FFF6296E6EFEF7BF69
:10521000F6B6F6296EF7BEF6F6F6B6296EF6F6B6CF
:10522000F6B6F6B629BEF7F6B6F6B6F629F6F6B62F
:10523000F6B6F6AD29290909494909490929490953
:10524000090909090929094949490940096E290932
:1052500009090909096E294909490040016E6E29A9
:1052600009000909006E6E6E29290800086E6E6E2D
:105270006E6E29292949004900010800290009000A
:10528000090000002949000900090000290009005F
:10529000000000296E080000080000296E010801C6
:1052A0000000296E6E00000029296E6E6E292929E2
:1052B0006E6E6E6E6E29FFF6FEB6F6F6F629FFF7F5
:1052C000FFF6BFF6B629F6FEB6F6F6B6F66E29B6C6
:1052D000F7F6B6F6F66E29F6F6B6F6B6B66E6E299F
:1052E000F6B6F6B6ED6E6E6E2929ADF6B66E6E6E3A
:1052F0006E6E292929B6B6F6B6F5AEB529F6F6B61C
:10530000EEB6EDAE29B6B6F6B5AEB5AD29B6F6AD8C
:10531000AEF5AD296EEDADB6EDADAD296EB6EDAD28
:10532000B5AE296E6EADB6AD29296E6E6E292929EE
:105330006E6E6E6E6E00006E6E6E6E6E6E00006E45
:105340006E6E6E6E6E00006E6E6E6E6E6E00006E35
:105350006E6E6E6E6E00006E6E6E6E6E6E00006E25
:105360006E6E6E6E6E000000000000000000000017
:1053700000000000006E6E6E6E6E6E6E6E6E6E6E73
:105380006E6E6E6E6E6E6E6E6E6E6E6E6E6E6E6E3D
:105390006E6E6E6E6E6E6E6E6E6E6E6E6E6E6E6E2D
:1053A0006E6E6E6E6E0000000000000000000000D7
:1053B00000000000006E6E6E6E6E6E00006E6E6E0F
:1053C0006E6E6E00006E6E6E6E6E6E00006E6E6EB5
:1053D0006E6E6E00006E6E6E6E6E6E00006E6E6EA5
:1053E0006E6E6E0000000000000000000000000073
:1053F000000000000029296E6E6E6E6E6E29296E07
:105400006E6E6E6E6E29296E6E6E6E6E6E29296ED0
:105410006E6E6E6E6E29296E6E6E6E6E6E29296EC0
:105420006E6E6E6E6E292929292929292929292993
:1054300029292929296E6E6E6E6E6E6E6E6E6E6EE5
:105440006E6E6E6E6E6E6E6E6E6E6E6E6E6E6E6E7C
:105450006E6E6E6E6E6E6E6E6E6E6E6E6E6E6E6E6C
:105460006E6E6E6E6E292929292929292929292953
:1054700029292929296E6E6E6E6E6E29296E6E6E2F
:105480006E6E6E29296E6E6E6E6E6E29296E6E6E50
:105490006E6E6E29296E6E6E6E6E6E29296E6E6E40
:1054A0006E6E6E292929292929292929292929299D
:1054B00029292929296E6E6E6E6EFFFFFF6E6E6EB2
:1054C000FFFF4848486E6EFF48484848486EFF480E
:1054D00048484848486EFF48484848FFFFFF48484A
:1054E0004848FF4848FF484848FF484848FF484860
:1054F00048FF484848FFFFFFFFFFFFFFFF484848BD
:10550000484848484848484848484848484848481B
:105510004848484848FFFFFFFFFFFFFFFF48484853
:1055200048484848484848484848484848484848FB
:105530004848484848FFFFFF6E6E6E6E6E48484808
:10554000FFFF6E6E6E4848484848FF6E6E484848F8
:10555000484848FF6EFFFF48484848FF6E4848FFEC
:1055600048484848FF484848FF484848FF48484896
:10557000FF484848FFFF484848FF484848FF484818
:1055800048FF484848FF484848FF484848FF4848BF
:1055900048FF484848FF484848FF484848FF4848AF
:1055A00048FF484848FF484848FF484848FF48489F
:1055B00048FF484848484848484848484848FFFF46
:1055C000FFFFFF484848FFFF4848FFFF4848FFFFEC
:1055D0004848FFFF4848FFFFFFFFFF484848FFFFDC
:1055E00048FFFF484848FFFF4848FFFF48484848F1
:1055F000484848484848484848484848484848482B
:105600004848484848484848FFFF484848484848AC
:10561000FFFF48484848484848484848484848489C
:10562000FFFF484848484848FFFF4848484848481E
:105630004848484848484848FF484848FF4848487C
:10564000FF484848FF484848FF484848FF484848FE
:10565000FF484848FF484848FF484848FF484848EE
:10566000FF484848FF484848FF484848FF484848DE
:10567000FF484848FF48484848484848484848483C
:10568000484848484848FFFF4848FFFF4848FFFF50
:105690004848FFFF4848FFFF4848FFFF4848FFFFD2
:1056A0004848FFFF484848FFFFFFFFFF4848484879
:1056B000484848484848484848484848484848486A
:1056C00048484848484848FFFFFFFFFF4848FFFF59
:1056D00048484848484848FFFFFFFF48484848486E
:1056E0004848FFFF4848FFFFFFFFFF484848484839
:1056F000484848484848484848484848484848482A
:105700004848FFFF484848484848FFFF484848FF86
:10571000FFFFFFFF4848FFFF4848FFFF4848FFFFE3
:105720004848FFFF484848FFFFFFFFFF48484848F8
:1057300048484848484848484848484848484848E9
:1057400048FFFFFF48484848FFFFFF48484848488F
:10575000FFFF484848484848FFFF484848484848ED
:10576000FFFFFF484848484848FFFFFF484848486F
:105770004848484848484848484848484848FFFF3B
:10578000FF484848484848FFFFFF484848484848BD
:10579000FFFF484848484848FFFF4848484848FFF6
:1057A000FFFF48484848FFFFFF48484848484848E6
:1057B0004848484848484848484848484848FFFFFB
:1057C000FFFFFFFF48484848FFFFFFFF484848FFEA
:1057D000FFFFFFFF4848FFFFFF48FFFF4848FFFF6C
:1057E0004848FFFF4848FFFF48484848484848485D
:1057F0004848484848484848484848484848FFFFBB
:10580000FFFFFFFF4848FFFFFFFF48484848FFFFF2
:10581000FFFFFF484848FFFF48FFFFFF4848FFFFE2
:105820004848FFFF484848484848FFFF484848481C
:1058300048484848484848484848484848484848E8
:10584000484848484848FFFFFFFFFF484848FFFFD7
:105850004848FFFF4848FFFF484848484848FFFF7E
:10586000484848484848FFFF48484848484848484A
:10587000484848484848484848484848484848FFF1
:10588000FFFFFF484848FFFF4848FFFF4848FFFF29
:105890004848FFFF4848FFFF4848FFFF4848FFFFD0
:1058A00048FFFF48484848FFFF48FFFF484848482E
:1058B0004848484848484848484848484848484868
:1058C000FFFF48484848484848484848484848FF33
:1058D000FFFF484848484848FFFF4848484848486C
:1058E000FFFF4848484848FFFFFFFF4848484848EE
:1058F0004848484848FF484848FF484848FF484803
:1059000048FF484848FF48484848FF48486EFF4815
:10591000484848FFFF6EFF4848484848486E6EFFB9
:1059200048484848486E6E6EFFFF4848486E6E6EA5
:105930006E6EFFFFFF484848484848484848484876
:1059400048484848484848484848484848FFFFFFB2
:10595000FFFFFFFFFF484848484848484848484834
:1059600048484848484848484848484848FFFFFF92
:10597000FFFFFFFFFF484848FF484848FF484848A6
:10598000FF484848FF4848FF48484848FFFFFF484D
:10599000484848FF6E484848484848FF6E484848CD
:1059A0004848FF6E6E484848FFFF6E6E6EFFFFFF6F
:1059B0006E6E6E6E6E4848484848484848484848A9
:1059C000FFFF48484848484848FFFF484848FFFF0D
:1059D000FFFFFFFF4848484848FFFF4848484848FD
:1059E000FFFF4848484848484848484848484848C9
:1059F00048484848484848484848484848FFFFFF02
:105A0000FFFFFFFFFF484848484848484848484883
:105A10004848484848484848484848484848484806
:105A200048484848484848484848484848484848F6
:105A300048484848480011241FBECFEFD0E1DEBFE0
:105A4000CDBF14BE88E10FB6F89480936000109229
:105A500060000FBE13E0A0E0B1E0E0E4F6E902C0B0
:105A600005900D92A83EB107D9F71BE0A0E0B4E085
:105A700001C01D92AD33B107E1F70E945938882368
:105A800011F40E946F38F894EDE2F8E080E090E0C5
:105A900020E802C02193019632E08C309307D4F3C2
:105AA0008DE298E090933A0A8093390A10923B0A6B
:105AB000EEE3FAE080E090E003C0108201963A96AF
:105AC00084309105D4F39093870A8093860A91E0FD
:105AD00090935E0A90935F0A90935D0A1092810002
