:100000000C948F330C9434340C9434340C94343476
:100010000C9434340C9434340C9434340C943434C0
:100020000C9434340C9434340C9434340C943434B0
:100030000C9434340C9479360C9434340C94343459
:100040000C9434340C9434340C9434340C94343490
:100050000C9434340C9434340C9434340C94343480
:100060000C9434340C9434340C9434340C94343470
:100070005A5501200201003808000000000000006D
:1000800000000000006240704040411B4505457380
:100090004082409140EB449F40AD40000208000880
:1000A0005504085A0000F8000990000A1E320500A5
:1000B00000FF0000009B00000000000000000000A6
:1000C0000000000000000000000000000000000030
:1000D0000000000000000000000000000000000020
:1000E0000000000000000000000000000000000010
:1000F0000000000000000000000000000000000000
:1001000000000000000000000000000000000000EF
:100110000000000000000000000049000000000096
:100120004952520000004952531C250049525224A2
:1001300025251B52525C2D2D1C12120000000000C0
:100140000000000000000040494949004049495270
:100150005B5B5B4A52525B1C1C13125B1C241C121F
:10016000090909241B12090909090A0A0A0A0A0AC3
:100170000A0A130A0A120A0A12130A0000000000EF
:100180000000009252525252525249131213090067
:100190001C1B130A1212401B65641C090A00092467
:1001A0001B1C65120000251C1C1C1C010025241CA6
:1001B0001C1C1C0024252424241C1C0000000000FE
:1001C00000000049400000000000005249490000C2
:1001D0000000001C5B4A48000000001C255249003A
:1001E00000000065246449000000006525644900A2
:1001F0000000006D2E5C49000000000000000000BF
:10020000004052000000000049525C000000005312
:10021000522425000000535225252500004A52256E
:10022000251B0000005B251300001B005B53000A28
:100230001C3737095B1C657F372E2E522E2E1C1360
:100240001312002E251B13120000121C1C1200009A
:1002500012251C120000122E371C1300132E3736E5
:100260001C131B37372E2E25131C1C2E2E2E2E1B37
:100270001C1C1C6E6E6E1C1C1C1C1C091313121201
:1002800013130013131313131C0009131313131C5C
:100290000100371313131C13002E2E1B1B1C1C00F4
:1002A0001C772E1B1B2500137F251C1C1C010A37E5
:1002B000241C1C1C130A2E25250900132E24252579
:1002C0002525252E2525252525252525252D2E25C4
:1002D0001B1C1C2E2E251C13251B13251C1C1C1C33
:1002E0000109521C1C1300011C5B5C0A00016577AC
:1002F0005C1B00016E7F6E521B00006D1C5249009A
:100300000000001C135300000000001C524A0000B3
:100310000000005B5B0000000000005C00000000CB
:1003200000000000000000000000000000000000CD
:100330000000000000000000000000135B7F776EEB
:100340006E6E6E136577766E6E6E6E1B6577767663
:10035000766E771B5BBF76B676767609136DBFB780
:10036000B6B765001B125C76BF766D0000121B12DB
:100370005B5B5C00000000090A12136E77241C1CF2
:100380001C1C1C77251C1C1C1C24256E1C1C1C24DE
:1003900025251B1C1C242525130000646D6D1B00E6
:1003A000096EBF6D5B09126EBF6D5B5B125B645BB8
:1003B000121312131B1212090100001C242E1C0917
:1003C00000096E2524010009767F7F000012777FE7
:1003D0007F641264BFBF775B121B09BF6D5B121B8A
:1003E00009000012131B09000000000900000000B2
:1003F00000000000000000000000007F7F53131386
:1004000000000064121B01000000001B120000002D
:1004100000000000000000000000000000000000DC
:1004200000000000000000000000000000000000CC
:1004300000000000000000000000000000000000BC
:1004400000000026000000260026262F0000002FB6
:100450000000003700000037000000FF000000FF30
:10046000000000BF000000BF0000BF3700003700E1
:1004700000370000262600000026260000000000AD
:10048000000000262626002626262600002F002F04
:100490000000000037000037000000FF000000FFF0
:1004A000FFFFFF00000000BF000000000000003759
:1004B0000000002626260026262626000000000032
:1004C000000000260026262626000000002F00003F
:1004D000002F0000003700000037000000FFFFFF82
:1004E000FF00000000BF000000BF00000037000058
:1004F0000037002600262626260000000000000007
:100500000000000000262626002600002F00002FF5
:10051000002F003700000037000037FF000000FF09
:10052000000000BF000000BF0000BF370000370020
:1005300000370026262600000026000000000000EC
:10054000000000000026000000000000002F000056
:100550000000000037000000000000FF0000000065
:1005600000000000BF000000000000000037000095
:100570000000000000260000000000000000000055
:10058000000000000000000000000000000000006B
:1005900000000000000000000000E400000000096E
:1005A0009BEDF60000009BA4ADBFBF00529BA4765C
:1005B0007F7FB75B9B6D777F766EB7000000000092
:1005C000000000000000005BB6F6F6005BF6FFFFDF
:1005D000FFFFBFF6FFFFFFFFBFBFAEFFBFFFFFFF85
:1005E000B7AD65BFBFFFFFB7B6AD65B7BFFFFFBF14
:1005F000B7AE6EB7BFFFFFBFB7B765000000000022
:10060000000000F6F6EDEDADA4A49BB66D6D5C5256
:100610006E65646565655265766D255C5C52536EEA
:1006200024656E6552526E252524255B52772D2553
:10063000252524526E6E2D2525252500000000005D
:100640000000009B49000000000000A49B920000F5
:100650000000002564934900000000652E9B5200B5
:100660000000006D256552000000006D2D655200F0
:100670000000006E2E645200000000000000000028
:1006800000495B00000000004A5B65000000005B61
:100690009B6D2D0000005B5B2D2E250000525B2E14
:1006A0002E1C0900015B2D1C01091C005C5B014A2A
:1006B00065777F4A5B1C6E7F7777769B77776D6572
:1006C0006E6EA4776E6565655BA4B725255C525296
:1006D0006DBFBF130949647FBFBFBF095C7F7FBF88
:1006E000BFB7BF7F7F777F7FB7BFBF77777F7F6ED3
:1006F000B7BFBF777F7F6E77BFBFBFB6FFFFFFBFBC
:10070000BFB75BBFFFFFFFBFBFA464BFFFFFFFBF5B
:10071000ADA47FBFFFFFFFBFA4BF7FFFFFFFBFAD43
:10072000BFBFBFFFFFFFB6BFBFBF77FFFFF7BFBFB2
:10073000BF7777FFFFFFBFBFBF64526D7F6E2E2D67
:100740002D256E7F766E6E6E2E2565777777762EE9
:100750001C25247F776E251C251C1B776525251CF1
:10076000090A5B6E6E1C09492564645B494A6E7F09
:10077000645C005377BF775B5C00006E255B4A00CA
:100780000000001C1B5B0000000000245B53000005
:100790000000005B5C00000000000064000000003E
:1007A0000000000000000000000000000000000049
:1007B00000000000000000000000005B5C7FBF77CD
:1007C0007677775C6D7FB7777777775C6D7FBF776C
:1007D0007777BF5C64BFBFBFBFBF7F0A5C6EBFBF20
:1007E000BFBF760065646DBFBFBFBF00005B6D64B7
:1007F0006DADB600000000125B646D777F6E6E77A2
:10080000BFBFBF7F766D7677BFBFBF776D6E767FD8
:10081000BFBFBF6D6E767FBFB7ADF676BFBF76A4A4
:10082000ADFFFFBFB664ADFFFFFFFFB6ADBFFFFF7B
:10083000FFFFF6ADB6AD645B520000FFFFBFBFAD7A
:100840005B64BFFFFFB6ADADBFFFBFFFF6FFFFFFAD
:10085000FFBF64FFFFFFFFBFB6765BFFFFFFBFBFB9
:100860005B0000FFFFFF5C00000000A40000000030
:100870000000000000000000000000BFBF645C5CDE
:100880000000006E5C6549000000006D5B00000028
:100890000000000000000000000000000000000058
:1008A0000000000000000000000000000000000048
:1008B000000000000000000000000005040001022C
:1008C000030405060708090A0B0C0D000E0F101192
:1008D00012050300131415161718191A1B1C1D1ED8
:1008E0001F001E1C000000000000000000000000AF
:1008F00000000000000000000000000000000000F8
:1009000000000000000000000000000000000000E7
:1009100000000000000000000000000000000000D7
:1009200000000000000000000000000000000000C7
:1009300000000000000000000000000000000000B7
:1009400000000000000000000000000000000000A7
:100950000000000000000000000000000000000097
:100960000000000000000000000000000000000087
:100970000000000000000000000000000000000077
:100980000000000000000000000000000000000067
:100990000000000000000000000000000000000057
:1009A0000000000000000000000000000000000047
:1009B0000000000000000000000000000000000037
:1009C0000000000000000000000000000000000027
:1009D0000000000000000000000000000000000017
:1009E0000000000000000000000000000000000007
:1009F00000000000000000000000000000000000F7
:100A000000000000000000000000000000000000E6
:100A100000000000000000000000000000000000D6
:100A200000000000000000000000000000000000C6
:100A30000000010203000000040005060708090089
:100A40000000000A0B0C0D0E00000000000000006A
:100A50000F101112131415161718191A1B1C1D1E2E
:100A60001F20212223000000000000000000242598
:100A7000262728292A2B2C2D2E2F3031323334359E
:100A8000363738000000000000000000393A003B13
:100A90003C3D3E3F404142434445464748494A4B1E
:100AA0004C0000000000000000004D4E000000005F
:100AB0004F5051525354555657585900005A5B00E5
:100AC00000000000000000000000000000005C00CA
:100AD00000000000005D5E5F60000000000000009C
:100AE0000000000000000000000000616263646517
:100AF000666768696A6B6C00000000000000000017
:100B00000000000000000000006D6E6F70717273D5
:100B10007475767778000000000000000000000087
:100B200000000000000000797A7B7C7D7E007F80E1
:100B3000818283000000000000000000000000002F
:100B400000000000000000000000000000000000A5
:100B50000000000000000000000000000000000095
:100B60000000000000000000000000000000000085
:100B70000000000000000000000000000000000075
:100B80000000000000000000000000000000000065
:100B90000000000000000000000000000000000055
:100BA0000000000000000000000000000000000045
:100BB0000000000000000000000000000000000035
:100BC0000000000000000000000000000000000025
:100BD0000000000000000000000000000000000015
:100BE0000000000000000000000000000000000005
:100BF00000000000000000000000000000000000F5
:100C000000000000000000000000000000000000E4
:100C100000000000000000000000000000000000D4
:100C2000000000000000000000000000FFFFFFFFC8
:100C3000FFFFFFFFFFFFFFFFFFFFFFFFFFFFFFFFC4
:100C4000FFFFFFFFFFFFFFFFFFFFFFFFFFFFFFFFB4
:100C5000FFFFFFFFFFFFFFFFFFFFFFFFFFFFFFFFA4
:100C6000FFFFFFFFFFFFFFFFFFFFFFFFFFFFFFFF94
:100C7000FFFFFFFFFFFFFFFFFFFFFFFFFFFFFFFF84
:100C8000FFFFFFFFFFFFFFFFFFFFFFADFFFFFFFFC6
:100C9000FFFF0000FFFFFFFFFFFF0000FFFFFFFF60
:100CA000FFFF0000FFFFFFFFFFFF0000FFFFFFFF50
:100CB000FFFFFFFFFFFFFFFFFFFFFFFFFFFFFFFF44
:100CC000FFFFFFFF5B525200000000090000000020
:100CD0000000000000000000000000000000000014
:100CE000000000000000000000000000FFFFFFFF08
:100CF000FFFFFFFFFFFFFFFFFFFFFFFFFFFFFFFF04
:100D0000FFFFFFFF52A4FFFFFFFFFFFF000000AD4A
:100D1000FFFFFFFF00000000A4FFFFFF0000000036
:100D200000ADFFFF000000000052FFFFFFFFFFFFCC
:100D3000FFFFFFFFFFFFFFFFFFFFFFFFFFFFFFFFC3
:100D4000FFFFFFFFFFFFFFFFFFFFFFFFFFFFFFFFB3
:100D5000FFFFFFFFFFFFFFFFFFFFFFFFFFFFFFFFA3
:100D6000FFFFFFFFB6A4A45BA4FFFFFFFFFFFFFF91
:100D7000FFFFFFFFFFFFFFFFFFFFFFFFFFFFFFFF83
:100D8000FFFFFFFFFFFFFFFFFFFFFFFFADF6FFFFCE
:100D9000FFFFFFFF5200005BFFFFFFFF5B00000053
:100DA000FFFFFF52A4000000FFFFFF52FFFFFF52B2
:100DB0005252525BFFFFFF0000000052FFFFFF494D
:100DC00000000052FFFFFF520000005BFFFFFF52D8
:100DD000000000A4FFFFFF520000005B00000000C5
:100DE000000000000000000000000000FFFFFFFF07
:100DF000FFFFFFFFFFFFFFFFFFFFFFFFFFFFFFFF03
:100E0000FFFFFFFFFFFFFFFFFFFFFFFFFFFFFFFFF2
:100E1000FFFFFFFFFFFFFFFFFFFFFFFF00000000DE
:100E20000000ADFF000000000000ADFFFFFFFFFF6E
:100E3000FFFFFFFFFFFFFFFFFFFFFFFFFFFFFFFFC2
:100E4000FFFFFFFFFFFFFFFFFFFFFFFFFFFFFFFFB2
:100E5000FFFFFFFFFFFFFFFFFFFFFFFFFFFFFFFFA2
:100E6000FFFFFFF6FFFFFFFFFFFF5B00FFFFFFFF3E
:100E7000FFFFFFFFFFFFFFFFFFFFFFFFFFFFFFFF82
:100E8000FFFFFFFFFFFFFFFFFFFFFFFFFFFFFFFF72
:100E9000FFFFFFFFFFFFFFFFFFFFFFFF5B090000FA
:100EA000495BF6FF0000000000000064FFFFFFFF49
:100EB000FFFFFFFFFFFFFFFFFFFFFFFFFFFFFFFF42
:100EC000FFFFFFFFFFFFFFFFFFFFFFFFFFFFFFFF32
:100ED000FFFFFFFFFFFFFFFFFFFFFFFFFFFFFFFF22
:100EE000FFFFFFF6FFFFFFF664490000FFFFFFFF73
:100EF000FFFFFFFFFFFFFFFFFFFFFFFFFFFFFFFF02
:100F0000FFFFFFFFFFFFFFFFFFFFFFFFFFFFFFFFF1
:100F1000FFFFFFFFFFFFFFFFFFFFFFFFADADADFFD7
:100F2000FFFFFFFF00000000095BADFFFFFFFFFFB9
:100F3000FFF6525BFFFFFFFFFFFF0000FFFFFFFF19
:100F4000FFFF4900FFFFFFFFFFFF5200FFFFFFFF12
:100F5000FFFF5B00FFFFFFFFFFFFA400FFFFFFFF9E
:100F6000FFFFAD00FFFFFFFFFFFFF600A45BADAD8D
:100F7000ADFFFFFF000000000000000000000000C7
:100F800000000000000000000000005B0000000006
:100F9000000000AD00000000000000F600000000AE
:100FA000000052FF0000000000005BFFFFFFFFFF9A
:100FB000FFFFFFFFADFFFFFFFFFFFFFFF6FFFFFF9C
:100FC000FFFFFFFFFFFFFFFFFFFFFFFFFFFFFFFF31
:100FD000FFFFFFFFFFFFFFFFFFFFFFFFFFFFFFFF21
:100FE000FFFFFFFFFFFFFFFFFFFFFFFFFFFFFFFF11
:100FF000FFFF0000FFFFFFFFFFFF4900FFFFFFFFB4
:10100000FFFF5200FFFFFFFFFFFF5200FFFFFFFF48
:10101000FFFF5200FFFFFFFFFFFF5200FFFFFFFF38
:10102000FFFF5B00FFFFFFFFFFFF9B00000000AD25
:10103000F65B0000000000ADFFFFF609000000AD08
:10104000FFFFFFF6000000ADFFFFFFFF000000AD57
:10105000FFFFFFFF000000ADFFFFFFFF000000AD3E
:10106000FFFFFFFF000000ADFFFFFFFF00000000DB
:101070000000F6FF000000000000A4FF00000000D8
:1010800000005BFF5B000000000052FFAD000000AD
:10109000000052FFAD000000000052FFAD00000054
:1010A000000052FFAD000000000064FFFFFFFFFFE3
:1010B000FFFFF6A4FFFFFFFFFF5B0000FFFFFFFF46
:1010C00049000000FFFFFF5B000009F6FFFFF6008C
:1010D0000000F6FFFFFF5B000009FFFFFFFF490074
:1010E0000052FFFFFFFF00000049ADAD52090000B4
:1010F00000495BF6000000000000000052520900A9
:1011000000000000FFFFFFAD00000000FFFFFFFF39
:10111000A4000000FFFFFFFFB6000000FFFFFFFF7D
:10112000FF000000ADADA45BA4000000FFFFFFFFC7
:10113000FFFFFFFFADFFFFFFFFFFFFFF00A4FFFF6B
:10114000FFFFFFFF0009F6FFFFFFFFFF000052FF58
:10115000FFFFFFFF000000F6FFFFFFFF000000A4FD
:10116000FFFFFFFF00000052FFFFFFFF52000000E3
:10117000005BFFFF52000000000049FF6400000018
:10118000000000099B000000000000006400000057
:10119000000000009B00000000000000A400000010
:1011A00000000000AD00000000000000FFFFFFFF96
:1011B000FFFFFFFFFFFFFFFFFFFFFFFFFFFFFFFF3F
:1011C000FFFFFFFF52FFFFFFFFFFFFFF005BFFFF7F
:1011D000FFFFFFFF0000A4FFFFFFFFFF000000B6BE
:1011E000FFFFFFFF00000009FFFFFFFFA40000005A
:1011F000FFFFFF52AD000000FFFFFF52AD000000F7
:10120000FFFFFF52AD000000FFFFFFF6AD00000042
:10121000FFFFFFFFAD000000FFFFFFFFAD0000007C
:10122000FFFFFFFFA4000052FFFFFFFF00000000D0
:1012300000000000000000000000000000000900A5
:1012400000000000FFFFFF52000000A4FFFFFF525C
:10125000000000ADFFFFFF52000000ADFFFFFF5296
:10126000000000ADFFFFFF52000000AD00000000D5
:101270000000ADFF000000000000ADFF0000000016
:101280000000ADFFADADADA45BA4F6FFFFFFFFFF17
:10129000FFFFFFFFFFFFFFFFFFFFFFFFFFFFFFFF5E
:1012A000FFFFFFFFFFFFFFFFFFFFFFFFFFFFFFFF4E
:1012B000F6090000FFFFFFFF09000000FFFFFF49E4
:1012C00000000000FFFF640000000000FFFF0000BE
:1012D00000000052FF5B0000000000FFFFFFFFFF67
:1012E000FFFFFFFFFFFFFFFFFFFFFFFF000000000A
:1012F000000000000000000000000000005BFFADE7
:1013000000000000A4FFFFFFAD000000FFFFFFFF93
:10131000FF090000FFFFFFFFFF5B0000FFFFFFFF73
:10132000FFA40000FFFFFFFFFFAD000049FFFFFF2C
:10133000FFFFFFFF0052FFFFFFFFFFFF0000ADFFB9
:10134000FFFFFFFF00005BFFFFFFFFFF000049FF03
:10135000FFFFFFAD000000FFFFFFFF52000000B6DF
:10136000FFFFFF09000000ADFFFFF600FFFFFFFFDA
:10137000B6ADADADFFFF5B0000000000FF4900000F
:10138000000000005200000000000000000000000B
:1013900000000009000000000000A4FF00000000A1
:1013A00000B6FFFF00000000A4FFFFFFFFFFFFFFEC
:1013B000FFFFFFFF00099BFFFFF6FFFF0000004952
:1013C000B6000052000000000000000052090000BA
:1013D00000000000FFFFB65200000000FFFFFFAD5D
:1013E00000000000FFFFFFA400000000FFFFFFFF60
:1013F000FFFFFFFFFFFFFFFFFFFFFFFF5BADF6FFFC
:10140000FFFFFFA4000000FFFFFFAD00000052FF40
:10141000FFFF090000005BFFFFAD00000000ADFF13
:10142000FF5B00000000FFFFFF520000FFF65B00C3
:1014300000000000A409000000A4ADAD00000009F8
:10144000FFFFFFFF000000ADFFFFFFFF000049FFAF
:10145000FFFFFFFF00005BFFFFFFFFFF0000A4FF97
:10146000FFFFFFFF00005BFFFFFFFFFF000000002A
:1014700000000052A452000000000000FFFFAD0079
:1014800000000000FFFFFFF609000000FFFFFFFF64
:10149000AD000000FFFFFFFFFFA40000FFFFFFFF04
:1014A000FFFF0000FFFFFFFFFFFFA400FFFFFFFFA4
:1014B000FFFFFF0009B6FFFFFFFFFF090000FFFF6E
:1014C000FFFFFF52000052FFFFFFFF52000000AD80
:1014D000FFFFFF6400000052FFFFFF9B00000000C1
:1014E000F6FFFFAD00000000A4FFFFAD000000000C
:1014F0000000ADFF000000000000F6FF000000004B
:101500000000FFFF000000000049FFFF0000000096
:101510000052FFFF00000000005BFFFF0000000022
:10152000005BFFFF0000000000A4FFFFFFFFFFFFC4
:10153000FFFF6400FFFFFFFFFFFF9B00FFFFFFFFB8
:10154000FFFF6400FFFFFFFFFFFFA400FFFFFFFF9F
:10155000FFFFAD00FFFFFFFFFFFFAD00FFFFFFFF3D
:10156000FFFFAD00FFFFFFFFFFFFAD00000000AD7C
:10157000FFFFFFFF000000ADFFFFFFFF000000AD19
:10158000FFFFFFAD0000005BADFFAD0900000000F4
:10159000000000000000000000000000000000004B
:1015A00000000000000000B6A45252529B00000050
:1015B0000000F6FF090000000009FFFF0000000026
:1015C00000A4FFFF0000000049FFFFFF0000000033
:1015D000B6FFFFFF000000A4FFFFFFFF0000ADFF0C
:1015E000FFFFFFFFA4FFFFFFFFFFFFFFFFF600006D
:1015F00000000000FFAD000000000000FFAD000093
:1016000000000000FFAD000000000000FFF6000039
:1016100000000000FFFF000000000000FFFF490085
:1016200000000000FFFFA400000000000000000018
:10163000000000000000000000000000495252526B
:1016400052525252ADFFFFFFFFFFFFFFADFFFFFF02
:10165000FFFFFFFFADFFFFFFFFFFFFFFADFFFFFF3E
:10166000FFFFF6ADADFFFFFFFFFFAD00000000097B
:10167000FFFFFFFF00000000FFFFFFFF525252522A
:10168000FFFFFFFFFFFFFFFFFFFFFFFFFFFFFFFF6A
:10169000FFFFFFFFFFFFFFFFFFFFFFFFADADADA4AB
:1016A000F6FFFFFF00000000FFFFFFFFAD0000009E
:1016B00000000000AD0000005B000000AD00000075
:1016C000F6090000FF000000FFF60000FF00000028
:1016D000FFFF5B00FF000000FFFFFF09FF000000AD
:1016E000F6FFFFADFF000000ADFFFFFF00000000B0
:1016F00052FFFFFF0000000000A4FFFF00000000F9
:101700000000B6FF00000000000049F600000000E5
:101710000000005B0000000000000000000000006E
:10172000000000005B00000000000000A400005268
:10173000FFFFFFFF5B000052FFFFFFFF5B00005257
:10174000FFFFFFFF52000052FFFFFFFF09000052A2
:10175000FFFFFFFF00000052FFFFFFFF00000052ED
:10176000FFFFFFFF00000052FFFFFFFFFFFFFF52E0
:10177000000000ADFFFFFF52000000ADFFFFFF5271
:10178000000000ADFFFFFF52000000ADFFFFFF5261
:10179000000000ADFFFFFF52000000A4FFFFFF525A
:1017A00000000064FFFFFF520000009BFFFFFFFFEF
:1017B000FFFFFFFFFFFFFFFFFFFFFFFFFFFFFFFF39
:1017C000FFFFFFFFFFFFFFFFFFFFFFFFFFFFFFFF29
:1017D000FFFFFFFFFFFFFFFFFFFFFFFFFFFFFFFF19
:1017E000FFFFFFFFFFFFB6A4F6FFFFFFFFFFFFFFB6
:1017F000FFFFFFFFFFFFFFFFFFFFFFFFFFFFFFFFF9
:10180000FFFFFFFFFFFFFFFFFFFFFFFFFFFFFFFFE8
:10181000FFFFFF5BFFFFFFFFFFB60000FFFFFFFFC3
:10182000F6000000FFFFFFFF52000000FFFFFFFF78
:10183000FFFF0000FFFFFFFFFFFF0000FFFFFFFFB4
:10184000FFFF0000FFF6ADADFFFF0000000000004D
:101850000052000000000000000000000000000036
:10186000000000000000000000000000000000A4D4
:10187000FFFFAD0000000064FFFFAD000000009B13
:10188000FFFFAD0000000064FFFFF6000000005203
:10189000FFFFFF0000000052FFFFFF520000005258
:1018A000FFFFFFAD00000052FFFFFFFF0000000040
:1018B000ADFFFFFF00000000ADFFFFFF00000000D4
:1018C000ADFFFFFF00000000ADFFFFFF00000000C4
:1018D000A4FFFFFF0000000052FFFFFF0000000018
:1018E00000A4FFFF52000000000052A4FFFFFF5BB6
:1018F00000000000FFFFFF5200000000FFFFFF524A
:1019000000000000FFFFFF0000000000FFFFFF00DD
:1019100000000000FFFFAD0000000000FFFFAD0071
:10192000000000005B520000000000000049FFFFC3
:10193000FF520000005BFFFFFF52000000ADFFFF01
:10194000FF5B000000FFFFFFFFA4000009FFFFFF97
:10195000FFB6000052FFFFFFFFFF4900A4FFFFFF9B
:10196000FFFFA400ADFFFFFFFFFFFF52000052FF8B
:10197000FFFFFFFF000000FFFFFFFFFF000000B6BA
:10198000FFFFFFFF0000005BFFFFFFFF0000000004
:10199000FFFFFFFF000000009BFFFFFF00000000B3
:1019A00000B6FFFF0000000000099BFFFFFFFFFFE4
:1019B000FFFFB600FFFFFFFFFFFFFF49FFFFFFFF35
:1019C000FFFFFF5BFFFFFFFFFFFFFFA4FFFFFFFF26
:1019D000FFFFFFADFFFFFFFFFFFFFFADFFFFFFFFBB
:1019E000FFFFFFA4FFFFFFFFFFFFB60000000000A6
:1019F0005BFFFFAD0000000052FFFFF6000000009B
:101A000052FFFFFF0000000052FFFFFF0000000038
:101A100052FFFFFF0000000064FFFFFF0000000016
:101A2000F6FFFFFF00000009FFFFFFFF00000000BE
:101A3000005BFFFF0000000000ADFFFF00000000A2
:101A400000ADFFFF0000000000ADFFFF0000000040
:101A500000ADFFFF0000000000ADFFFF0000000030
:101A600000ADFFFF0000000000ADFFFFFFFFFFFF24
:101A7000FFFFAD00FFFFFFFFFFFFAD00FFFFFFFF18
:101A8000FFFFAD00FFFFFFFFFFFFAD00FFFFFFFF08
:101A9000FFFFAD00FFFFFFFFFFFFAD00FFFFFFFFF8
:101AA000FFFFAD00FFFFFFFFFFFF9B00000000AD49
:101AB000FFFFFFFF000000A4FFFFFFFF0000006426
:101AC000FFFFFFFF0000005BFFFFFFFF0000005271
:101AD000FFFFFFFF00000000FFFFFFFF000000000E
:101AE000FFFFFFFF00000000B6FFFFFFFFFFFF004A
:101AF00000000000FFFFFF6400000000FFFFFFFF89
:101B000049000000FFFFFFFFFF090000FFFFFFFF8C
:101B1000FFFF5200FFFFFFFFFFFFFFB6FFFFFFFFCA
:101B2000FFFFFFFFFFFFFFFFFFFFFFFFA4FFFFFF20
:101B3000FFFFAD0052FFFFFFFFFFA40000ADFFFF5E
:101B4000FFAD090000005B644900000000000000D8
:101B5000000000005B49000000495BADFFFFFFFF94
:101B6000FFFFFFFFFFFFFFFFFFFFFFFF0000005B26
:101B7000FFFFFFFF000000ADFFFFFFFF000052FF6F
:101B8000FFFFFFFF0000FFFFFFFFFFFF49B6FFFF62
:101B9000FFFFFFFFFFFFFFFFFFFFFFFFFFFFFFFF55
:101BA000FFFFFFFFFFFFFFFFFFFFFFFFFF00000042
:101BB000ADFFFFFFB6000000ADFFFFFFAD0000006E
:101BC000ADFFFFFFAD000000A4FFFFFFAD00000070
:101BD0005BFFFFFFAD000000A4FFFFFFAD000000B2
:101BE0005BFFFFFFA400000052FFFFFFF6000000B4
:101BF00000000000FFA4000000000000FFF6090044
:101C000000000000FFFFA40000000000FFFFFF092C
:101C100000000000FFFFFFA400000000FFFFFFFF27
:101C200009000000FFFFFFFFA4000000000000000B
:101C3000FFFFFFFF00000000FFFFFFFF00000000AC
:101C4000FFFFFFFF00000000F6FFFFFF00000000A5
:101C5000ADFFFFFF00000000ADFFFFFF0000000030
:101C6000A4FFFFFF000000005BFFFFFFFFFFFF522C
:101C700000000064FFFFFF520000009BFFFFFF52C7
:101C800000000064FFFFFF520000009BFFFFFF52B7
:101C900000000052FFFFFF5200000052FFFFFF5202
:101CA00000000000FFFFFF5200000000FFFF9B004C
:101CB0000009A4B6FFFF640000000000FFFF52000F
:101CC00000000000FFFF49000000005BFFFF000074
:101CD000000000ADFFAD0000000009FFF65200005B
:101CE0000000ADFF000000000052FFFFFFFFFFF605
:101CF00000000000ADFFFFA400000000FFFFFF5B3D
:101D000000000000FFFFFF5200000000FFFFFF5235
:101D100000000000FFFFFF5200000000FFFFFF5B1C
:101D200000000000FFFFFFAD00000000005BF6FFB9
:101D3000AD09000000FFFFFFFF9B00005BFFFFFFFE
:101D4000FF6400009BFFFFFFFF9B000064FFFFFF9D
:101D5000FF52000052FFFFFFFF52000000FFFFFF95
:101D6000FF520000005BFFFFF60900000000005278
:101D7000FFFFFFFF00000052FFFFFFFF00000052C7
:101D8000FFFFFFFF00000052FFFFFFFF00000052B7
:101D9000FFFFFFFF00000052FFFFFFFF00000052A7
:101DA000FFFFAD0000000052FFFFA400B6000000DE
:101DB00000000000FFF6000000000000FFFFFF5BD6
:101DC00000000000FFFFFFFFFFAD9B64FFFFFFFF70
:101DD000FFFFFFFFFFFFFFFFFFFFFFFF5BADADFF5B
:101DE000F6B6FFFF0000000000A4FFFF00000000A7
:101DF0000000000000000000000000000000095288
:101E0000000000009BADFF5200000049FFFFFF52A1
:101E100000000052FFFFFF5200000052FFFFFF5280
:101E200000000052FFFFFF5200000052ADFFFFFF15
:101E3000FFFFFFFFFFFFFFFFFFFFFFFFFFFFFFFFB2
:101E4000FFFFFFFFFFFFFFFFFFFFFFFFFFFFFFFFA2
:101E5000FFFFFFFFFFFFFFFFFFFFFFFFFFFFFFFF92
:101E6000FFFFFFFFFFFFFFFFFFFFFFFF0900000075
:101E700000000009B649000000000000FFFF52000A
:101E800000000000FFFFFFAD09000000FFFFFFFFA3
:101E9000FFF65B52FFFFFFFFFFFFFFFFFFFFFFFFAC
:101EA000FFFFFFFFFFFFFFFFFFFFFFFFA4FFFFFF9D
:101EB000FFA4000000099B6449000000000000002E
:101EC0000000000000000000000000090000000009
:101ED000495BADFFFFFFFFFFFFFFFFFFFFFFFFFFBE
:101EE000FFFFFFFFFFFFFFFFFFFFFFFF000000AD51
:101EF000FFFFFFFF00005BFFFFFFFFFF005BFFFF37
:101F0000FFFFFFFFADFFFFFFFFFFFFFFFFFFFFFF33
:101F1000FFFFFFFFFFFFFFFFFFFFFFADFFFFFFFF23
:101F2000FFFFFFADFFFFFFFFFFFFFFAD0000000061
:101F300000ADFFFF0000000000ADFFFF000000004B
:101F4000009BFFFF000000000064FFFF0000000096
:101F5000009BFFFF000000000064FFFF0000000086
:101F6000009BFFFF000000000064FFFFFFFFFFFF7A
:101F7000FFFF6400FFFFFFFFFFFF5B00FFFFFFFFAE
:101F8000FFFF5200FFFFFFFFFFFF0900FFFFFFFF02
:101F9000FFFF0000FFFFFFFFFFB60000FFFFFFFF96
:101FA000FFAD0052FFFFFFFFFFFFFFFF000000003B
:101FB000ADFFFFFF00000000A4FFFFFF00000000D6
:101FC00064FFFFFF0000000052FFFFFF0000000061
:101FD00052FFFFFF0000000000FFFFFF5252A45B12
:101FE000A4FFFFFFFFFFFFFFFFFFFFFF64000000F4
:101FF00052FFFFFF9B00000052FFFFFF6400000044
:1020000052FFFFFF9B00000000FFFFFF5200000097
:1020100000FFFFFF5200000000FFFFFF5200000022
:1020200000FFFFFF5200000000FFFFFFFFFFFFFF68
:10203000FF090000FFFFFFFFFFA40000FFFFFFFFFD
:10204000FFFF5200FFFFFFFFFFFFAD00FFFFFFFF9D
:10205000FFFFFF52FFFFFFFFFFFFFFF6FFFFFFFF46
:10206000FFFFFFFFFFFFFFFFFFFFFFFF000000007C
:1020700052FFFFFF0000000049FFFFFF00000000CB
:1020800000FFFFFF0000000000F6FFFF000000005F
:1020900000ADFFFFADADA4649BB6FFFFFFFFFFFFE8
:1020A000FFFFFFFFFFFFFFFFFFFFFFFFFFFFFFA49B
:1020B00000000000FFFFFFFF5B000000FFFFFFFFCD
:1020C000FFAD5B52FFFFFFFFFFFFFFFFFFFFFFFFC3
:1020D000FFFFFFFFFFFFFFFFFFFFFFFFFFFFFFFF10
:1020E000FFFFFFFFFFFFFFFFFFFFFFFF00000000FC
:1020F00049FFFFFF00000052FFFFFFFF525BADFFF3
:10210000FFFFFFFFFFFFFFFFFFFFFFFFFFFFFFFFDF
:10211000FFFFFFFFFFFFFFFFFFFFFFFFFFFFFFFFCF
:10212000FFFFFFFFFFFFFFFFFFFFFFFFFFFFFFFFBF
:1021300009000000FFFFFFFFAD000000FFFFFFFFF1
:10214000FF5B0000FFFFFFFFFFFF5B00FFFFFFFFE4
:10215000FFFFFFF6FFFFFFFFFFFFFFFFFFFFFFFF98
:10216000FFFFFFFFFFFFFFFFFFFFFFFF00005252D7
:10217000000000000000000000000000000000005F
:102180000000000000000000000000005B52525BF5
:10219000ADF6B6FFFFFFFFFFFFFFFFFFFFFFFFFFF3
:1021A000FFFFFFFFFFFFFFFFFFFFFFFF00000052E9
:1021B000FFFF520000000052FFFF520000000052DB
:1021C000FFFF00000009525BFFFF0000FFFFFFFF61
:1021D000FFFF0000FFFFFFFFFFFF0000FFFFFFFF0B
:1021E000FFFF5200FFFFFFFFFFFFA4000000000001
:1021F00049FFFFFF00000000ADFFFFFF0000005B94
:10220000FFFFFFFF000000FFFFFFFFFF0000A4FF34
:10221000FFFFFFFF0000FFFFFFFFFFFF0052FFFF78
:10222000FFFFFFFF0000FFFFFFFFFFFFFFFFFF5B60
:1022300000000009FFFFFFA400000000FFFFFF5B9C
:1022400000000000FFFFFFA400000000FFFFFF5B95
:1022500000000000FFFFFFA400000000FFFFFF5B85
:1022600000000000FFFFFF0900000000FFFFFFFF6C
:10227000FFFFFFFFFFFFFFFFFFFFFFFFFFFFFFFF6E
:10228000FFFFFFFFFFFFFFFFFFFFFFFFADFFFFFFB0
:10229000FFFFFFFFADFFFFFFFFFFFFFFADFFFFFFF2
:1022A000FFFFFFFFADFFFFFFFFFFFFFFFFFFFFFF90
:1022B000FFFFFFFFFFFFFFFFFFFFFFFFFFFFFFFF2E
:1022C000FFFFFFFFFFFFFFFFFFFFFFF6FFFFFFFF27
:1022D000FFFFFF64FFFFFFFFFFFFFFADFFFFFFFFFB
:1022E000FFFFFFFFFFFFFFFFFFFFFFFFADADADAD46
:1022F000ADF6FFFFFFFFFFFFFFFFFFFFF6A4525207
:10230000B6FFFFFF0000000052FFFFFF00000000CB
:1023100052FFFFFF00000000ADFFFFFFAD649BB662
:10232000FFFFFFFFFFFFFFFFFFFFFFFF52095252BA
:102330005BFFFFFFFFFFFFFFFFFFFFFFFFFFFFFF51
:10234000FFFFFFFFFFFFFFFFFFFFFFFFFFFFFFFF9D
:10235000FFFFFFFFFFFFFFFFFFFFFFFFFFFFFFFF8D
:10236000FFFFFFFFFFFFFFFFFFFFFFFFFFFFFFFF7D
:10237000FFFFFF00FFFFFFFFFFFFFFADFFFFFFFFBE
:10238000FFFFFFFFFFFFFFFFFFFFFFFFFFFFFFFF5D
:10239000FFFFFFFFFFFFFFFFFFFFFFFFFFFFFFFF4D
:1023A000FFFFFFFFFFFFFFFFFFFFFFFF0000A4FF96
:1023B000FFFFFFFF0000005BFFFFFFFF5B0000006F
:1023C000095BADADFF5B000000000000FFFFAD004A
:1023D00000000000FFFFFFFF9B090000FFFFFFFF61
:1023E000FFFFAD5BFFFFFFFFFFFFFFFFFFFFAD0044
:1023F00000000000FFFF490000000000A4090000E9
:102400000000000000000000000000490000000083
:102410000000006400000000000049FF52000000BE
:102420000964F6FFFFFFFFFFFFFFFFFFADFFFFFFA8
:10243000FFFFFFFFF6FFFFFFFFFFFFFFFFFFFFFFB5
:10244000FFFFFFFFFFFFFFFFFFFFFFFFFFFFFFFF9C
:10245000FFFFFFFFFFFFFFFFFFFFFFFFFFFFFFFF8C
:10246000FFFFFFFFFFFFFFFFFFFFFFFFFFFFFFFF7C
:10247000FFFFFFFFFFFFFFFFFFFFFFFFFFFFFFFF6C
:10248000FFFFFFFFFFFFFFFFFFFFFFFFFFFFFFFF5C
:10249000FFFFFFFFFFFFFFFFFFFFFFFFFFFFFFFF4C
:1024A000FFFFFFFFFFFFFFFFB6000000FFFFFFFF82
:1024B000FFFFFFFFFFFFFFFFFFFFFFFFFFFFFFFF2C
:1024C000FFFFFFFFFFFFFFFFFFFFFFFFFFFFFFFF1C
:1024D000FFFFFFFFFFFFFFFFFFFFFFFFFFFFFFFF0C
:1024E000FFFFFFFF00005BFFAD090049FFFFFFFF9B
:1024F000FFFFFFFFFFFFFFFFFFFFFFFFFFFFFFFFEC
:10250000FFFFFFFFFFFFFFFFFFFFFFFFFFFFFFFFDB
:10251000FFFFFFFFFFFFFFFFFFFFFFFFFFFFFFFFCB
:10252000FFFFFFFFB6FFFFFFFFFFFFFFFFFFFFFF04
:10253000FFFFFFFFFFFFFFFFFFFFFFFFFFFFFFFFAB
:10254000FFFFFFFFFFFFFFFFFFFFFFFFFFFFFFFF9B
:10255000FFFFFFFFFFFFFFFFFFFFFFFFFFFFFFFF8B
:10256000FFFFFFFFFFFFFFA400000000FFFFFFFFD2
:10257000FFFFFFFFFFFFFFFFFFFFFFFFFFFFFFFF6B
:10258000FFFFFFFFFFFFFFFFFFFFFFFFFFFFFFFF5B
:10259000FFFFFFFFFFFFFFFFFFFFFFFFFFFFFFFF4B
:1025A000FFFFFFFF00000000A400FFF6FFFFFFFF9A
:1025B000FFFFFFFFFFFFFFFFFFFFFFFFFFFFFFFF2B
:1025C000FFFFFFFFFFFFFFFFFFFFFFFFFFFFFFFF1B
:1025D000FFFFFFFFFFFFFFFFFFFFFFFFFFFFFFFF0B
:1025E000FFFFFFFF0000F65B00000000FFFFFFFFA2
:1025F000FFFFFFFFFFFFFFFFFFFFFFFFFFFFFFFFEB
:10260000FFFFFFFFFFFFFFFFFFFFFFFFFFFFFFFFDA
:10261000FFFFFFFFFFFFFFFFFFFFFFFFFFFFFFFFCA
:10262000FFFFFFFFA4FFFFFF5B009BB6FFFFFFFF65
:10263000FFFFFFFFFFFFFFFFFFFFFFFFFFFFFFFFAA
:10264000FFFFFFFFFFFFFFFFFFFFFFFFFFFFFFFF9A
:10265000FFFFFFFFFFFFFFFFFFFFFFFFFFFFFFFF8A
:10266000FFFFFFFF00005B525B5B5B12FFFFFFFFA2
:10267000FFFFFFFFFFFFFFFFFFFFFFFFFFFFFFFF6A
:10268000FFFFFFFFFFFFFFFFFFFFFFFFFFFFFFFF5A
:10269000FFFFFFFFFFFFFFFFFFFFFFFFFFFFFFFF4A
:1026A000FFFFFFFF49F65B00000000A4FFFFFFFFF4
:1026B000FFFFFFFFFFFFFFFFFFFFFFFFFFFFFFFF2A
:1026C000FFFFFFFFFFFFFFFFFFFFFFFFFFFFFFFF1A
:1026D000FFFFFFFFFFFFFFFFFFFFFFFFFFFFFFFF0A
:1026E000FFFFFFFF0000005BFFFFA400FFFFFFFFF5
:1026F000FFFFFFFFFFFFFFFFFFFFFFFFFFFFFFFFEA
:10270000FFFFFFFFFFFFFFFFFFFFFFFFFFFFFFFFD9
:10271000FFFFFFFFFFFFFFFFFFFFFFFFFFFFFFFFC9
:10272000FFFFFFFF0049FFFF5200A4FFFFFFFFFF75
:10273000FFFFFFFFFFFFFFFFFFFFFFFFFFFFFFFFA9
:10274000FFFFFFFFFFFFFFFFFFFFFFFFFFFFFFFF99
:10275000FFFFFFFFFFFFFFFFFFFFFFFFFFFFFFFF89
:10276000FFFFFFFF09005BFFFFFFFFFFFFFFFFFF12
:10277000F600005BFFFFFFFFFF00A4FFFFFFFFFF6E
:10278000FF005BFFFFFFFFFFFF000000FFFFFFFFF9
:10279000FF000000FFFFFFFFFF00A4FFFFFFFFFFA0
:1027A000F600A4FFFFFFFFFFB600A4FF5B5BEDF6A2
:1027B00009005200FFFFFF5B0009FF09FFFFFF0058
:1027C0000052FF9B5BFFFF0000A4FF645BFFFF0064
:1027D0000064FFADFFFFFF49009BFFA4FFFFFFA4C4
:1027E0000009FF5BFFFFFFFF5200AD4900FFA4009F
:1027F0004900A4FF00A46400AD5200AD0009A4008C
:10280000AD5200A40000A4005B0900B60000AD00BA
:102810000000ADFF0049AD00AD005BFF00A4AD00BE
:10282000AD5B00F609F6A400A45B00ADFFFFFFA4BA
:102830000000005BFFFFFFFFFF5B00F6FFFFFFFFF5
:10284000FF5200F6FFFFFFFFFF5200ADFFFFFFFF4B
:10285000FF5200ADFFFFFFFFFF5200A4FFFFFFFF8D
:10286000FF0900A4FFFFFFFFFF0900A45B5BFFFF60
:102870006400FFB6FFFFFFFFA400FFFFFFFFFFFFA5
:10288000A4005B5BFFFFFFFFA4000000FFFFFFFF52
:10289000A4000000FFFFFFFFA400A4A4FFFFFFFFB0
:1028A000A400645BFFFFFFFF6400A45B0000AD00B9
:1028B00000005B5B0009AD00A4FFFFFF0049AD0015
:1028C0005BFFFFFF0009AD0000005BFF0049AD00AA
:1028D00000005BFF0000AD00A4FFFFFF0000AD00A3
:1028E000A4FFFFFF0000AD005B5B5BADADFFFFFF32
:1028F000A40009FFFFFFFFFFA40052FFFFFFFFFF3F
:10290000A40052FFFFFFFFFFA4005BFFFFFFFFFFDC
:10291000A400A4FFFFFFFFFFA40064FFFFFFFFFF71
:10292000AD005BF6FFFFFFFFFFA400000000AD5B02
:102930005B5B49005200ADFFFFF600495B00F6FF0C
:10294000FF520064A400B6FFAD0000FF6400FFFF6B
:102950005B0052FF5200FFFF0000A4FF0052FFADDA
:102960000000F6B609B6FF5B00094900ADAD0000F6
:10297000005B5BADFFAD00A4FFFFFFFFFFAD005BA1
:10298000FFFFFFFFFFAD0000005BFFFFFFAD00009A
:10299000005BFFFFFFAD00A4FFFFFFFF52A400A4F8
:1029A000FFFFFFFF0064005B5B5BADFF09A4A400B9
:1029B000ADAD000009A4AD00A4090052095BA4005C
:1029C000A400006409490000A40000AD0000005B01
:1029D000AD0000F600095200F60000AD0052AD0057
:1029E000AD5B005B0052A400B6F60900520052FF36
:1029F000A4005BFFF60000ADFF0949B6FF49005B8C
:102A0000FFA40052FF520052FFFF0900FFA400493B
:102A1000FFFF0900FF5B005BFF5B00A4FF4900AD07
:102A2000F6005BFFB60052FFA400ADFF0049FFFFB8
:102A3000FFFFFFFF00A4FFFFFFFFFFFF00FFFFFFFF
:102A4000FFFFFFFF52FFFFFFFFFFFFFF09F6FFFF42
:102A5000FFFFFFFF0009FFFFFFFFFFFFA400A4FF30
:102A6000FFFFFFFFAD0052FFFFFFFFFFFFFFFFFF74
:102A7000AD0052FFFFFFFFFFFFFFFFFFFFFFFFFF64
:102A8000FFFFFFFFFFFFFFFFFFFFFFFFFFFFFFFF56
:102A9000FFFFFFFFFFFFFFFFFFFFFFFFFFFFFFFF46
:102AA000FFFFFFFFFFFFFFFFFFFFFFFFFFFFFFFF36
:102AB000F6520000FFFFFFFFFFFFFFFFFFFFFFFFDA
:102AC000FFFFFFFFFFFFFFFFFFFFFFFFFFFFFFFF16
:102AD000FFFFFFFFFFFFFFFFFFFFFFFFFFFFFFFF06
:102AE000FFFFFFFFFFFFFFFFFFFFFFFFADFF5B00EB
:102AF0005B5B005BFFFFFFFFFFFFFFFFFFFFFFFFD1
:102B0000FFFFFFFFFFFFFFFFFFFFFFFFFFFFFFFFD5
:102B1000FFFFFFFFFFFFFFFFFFFFFFFFFFFFFFFFC5
:102B2000FFFFFFFFFFFFFFFFFFFFFFFFFFFFFFFFB5
:102B3000FF490064FFFFFFFFFFFFFFFFFFFFFFFFF5
:102B4000FFFFFFFFFFFFFFFFFFFFFFFFFFFFFFFF95
:102B5000FFFFFFFFFFFFFFFFFFFFFFFFFFFFFFFF85
:102B6000FFFFFFFFFFFFFFFFFFFFFFFFFFFFFFFF75
:102B7000A400A452FFFFFFFFFFFFFFFFFFFFFFFFC7
:102B8000FFFFFFFFFFFFFFFFFFFFFFFFFFFFFFFF55
:102B9000FFFFFFFFFFFFFFFFFFFFFFFFFFFFFFFF45
:102BA000FFFFFFFFFFFFFFFFFFFFFFFF0000AD0084
:102BB0000000009BFFFFFFFFFFFFFFFFFFFFFFFF86
:102BC000FFFFFFFFFFFFFFFFFFFFFFFFFFFFFFFF15
:102BD000FFFFFFFFFFFFFFFFFFFFFFFFFFFFFFFF05
:102BE000FFFFFFFFFFFFFFFFFFFFFFFFFFFFFF49AB
:102BF00000000000FFFFFFFFFFFFFFFFFFFFFFFFE1
:102C0000FFFFFFFFFFFFFFFFFFFFFFFFFFFFFFFFD4
:102C1000FFFFFFFFFFFFFFFFFFFFFFFFFFFFFFFFC4
:102C2000FFFFFFFFFFFFFFFFFFFFFFFF00AD000003
:102C300000009BFFFFFFFFFFFFFFFFFFFFFFFFFF06
:102C4000FFFFFFFFFFFFFFFFFFFFFFFFFFFFFFFF94
:102C5000FFFFFFFFFFFFFFFFFFFFFFFFFFFFFFFF84
:102C6000FFFFFFFFFFFFFFFFFFFFFFFF0000005B15
:102C7000FFFFAD52FFFFFFFFFFFFFFFFFFFFFFFF63
:102C8000FFFFFFFFFFFFFFFFFFFFFFFFFFFFFFFF54
:102C9000FFFFFFFFFFFFFFFFFFFFFFFFFFFFFFFF44
:102CA000FFFFFFFFFFFFFFFFFFFFFFFF0049B6FF32
:102CB0000900F6FFFFFFFFFFFFFFFFFFFFFFFFFF22
:102CC000FFFFFFFFFFFFFFFFFFFFFFFFFFFFFFFF14
:102CD000FFFFFFFFFFFFFFFFFFFFFFFFFFFFFFFF04
:102CE000FFFFFFFFFFFFFFFFFFFFFFFFAD0009FF3B
:102CF000FFFFFFFFFFFFFFFFFFFFFFFFFFFFFFFFE4
:102D0000FFFFFFFFFFFFFFFFFFFFFFFFFFFFFFFFD3
:102D1000FFFFFFFFFFFFFFFFFFFFFFFFFFFFFFFFC3
:102D2000FFFFFFFFFFFFFFFFFFFFFFFF484848488F
:102D3000484848484848FFFF48FFFF4848FFFFFF12
:102D4000FFFFFFFF48FFFFFFFFFFFFFF4848FFFFB8
:102D5000FFFFFF48484848FFFFFF484848484848A9
:102D6000FF4848484848484848484848484848FF75
:102D7000FF484848484848FFFF484848484848FFF7
:102D8000FF484848484848FFFFFFFFFF484848FFC2
:102D9000FFFFFFFF484848FFFF484848484848FFB2
:102DA000FF484848484848FFFF484848484848487E
:102DB0004848FFFF484848484848FFFF48484848B7
:102DC0004848FFFF484848484848FFFF48484848A7
:102DD0004848FFFF484848484848FFFF4848484897
:102DE0004848FFFF484848484848FFFF484848FFD0
:102DF000FF484848484848FFFF484848484848FF77
:102E0000FF484848FFFFFFFFFF484848FFFFFFFF1C
:102E1000FF4848484848484848484848484848487B
:102E2000484848484848484848484848484848FF6B
:102E3000FF484848484848FFFF484848484848FF36
:102E4000FF484848FFFFFFFFFF484848FFFFFFFFDC
:102E5000FF484848484848FFFF484848484848FF16
:102E6000FF484848484848FFFF48484848484848BD
:102E700048484848484848484848484848484848D2
:102E800048484848FFFFFFFFFF484848FFFFFFFF53
:102E9000FF484848484848FFFF484848484848FFD6
:102EA000FF484848484848FFFF484848484848487D
:102EB0004848FFFF4848484848FFFFFF48484848FF
:102EC000FFFFFF48484848FFFFFF48484848FFFFCA
:102ED000FF48484848FFFFFF48484848FFFFFF4871
:102EE00048484848FFFF484848484848FFFF484886
:102EF00048484848FFFFFF484848484848FFFFFF08
:102F0000484848484848FFFFFF484848484848FF65
:102F1000FFFF484848484848FFFFFF48484848489E
:102F200048FFFFFF484848484848FFFF484848488E
:102F3000484848FF484848484848FFFF48484848EC
:102F400048FFFFFF48484848FFFFFFFF484848FF49
:102F5000FFFFFFFF4848FFFFFFFFFFFF48FFFFFFA6
:102F6000FFFFFFFFFFFFFFFFFFFFFFFF484848484D
:102F700048484848484848484848484848484848D1
:102F800048484848484848484848484848484848C1
:102F9000FFFFFFFF48484848FFFFFFFF48484848F9
:102FA000FFFFFFFF48484848FFFFFFFFFF48484832
:102FB00048484848FFFF484848484848FFFFFF48FE
:102FC00048484848FFFFFFFF48484848FFFFFFFFC9
:102FD000FF484848FFFFFFFFFFFF4848FFFFFFFF94
:102FE000FFFFFF48FFFFFFFFFFFFFFFF4848484884
:102FF000FFFFFFFF48484848FFFFFFFF4848484899
:10300000FFFFFFFF48484848FFFFFFFF4848484888
:103010004848484848484848484848484848484830
:10302000484848484848484848484848FFFFFFFF44
:1030300048484848FFFFFFFF48484848FFFFFFFF58
:1030400048484848FFFFFFFF484848484848484824
:1030500048484848484848484848484848484848F0
:10306000484848484848484848484848FFFFFFFF04
:10307000FFFFFFFFFFFFFFFFFFFFFFFF484848483C
:1030800048484848484848484848484848484848C0
:1030900048484848484848484848484848484848B0
:1030A00048484848484848484848484848484848A0
:1030B0004848484848484848484848484848484890
:1030C0004848484848484848484848484848484880
:1030D000484848484848484848484848FFFFFFFF94
:1030E000FFFFFFFFFFFFFFFFFFFFFFFF48484848CC
:1030F0004848484848484848484848484848484850
:10310000484848484848484848484848FFFFFFFF63
:1031100048484848FFFFFFFF48484848FFFFFFFF77
:1031200048484848FFFFFFFF484848484848484843
:1031300048484848484848FFFFFF4848484848FF33
:10314000FFFF484848FFFFFF48FFFFFF48FFFFFF22
:1031500048FFFFFF48484848FF484848484848FF5C
:10316000FFFF484848484848484848484848484871
:1031700048484848484848484848484848484848CF
:1031800048484848484848FFFFFFFFFF484848FF75
:10319000FFFFFFFF484848FFFF484848484848FFAE
:1031A000FF484848484848FFFF484848484848487A
:1031B000484848484848484848484848484848488F
:1031C00048484848FFFFFFFFFFFFFFFFFFFFFFFFEB
:1031D000FFFFFFFF48484848484848484848484893
:1031E000484848484848484848484848484848FFA8
:1031F000FF484848484848FFFF484848484848FF73
:10320000FF484848FFFFFFFFFFFFFFFFFFFFFFFFF3
:10321000FFFFFFFF484848FFFF484848484848FF2D
:10322000FF484848484848FFFF48484848484848F9
:103230004848484848484848484848484848FFFFA0
:10324000FFFF484848FFFFFFFFFFFF4848FFFFFF21
:10325000FFFFFF4848FFFFFFFFFFFF484848FFFF11
:10326000FFFF484848484848484848484848484870
:1032700048484848484848484848484848484848CE
:10328000484848484848484848484848FFFFFFFFE2
:10329000FFFFFFFFFFFFFFFFFFFFFFFFFFFFFFFF3E
:1032A000FFFFFFFFFFFFFFFFFFFFFFFFFFFF48489C
:1032B00048484848FFFF484848484848FFFF4848B2
:1032C00048484848FFFF484848484848FFFF4848A2
:1032D00048484848FFFF484848484848FFFF484892
:1032E00048484848FFFF48484848484848484848F0
:1032F000484848484848484848484848484848484E
:1033000048484848FFFFFFFFFFFFFFFFFFFFFFFFA9
:10331000FFFFFFFF484848FFFF484848484848FF2C
:10332000FF484848484848FFFF484848484848FF41
:10333000FF484848484848FFFF484848484848FF31
:10334000FF484848FFFFFFFFFFFFFFFFFFFFFFFFB2
:10335000FFFFFFFF48484848484848484848484811
:10336000484848484848484848484848FFFFFFFF01
:1033700048484848FFFFFFFF48484848FFFFFFFF15
:1033800048484848FFFFFFFF48484848FFFFFFFF05
:1033900048484848FFFFFFFF48484848FFFFFFFFF5
:1033A00048484848FFFFFFFF48484848484848FF0A
:1033B000FF484848484848FFFF484848484848FFB1
:1033C000FF484848484848FFFFFFFFFF484848FF7C
:1033D000FFFFFFFF48484848484848484848484891
:1033E00048484848484848484848484848FFFFFF38
:1033F000FF48484848FFFF484848484848FFFFFF03
:10340000FF48484848FFFF484848484848FFFFFFF2
:10341000FFFFFF48484848FFFF484848484848FFE2
:10342000FFFFFF48484848484848484848484848F7
:1034300048484848484848FFFF4848484848FFFF30
:10344000FFFF484848FFFFFFFFFFFF48484848FF8D
:10345000FF484848484848FFFF484848484848FF10
:10346000FF48484848484848484848484848484825
:1034700048484848484848FFFF484848484848FFA7
:10348000FF484848484848FFFF48484848FFFFFF72
:10349000FFFFFF484848FFFFFFFF4848484848FFF4
:1034A000FF484848484848484848484848484848E5
:1034B00048484848484848FFFF4848484848FFFFB0
:1034C0004848484848FFFFFFFFFFFF484848FFFFC4
:1034D00048484848484848FFFF48484848484848FE
:1034E000484848484848484848484848484848485C
:1034F00048484848484848FFFF48484848484848DE
:10350000FFFF484848FFFFFFFFFFFF484848484883
:10351000FFFF4848484848FFFF484848484848484F
:10352000484848484848484848484848484848481B
:10353000484848484848484848484848484848480B
:1035400048484848484848484848484848484848FB
:1035500048484848484848484848484848484848EB
:1035600048484848484848484848484848484848DB
:1035700048484848484848FFFF484848484848FFA6
:10358000FF484848484848FFFF484848484848FFDF
:10359000FF4848484848484848484848484848FF3D
:1035A000FF484848484848484848484848484848E4
:1035B0004848484848FFFF4848FFFF4848FFFF4841
:1035C00048FFFF4848FFFF4848FFFF484848484831
:1035D000484848484848484848484848484848486B
:1035E000484848484848484848484848484848485B
:1035F0004848484848FFFF4848FFFF48FFFFFFFF93
:10360000FFFFFFFF48FFFF4848FFFF4848FFFF4814
:1036100048FFFF48FFFFFFFFFFFFFFFF48FFFF4896
:1036200048FFFF484848484848484848484848FFF5
:10363000FF4848484848FFFFFFFFFF4848FFFF4852
:10364000484848484848FFFFFFFF4848484848481E
:1036500048FFFF4848FFFFFFFFFF4848484848FF32
:10366000FF48484848484848484848484848484823
:103670004848484848FFFF4848FFFF4848FFFF4880
:10368000FFFF4848484848FFFF4848484848FFFF70
:103690004848484848FFFF4848FFFF4848FF484817
:1036A00048FFFF484848484848484848484848FF75
:1036B000FFFF48484848FFFF48FFFF48484848FF89
:1036C000FFFF48484848FFFFFF48484848FFFF4879
:1036D000FFFFFFFF48FFFF4848FFFF484848FFFF44
:1036E000FF48FFFF48484848484848484848484835
:1036F00048484848484848FFFF484848484848FF25
:10370000FF484848484848FFFF4848484848484814
:103710004848484848484848484848484848484829
:103720004848484848484848484848484848484819
:103730004848484848484848FFFFFF48484848FF2D
:10374000FFFF4848484848FFFF484848484848FF66
:10375000FF484848484848FFFFFF4848484848480D
:10376000FFFFFF48484848484848484848484848B4
:103770004848484848FFFFFF484848484848FFFF36
:10378000FF484848484848FFFF484848484848FFDD
:10379000FF4848484848FFFFFF48484848FFFFFFA8
:1037A0004848484848484848484848484848484899
:1037B0004848484848FFFF4848FFFF484848FFFF3F
:1037C000FFFF4848FFFFFFFFFFFFFFFF4848FFFFE5
:1037D000FFFF484848FFFF4848FFFF48484848481F
:1037E0004848484848484848484848484848484859
:1037F00048484848484848FFFF484848484848FF24
:10380000FF48484848FFFFFFFFFFFF48484848FF80
:10381000FF484848484848FFFF4848484848484803
:103820004848484848484848484848484848484818
:103830004848484848484848484848484848484808
:1038400048484848484848484848484848484848F8
:1038500048484848484848FFFF484848484848FFC3
:10386000FF4848484848FFFF4848484848484848B3
:1038700048484848484848484848484848484848C8
:103880004848484848FFFFFFFFFFFF48484848486E
:1038900048484848484848484848484848484848A8
:1038A0004848484848484848484848484848484898
:1038B0004848484848484848484848484848484888
:1038C0004848484848484848484848484848484878
:1038D00048484848484848FFFF484848484848FF43
:1038E000FF484848484848484848484848484848A1
:1038F000484848484848484848FFFF4848484848DA
:10390000FFFF4848484848FFFF4848484848FFFFED
:103910004848484848FFFF484848484848FF484802
:103920004848484848484848484848484848484817
:10393000484848484848FFFFFFFF484848FFFF48BD
:1039400048FFFF4848FFFF48FFFFFF4848FFFFFFD1
:1039500048FFFF4848FFFF4848FFFF484848FFFF2F
:10396000FFFF484848484848484848484848484869
:1039700048484848484848FFFF4848484848FFFFEB
:10398000FF484848484848FFFF484848484848FFDB
:10399000FF484848484848FFFF48484848FFFFFF5D
:1039A000FFFFFF4848484848484848484848484872
:1039B000484848484848FFFFFFFF484848FFFF483D
:1039C00048FFFF4848484848FFFF4848484848FFE4
:1039D000FF4848484848FFFF4848484848FFFFFF1D
:1039E000FFFFFF4848484848484848484848484832
:1039F0004848484848FFFFFFFFFFFF4848484848FD
:103A0000FFFF4848484848FFFF484848484848485A
:103A1000FFFF484848FFFF4848FFFF484848FFFF6E
:103A2000FFFF4848484848484848484848484848A8
:103A30004848484848484848FFFF4848484848FFE1
:103A4000FFFF48484848FFFFFFFF484848FFFF483E
:103A5000FFFF484848FFFFFFFFFFFF48484848482E
:103A6000FFFF484848484848484848484848484868
:103A70004848484848FFFFFFFFFFFF4848FFFF480E
:103A80004848484848FFFFFFFFFF48484848484823
:103A900048FFFF4848FFFF4848FFFF484848FFFFEE
:103AA000FFFF484848484848484848484848484828
:103AB000484848484848FFFFFFFF484848FFFF483C
:103AC0004848484848FFFFFFFFFF484848FFFF4875
:103AD00048FFFF4848FFFF4848FFFF484848FFFFAE
:103AE000FFFF4848484848484848484848484848E8
:103AF0004848484848FFFFFFFFFFFF4848484848FC
:103B000048FFFF4848484848FFFF4848484848FFA2
:103B1000FF4848484848FFFF484848484848FFFF92
:103B20004848484848484848484848484848484815
:103B3000484848484848FFFFFFFF484848FFFF48BB
:103B400048FFFF484848FFFFFFFF484848FFFF483D
:103B500048FFFF4848FFFF4848FFFF484848FFFF2D
:103B6000FFFF484848484848484848484848484867
:103B7000484848484848FFFFFFFF484848FFFF487B
:103B800048FFFF484848FFFFFFFFFF4848484848B4
:103B900048FFFF4848484848FFFF48484848FFFF5B
:103BA000FF484848484848484848484848484848DE
:103BB000484848484848484848484848484848FFCE
:103BC000FF484848484848FFFF4848484848484850
:103BD00048484848484848FFFF484848484848FF40
:103BE000FF4848484848484848484848484848489E
:103BF000484848484848484848484848484848FF8E
:103C0000FF484848484848FFFF484848484848480F
:103C100048484848484848FFFF484848484848FFFF
:103C2000FF4848484848FFFF4848484848484848EF
:103C300048FFFF4848484848FFFF4848484848FF71
:103C4000FF4848484848FFFF48484848484848FF18
:103C5000FF48484848484848FFFF484848484848BF
:103C600048FFFF4848484848484848484848484866
:103C700048484848484848484848484848FFFFFF9F
:103C8000FFFFFF484848484848484848484848488F
:103C90004848484848FFFFFFFFFFFF48484848485A
:103CA00048484848484848484848484848FFFF4826
:103CB000484848484848FFFF48484848484848FF5F
:103CC000FF48484848484848FFFF4848484848FF98
:103CD000FF4848484848FFFF4848484848FFFF48D1
:103CE0004848484848484848484848484848484854
:103CF000484848484848FFFFFFFF484848FFFF48FA
:103D000048FFFF4848484848FFFF4848484848FFA0
:103D1000FF4848484848484848484848484848FFB5
:103D2000FF4848484848484848484848484848485C
:103D3000484848484848FFFFFFFF484848FFFF48B9
:103D400048FFFF4848FFFF48FFFFFF4848FFFF4884
:103D5000FFFFFF4848FFFF48484848484848FFFFE2
:103D6000FFFFFF48484848484848484848484848AE
:103D700048484848484848FFFF4848484848FFFFE7
:103D8000FFFF484848FFFF4848FFFF4848FFFF48FB
:103D900048FFFF4848FFFFFFFFFFFF4848FFFF487D
:103DA00048FFFF4848484848484848484848484825
:103DB0004848484848FFFFFFFFFF484848FFFF4882
:103DC00048FFFF4848FFFFFFFFFF484848FFFF4804
:103DD00048FFFF4848FFFF4848FFFF4848FFFFFFF4
:103DE000FFFF4848484848484848484848484848E5
:103DF000484848484848FFFFFFFF484848FFFF48F9
:103E000048FFFF4848FFFF484848484848FFFF48E8
:103E10004848484848FFFF4848FFFF484848FFFFD8
:103E2000FFFF4848484848484848484848484848A4
:103E30004848484848FFFFFFFF48484848FFFF48B8
:103E4000FFFF484848FFFF4848FFFF4848FFFF483A
:103E500048FFFF4848FFFF48FFFF484848FFFFFF73
:103E6000FF4848484848484848484848484848481B
:103E70004848484848FFFFFFFFFFFF4848FFFF480A
:103E80004848484848FFFFFFFFFF484848FFFF48B1
:103E90004848484848FFFF484848484848FFFFFF0F
:103EA000FFFFFF484848484848484848484848486D
:103EB0004848484848FFFFFFFFFFFF4848FFFF48CA
:103EC0004848484848FFFFFFFFFF484848FFFF4871
:103ED0004848484848FFFF484848484848FFFF4886
:103EE0004848484848484848484848484848484852
:103EF000484848484848FFFFFFFFFF4848FFFF4841
:103F00004848484848FFFF484848484848FFFF4855
:103F1000FFFFFF4848FFFF4848FFFF484848FFFFB2
:103F2000FFFFFF48484848484848484848484848EC
:103F30004848484848FFFF4848FFFF4848FFFF48B7
:103F400048FFFF4848FFFFFFFFFFFF4848FFFF48CB
:103F500048FFFF4848FFFF4848FFFF4848FFFF4829
:103F600048FFFF4848484848484848484848484863
:103F70004848484848FFFFFFFFFFFF48484848FFC0
:103F8000FF484848484848FFFF484848484848FFD5
:103F9000FF484848484848FFFF48484848FFFFFF57
:103FA000FFFFFF484848484848484848484848486C
:103FB0004848484848484848FFFFFF48484848485C
:103FC00048FFFF484848484848FFFF484848484895
:103FD00048FFFF4848FFFF4848FFFF484848FFFFA9
:103FE000FFFF4848484848484848484848484848E3
:103FF0004848484848FFFF4848FFFF4848FFFF48F7
:10400000FFFF484848FFFFFFFF48484848FFFFFFC1
:10401000FF48484848FFFF48FFFF484848FFFF481F
:1040200048FFFF48484848484848484848484848A2
:104030004848484848FFFF484848484848FFFF4824
:104040004848484848FFFF484848484848FFFF4814
:104050004848484848FFFF484848484848FFFFFF4D
:10406000FFFFFF48484848484848484848484848AB
:104070004848484848FFFF484848FFFF48FFFFFFBF
:1040800048FFFFFF48FFFFFFFFFFFFFF48FFFF481C
:10409000FF48FFFF48FFFF484848FFFF48FFFF4831
:1040A0004848FFFF48484848484848484848484822
:1040B0004848484848FFFF4848FFFF4848FFFFFF7F
:1040C00048FFFF4848FFFFFFFFFFFF4848FFFFFF93
:1040D000FFFFFF4848FFFF48FFFFFF4848FFFF483A
:1040E00048FFFF48484848484848484848484848E2
:1040F000484848484848FFFFFFFF484848FFFF48F6
:1041000048FFFF4848FFFF4848FFFF4848FFFF4877
:1041100048FFFF4848FFFF4848FFFF484848FFFF67
:10412000FFFF4848484848484848484848484848A1
:104130004848484848FFFFFFFFFF484848FFFF48FE
:1041400048FFFF4848FFFF4848FFFF4848FFFFFF80
:10415000FFFF484848FFFF484848484848FFFF4895
:1041600048484848484848484848484848484848CF
:10417000484848484848FFFFFFFF484848FFFF4875
:1041800048FFFF4848FFFF4848FFFF4848FFFF48F7
:1041900048FFFF4848FFFF48FFFF48484848FFFFE7
:1041A00048FFFF4848484848484848484848484821
:1041B0004848484848FFFFFFFFFF484848FFFF487E
:1041C00048FFFF4848FFFF4848FFFF4848FFFFFF00
:1041D000FFFF484848FFFF48FFFF484848FFFF48A7
:1041E00048FFFF48484848484848484848484848E1
:1041F000484848484848FFFFFFFF484848FFFF48F5
:10420000484848484848FFFFFFFF48484848484852
:1042100048FFFF484848484848FFFF484848FFFFD4
:10422000FFFF4848484848484848484848484848A0
:104230004848484848FFFFFFFFFFFF48484848FFFD
:10424000FF484848484848FFFF484848484848FF12
:10425000FF484848484848FFFF484848484848FF02
:10426000FF48484848484848484848484848484817
:104270004848484848FFFF4848FFFF4848FFFF4874
:1042800048FFFF4848FFFF4848FFFF4848FFFF48F6
:1042900048FFFF4848FFFF4848FFFF4848FFFFFF2F
:1042A000FFFFFF4848484848484848484848484869
:1042B0004848484848FFFF4848FFFF4848FFFF4834
:1042C00048FFFF4848FFFF4848FFFF4848FFFF48B6
:1042D00048FFFF484848FFFFFFFF4848484848FF5D
:1042E000FF48484848484848484848484848484897
:1042F0004848484848FFFF484848FFFF48FFFF48F4
:104300004848FFFF48FFFF48FF48FFFF48FFFFFF07
:10431000FFFFFFFF48FFFFFF48FFFFFF48FFFF4889
:104320004848FFFF4848484848484848484848489F
:104330004848484848FFFF4848FFFF4848FFFF48B3
:1043400048FFFF484848FFFFFFFF48484848FFFF35
:10435000FFFF484848FFFF4848FFFF4848FFFF4825
:1043600048FFFF484848484848484848484848485F
:104370004848484848FFFF4848FFFF4848FFFF4873
:1043800048FFFF484848FFFFFFFF4848484848FFAC
:10439000FF484848484848FFFF484848484848FFC1
:1043A000FF484848484848484848484848484848D6
:1043B0004848484848FFFFFFFFFFFF484848484833
:1043C000FFFF4848484848FFFF4848484848FFFF23
:1043D0004848484848FFFF484848484848FFFFFFCA
:1043E000FFFFFF4848484848484848484848484828
:1043F00048484848484848FFFFFFFF48484848FFAA
:10440000FF484848484848FFFF484848484848FF50
:10441000FF484848484848FFFF484848484848FF40
:10442000FFFFFF48484848484848484848484848E7
:104430004848484848FF48484848484848FFFF48D7
:10444000484848484848FFFF48484848484848FFC7
:10445000FF48484848484848FFFF484848484848B7
:1044600048FFFF484848484848484848484848485E
:104470004848484848FFFFFFFF484848484848FF29
:10448000FF484848484848FFFF484848484848FFD0
:10449000FF484848484848FFFF48484848FFFFFF52
:1044A000FF484848484848484848484848484848D5
:1044B0004848484848484848FF484848484848FF0E
:1044C000FFFF48484848FFFF48FFFF4848FFFF48B4
:1044D0004848FFFF484848484848484848484848EE
:1044E000484848484848484848484848484848484C
:1044F000484848484848484848484848484848483C
:10450000484848484848484848484848484848482B
:10451000484848484848484848484848FFFFFFFF3F
:10452000FFFFFFFF4848484848484848484848482F
:1045300048484848484848FFFF4848484848FFFF1F
:10454000FFFF484848FFFFFFFFFFFF4848FFFFFF0E
:10455000FFFFFF484848FFFFFFFF4848484848FF23
:10456000FF48484848484848484848484848484814
:104570004848484848484848484848484848FFFF4D
:10458000FFFF48484848484848FFFF484848FFFF61
:10459000FFFFFF4848FFFF4848FFFF484848FFFF2C
:1045A000FFFFFF4848484848484848484848484866
:1045B0004848484848FFFF484848484848FFFF489F
:1045C0004848484848FFFFFFFFFF484848FFFF486A
:1045D00048FFFF4848FFFF4848FFFF4848FFFFFFEC
:1045E000FFFF4848484848484848484848484848DD
:1045F0004848484848484848484848484848FFFFCD
:10460000FFFF484848FFFF484848484848FFFF48E0
:104610004848484848FFFF48484848484848FFFF3E
:10462000FFFF48484848484848484848484848489C
:10463000484848484848484848FFFF48484848488C
:1046400048FFFF484848FFFFFFFFFF4848FFFF487B
:1046500048FFFF4848FFFF4848FFFF484848FFFF22
:10466000FFFFFF48484848484848484848484848A5
:104670004848484848484848484848484848FFFF4C
:10468000FFFF484848FFFF4848FFFF4848FFFFFF3B
:10469000FFFFFF4848FFFF48484848484848FFFF99
:1046A000FFFF48484848484848484848484848481C
:1046B0004848484848484848FFFFFF48484848FF9E
:1046C000FF4848484848FFFFFFFFFF48484848FF69
:1046D000FF484848484848FFFF484848484848FF7E
:1046E000FF48484848484848484848484848484893
:1046F0004848484848484848484848484848FFFFCC
:10470000FFFFFF4848FFFF4848FFFF4848FFFF48BA
:1047100048FFFF484848FFFFFFFFFF484848484818
:1047200048FFFF4848FFFFFFFFFF48484848484808
:104730004848484848FFFF484848484848FFFF481D
:104740004848484848FFFFFFFFFF484848FFFF48E8
:1047500048FFFF4848FFFF4848FFFF4848FFFF4821
:1047600048FFFF484848484848484848484848485B
:1047700048484848484848FFFF484848484848484B
:10478000484848484848FFFFFF484848484848FFCD
:10479000FF484848484848FFFF4848484848FFFF06
:1047A000FFFF48484848484848484848484848481B
:1047B000484848484848484848FFFF48484848480B
:1047C000484848484848484848FFFF4848484848FB
:1047D00048FFFF484848484848FFFF48484848487D
:1047E00048FFFF484848FFFFFFFF484848484848FF
:1047F0004848484848FFFF484848484848FFFF485D
:104800004848484848FFFF48FFFF484848FFFFFF27
:10481000FF48484848FFFF48FFFF484848FFFF4817
:1048200048FFFF484848484848484848484848489A
:10483000484848484848FFFFFF484848484848FF1C
:10484000FF484848484848FFFF484848484848FF0C
:10485000FF484848484848FFFF4848484848FFFF45
:10486000FFFF48484848484848484848484848485A
:1048700048484848484848484848484848FFFF484A
:1048800048FFFF4848FFFFFFFFFFFFFF48FFFFFF14
:10489000FFFFFFFF48FFFF48FF48FFFF48FFFF48BB
:1048A0004848FFFF4848484848484848484848481A
:1048B00048484848484848484848484848FFFFFF53
:1048C000FFFF484848FFFF4848FFFF4848FFFF48B0
:1048D00048FFFF4848FFFF4848FFFF4848FFFF48A0
:1048E00048FFFF48484848484848484848484848DA
:1048F0004848484848484848484848484848FFFFCA
:10490000FFFF484848FFFF4848FFFF4848FFFF486F
:1049100048FFFF4848FFFF4848FFFF484848FFFF5F
:10492000FFFF484848484848484848484848484899
:1049300048484848484848484848484848FFFFFFD2
:10494000FFFF484848FFFF4848FFFF4848FFFF482F
:1049500048FFFF4848FFFFFFFFFF484848FFFF4868
:104960004848484848FFFF48484848484848484859
:104970004848484848484848484848484848FFFF49
:10498000FFFFFF4848FFFF4848FFFF4848FFFF4838
:1049900048FFFF484848FFFFFFFFFF484848484896
:1049A00048FFFF484848484848FFFF4848484848AB
:1049B00048484848484848484848484848FFFFFF52
:1049C000FFFF484848FFFF4848FFFF4848FFFF48AF
:1049D0004848484848FFFF484848484848FFFF487B
:1049E0004848484848484848484848484848484847
:1049F0004848484848484848484848484848FFFFC9
:104A0000FFFFFF4848FFFF48484848484848FFFF25
:104A1000FFFF48484848484848FFFF4848FFFFFF15
:104A2000FFFF484848484848484848484848484898
:104A300048484848484848FFFF48484848FFFFFF63
:104A4000FFFFFF48484848FFFF484848484848FF9C
:104A5000FF484848484848FFFF48484848484848B1
:104A6000FFFFFF48484848484848484848484848A1
:104A700048484848484848484848484848FFFF4848
:104A800048FFFF4848FFFF4848FFFF4848FFFF48EE
:104A900048FFFF4848FFFF4848FFFF484848FFFFDE
:104AA000FFFFFF4848484848484848484848484861
:104AB00048484848484848484848484848FFFF4808
:104AC00048FFFF4848FFFF4848FFFF4848FFFF48AE
:104AD00048FFFF484848FFFFFFFF4848484848FF55
:104AE000FF4848484848484848484848484848488F
:104AF00048484848484848484848484848FFFF48C8
:104B00004848FFFF48FFFF48FF48FFFF48FFFFFFFF
:104B1000FFFFFFFF4848FFFFFFFFFF484848FFFF38
:104B200048FFFF4848484848484848484848484897
:104B300048484848484848484848484848FFFF4887
:104B400048FFFF484848FFFFFFFF4848484848FFE4
:104B5000FF4848484848FFFFFFFF484848FFFF48D4
:104B600048FFFF4848484848484848484848484857
:104B700048484848484848484848484848FFFF4847
:104B800048FFFF4848FFFF4848FFFF4848FFFF48ED
:104B900048FFFF484848FFFFFFFFFF484848484894
:104BA000FFFF484848FFFFFFFF484848484848483B
:104BB00048484848484848484848484848FFFFFF50
:104BC000FFFFFF4848484848FFFF4848484848FF1B
:104BD000FF4848484848FFFF4848484848FFFFFF0B
:104BE000FFFFFF4848484848484848484848484820
:104BF00048484848484848FFFF4848484848FFFF59
:104C0000FFFF484848FFFFFFFFFFFF4848FFFFFF47
:104C1000FFFFFF48484848FFFF4848484848FFFF13
:104C2000FFFF48484848484848484848484848FFDF
:104C3000FF484848484848FFFF484848484848FF18
:104C4000FF484848484848FFFF484848484848FF08
:104C5000FF484848484848FFFF484848484848FFF8
:104C6000FF484848484848FFFF484848484848489F
:104C70004848484848FFFFFFFFFFFF4848FFFFFF45
:104C8000FF48484848FFFFFFFFFF484848FFFF48EC
:104C9000FFFFFF4848FFFF4848FFFF484848484893
:104CA00048FFFF4848484848484848484848484816
:104CB000FF484848484848FFFF4848484848FFFFE1
:104CC000FF48484848FFFFFFFF4848484848FFFF63
:104CD000FF484848484848FFFF484848484848482F
:104CE000FF4848484848484848484848484848FFD6
:104CF00048484848484848FFFF484848484848FF0F
:104D0000FFFF4848484848FFFFFFFF48484848FF22
:104D1000FFFF4848484848FFFF484848484848FF80
:104D20004848484848484848484848480C0C1516E0
:104D3000161616161616161616171B1C1D1E1E1CEA
:104D40001D1E1E1C1D1F1B26271E1E26271E1E265F
:104D5000271F1B1E1E1E1E1E1E1E1E1E1E1F1B1E6E
:104D60001E1E1E1E1E1E1E1E1E1F1B1C1D1E1E1C6A
:104D70001D1E1E1C1D1F1B26271E1E26271E1E262F
:104D8000271F1B1E1E1E1E1E1E1E1E1E1E1F1B1E3E
:104D90001E1E1E1E1E1E1E1E1E1F1B1C1D1E1E1C3A
:104DA0001D1E1E1C1D1F1B26271E1E26271E1E26FF
:104DB000271F34353535353535353535353602022D
:104DC0001C1D2627020221222829020223242A2B25
:104DD00002022C2D303102022E2F323308010D0E2B
:104DE0000F101112131418010D024E01013F0101A1
:104DF0003F010100000D034E01013F01013F010190
:104E00000A063A3B3B3B3B3B3B3B3B3C3D3E1310A6
:104E100011100E3F00403D00000000000000004067
:104E20003D0046000000004700403D00000000003B
:104E3000000000404B4C4C4C4C4C4C4C4C4D0A062A
:104E40003A3B3B3B3B3B3B3B3B3C3D000D11414236
:104E50000E4300403D0000440D00450000403D0071
:104E60003E0E1041480F00403D000049414A1000ED
:104E700000404B4C4C4C4C4C4C4C4C4D48484848DA
:104E800048484848484848484848484848484848A2
:104E90004848484848484848484848484848484892
:104EA0004848484848484848484848484848484882
:104EB0004848484848484848484848484848484872
:104EC000484848484848FFFFFFFF484848FFFF4818
:104ED00048FFFF4848FFFF48FFFFFF4848FFFFFF2C
:104EE00048FFFF4848FFFF4848FFFF484848FFFF8A
:104EF000FFFF4848484848484848484848484848C4
:104F000048484848484848FFFF4848484848FFFF45
:104F1000FF484848484848FFFF484848484848FF35
:104F2000FF484848484848FFFF48484848FFFFFFB7
:104F3000FFFFFF48484848484848484848484848CC
:104F4000484848484848FFFFFFFF484848FFFF4897
:104F500048FFFF4848484848FFFF4848484848FF3E
:104F6000FF4848484848FFFF4848484848FFFFFF77
:104F7000FFFFFF484848484848484848484848488C
:104F80004848484848FFFFFFFFFFFF484848484857
:104F9000FFFF4848484848FFFF48484848484848B5
:104FA000FFFF484848FFFF4848FFFF484848FFFFC9
:104FB000FFFF484848484848484848484848484803
:104FC0004848484848484848FFFF4848484848FF3C
:104FD000FFFF48484848FFFFFFFF484848FFFF4899
:104FE000FFFF484848FFFFFFFFFFFF484848484889
:104FF000FFFF4848484848484848484848484848C3
:105000004848484848FFFFFFFFFFFF4848FFFF4868
:105010004848484848FFFFFFFFFF4848484848487D
:1050200048FFFF4848FFFF4848FFFF484848FFFF48
:10503000FFFF484848484848484848484848484882
:10504000484848484848FFFFFFFF484848FFFF4896
:105050004848484848FFFFFFFFFF484848FFFF48CF
:1050600048FFFF4848FFFF4848FFFF484848FFFF08
:10507000FFFF484848484848484848484848484842
:105080004848484848FFFFFFFFFFFF484848484856
:1050900048FFFF4848484848FFFF4848484848FFFD
:1050A000FF4848484848FFFF484848484848FFFFED
:1050B0004848484848484848484848484848484870
:1050C000484848484848FFFFFFFF484848FFFF4816
:1050D00048FFFF484848FFFFFFFF484848FFFF4898
:1050E00048FFFF4848FFFF4848FFFF484848FFFF88
:1050F000FFFF4848484848484848484848484848C2
:10510000484848484848FFFFFFFF484848FFFF48D5
:1051100048FFFF484848FFFFFFFFFF48484848480E
:1051200048FFFF4848484848FFFF48484848FFFFB5
:10513000FF48484848484848484848484848484838
:10514000FF484848484848FFFF4848484848FFFF4C
:10515000FF48484848FFFFFFFF4848484848FFFFCE
:10516000FF484848484848FFFF484848484848489A
:10517000FF4848484848484848484848484848FF41
:1051800048484848484848FFFF484848484848FF7A
:10519000FFFF4848484848FFFFFFFF48484848FF8E
:1051A000FFFF4848484848FFFF484848484848FFEC
:1051B000484848484848484848484848484848486F
:1051C0004848484848FFFFFFFFFF484848FFFF485E
:1051D00048FFFF4848FFFF4848FFFF4848FFFFFFE0
:1051E000FFFF484848FFFF484848484848FFFF48F5
:1051F000484848484848484848484848484848482F
:105200004848484848484848484848484848FFFFB0
:10521000FFFF484848FFFF4848FFFF4848FFFFFF9F
:10522000FFFFFF4848FFFF48484848484848FFFFFD
:10523000FFFF484848484848484848484848484880
:1052400048484848484848484848484848FFFFFFB9
:10525000FFFF484848FFFF4848FFFF4848FFFF4816
:1052600048FFFF4848FFFF4848FFFF4848FFFF4806
:1052700048FFFF4848484848484848484848484840
:1052800048484848484848FFFF48484848FFFFFF0B
:10529000FFFFFF48484848FFFF484848484848FF44
:1052A000FF484848484848FFFF4848484848484859
:1052B000FFFFFF4848484848484848484848484849
:1052C0004848484848484848484848484848FFFFF0
:1052D000FFFF48484848484848FFFF484848FFFF04
:1052E000FFFFFF4848FFFF4848FFFF484848FFFFCF
:1052F000FFFFFF4848484848484848484848484809
:105300004848484848484848484848484848FFFFAF
:10531000FFFFFF4848FFFF4848FFFF4848FFFF489E
:1053200048FFFF484848FFFFFFFFFF4848484848FC
:1053300048FFFF4848FFFFFFFFFF484848484848EC
:105340004848484848484848484848484848FFFF6F
:10535000FFFF484848FFFF4848FFFF4848FFFF4815
:1053600048FFFF4848FFFF4848FFFF484848FFFF05
:10537000FFFF48484848484848484848484848483F
:1053800048484848484848FFFF484848484848FF78
:10539000FF484848484848FFFF484848484848FFB1
:1053A000FF4848484848484848484848484848FF0F
:1053B000FF484848484848484848484800000000D6
:1053C00000000000000000000000000000006E6E01
:1053D0006E6E6E6E00006E6E6E6E6E6E00006E6EA5
:1053E0006E6E6E6E00006E6E6E6E6E6E00006E6E95
:1053F0006E6E6E6E00006E6E6E6E6E6E0000000061
:105400000000000000000000000000006E6E6E6EE4
:105410006E6E6E6E6E6E6E6E6E6E6E6E6E6E6E6EAC
:105420006E6E6E6E6E6E6E6E6E6E6E6E6E6E6E6E9C
:105430006E6E6E6E6E6E6E6E6E6E6E6E0000000044
:105440000000000000000000000000006E6E6E6EA4
:105450006E6E00006E6E6E6E6E6E00006E6E6E6E24
:105460006E6E00006E6E6E6E6E6E00006E6E6E6E14
:105470006E6E00006E6E6E6E6E6E00002929292918
:1054800029292929292929292929292929296E6E02
:105490006E6E6E6E29296E6E6E6E6E6E29296E6E40
:1054A0006E6E6E6E29296E6E6E6E6E6E29296E6E30
:1054B0006E6E6E6E29296E6E6E6E6E6E29292929AA
:1054C0002929292929292929292929296E6E6E6E38
:1054D0006E6E6E6E6E6E6E6E6E6E6E6E6E6E6E6EEC
:1054E0006E6E6E6E6E6E6E6E6E6E6E6E6E6E6E6EDC
:1054F0006E6E6E6E6E6E6E6E6E6E6E6E29292929E0
:105500002929292929292929292929296E6E6E6EF7
:105510006E6E29296E6E6E6E6E6E29296E6E6E6EBF
:105520006E6E29296E6E6E6E6E6E29296E6E6E6EAF
:105530006E6E29296E6E6E6E6E6E292900006E6E7B
:105540006E6E6E6E00006E6E6E6E6E6E00006E6E33
:105550006E6E6E6E00006E6E6E6E6E6E00006E6E23
:105560006E6E6E6E00006E6E6E6E6E6E00006E6E13
:105570006E6E6E6E00006E6E6E6E6E6E6E6E6E6E27
:105580006E0000006E6E6E00001C1C1C6E6E001C17
:105590001C1C641C6E001C1C1C641C646E001C5CC7
:1055A000241C241C001C241C5C645C24005C1C6403
:1055B0001C24245D001C641C245C65240000006E17
:1055C0006E6E6E6E1C641C00006E6E6E641C642534
:1055D00064006E6E1C6425642465006E6524646539
:1055E0006565006E64652564256565002425646530
:1055F000656D650065646525656565006E6E6E6E3A
:105600006E6E6E6E6E6E6E6E6E6E6E6E6E6E6E6EBA
:105610006E6E6E6E6E6E6E6E6E6E6E6E6E6E6E6EAA
:105620006E6E6E6E6E6E6E6E6E6E6E6E6E6E6E6E9A
:105630006E6E6E6E6E6E6E6E6E6E6E6E6E6E6E6E8A
:105640006E6E00006E6E6E6E6E6E00006E6E6E6E32
:105650006E6E00006E6E6E6E6E6E00006E6E6E6E22
:105660006E6E00006E6E6E6E6E6E00006E6E6E6E12
:105670006E6E00006E6E6E6E6E6E000029296E6E8C
:105680006E6E6E6E29296E6E6E6E6E6E29296E6E4E
:105690006E6E6E6E29296E6E6E6E6E6E29296E6E3E
:1056A0006E6E6E6E29296E6E6E6E6E6E29296E6E2E
:1056B0006E6E6E6E29296E6E6E6E6E6E6E6E6E6E94
:1056C0006E0000006E6E6E00004909496E6E005259
:1056D000491249526E0051094A0949096E004A09A6
:1056E000FFFF094900491149FF49090900114A49C9
:1056F00009094949004A4909094909090000006E98
:105700006E6E6E6E09490900006E6E6E0949094998
:1057100009006E6E490949090909006E090909491C
:105720000940006E494909090109080009094108B1
:105730004900010009090801080108006E6E6E6E3B
:105740006E0000006E6E6E0000FFFFFF6E6E00FFC9
:10575000FFFFFFFF6E00FFFFFFFFFEF76E00FFFF82
:10576000FFFFF7FE00FFFFFFFFFEF7BE00FFFFF6A3
:10577000FFF7FEF700FFFFFFF7FEB7F60000006E31
:105780006E6E6E6EFFFFFF00006E6E6EFFF6F6FF30
:10579000F6006E6EFEF7BFF6B6F6006EF7BEF6F6D2
:1057A000F6B6006EF6F6B6F6B6F6B600BEF7F6B684
:1057B000F6B6F600F6F6B6F6B6F6AD006E6E6E6E9E
:1057C0006E6E29296E6E6E6E6E6E29296E6E6E6E0D
:1057D0006E6E29296E6E6E6E6E6E29296E6E6E6EFD
:1057E0006E6E29296E6E6E6E6E6E29296E6E6E6EED
:1057F0006E6E29296E6E6E6E6E6E292900241C64F1
:1058000065246564005C241C6524652500256465A9
:10581000246565646E006425646525656E002564F5
:10582000652565656E6E006565656D656E6E6E00FD
:105830000065656D6E6E6E6E6E00000065256565B7
:105840006D656D0065656D65656D65006565656DAA
:10585000656D6D002D656D656D6D006E656D656DB9
:105860006D66006E6D656D6E6D006E6E656D6D00C2
:10587000006E6E6E0000006E6E6E6E6E000909495D
:10588000490949090049090909090909000949495A
:10589000490940096E000909090909096E00490909
:1058A000490040016E6E0009000909006E6E6E002D
:1058B000000800086E6E6E6E6E0000004900490020
:1058C000010800000009000900000000490009006B
:1058D00009000000000900000000006E0800000838
:1058E0000000006E0108010000006E6E0000000064
:1058F000006E6E6E0000006E6E6E6E6E00FFF6FE45
:10590000B6F6F6F600FFF7FFF6BFF6B600F6FEB6FF
:10591000F6F6B6F66E00B6F7F6B6F6F66E00F6F6E2
:10592000B6F6B6B66E6E00F6B6F6B6ED6E6E6E00F4
:1059300000ADF6B66E6E6E6E6E000000B6B6F6B6D0
:10594000F5AEB500F6F6B6EEB6EDAE00B6B6F6B507
:10595000AEB5AD00B6F6ADAEF5AD006EEDADB6EDE3
:10596000ADAD006EB6EDADB5AE006E6EADB6AD00D0
:10597000006E6E6E0000006E6E6E6E6E6E6E6E6EFF
:105980006E2929296E6E6E29294909496E6E2952A0
:10599000491249526E2951094A0949096E294A0991
:1059A000FFFF094929491149FF49090929114A49B4
:1059B00009094949294A4909094909092929296E31
:1059C0006E6E6E6E09490929296E6E6E0949094984
:1059D00009296E6E490949090909296E0909094908
:1059E0000940296E4949090901090829090941089D
:1059F0004900012909090801080108296E6E6E6E27
:105A00006E2929296E6E6E2929FFFFFF6E6E29FF10
:105A1000FFFFFFFF6E29FFFFFFFFFEF76E29FFFF6D
:105A2000FFFFF7FE29FFFFFFFFFEF7BE29FFFFF68E
:105A3000FFF7FEF729FFFFFFF7FEB7F62929296ECA
:105A40006E6E6E6EFFFFFF29296E6E6EFFF6F6FF1B
:105A5000F6296E6EFEF7BFF6B6F6296EF7BEF6F6BD
:105A6000F6B6296EF6F6B6F6B6F6B629BEF7F6B66F
:105A7000F6B6F629F6F6B6F6B6F6AD2929090949BD
:105A80004909490929490909090909092909494906
:105A9000490940096E290909090909096E294909B5
:105AA000490040016E6E2909000909006E6E6E29D9
:105AB000290800086E6E6E6E6E292929490049007A
:105AC0000108002900090009000000294900090017
:105AD00009000029000900000000296E08000008E4
